:020000040000fa
:080000000002040000000000f2
:020000040000fa
:040008004e030000a3
:020000040000fa
:04000c004e0300009f
:020000040000fa
:040010004e0300009b
:020000040000fa
:040014004e03000097
:020000040000fa
:040018004e03000093
:020000040000fa
:04001c004e0300008f
:020000040000fa
:040020004e0300008b
:020000040000fa
:040024004e03000087
:020000040000fa
:040028004e03000083
:020000040000fa
:04002c004e0300007f
:020000040000fa
:040030004e0300007b
:020000040000fa
:0400340024030000a1
:020000040000fa
:040038004e03000073
:020000040000fa
:04003c004e0300006f
:020000040000fa
:040040004e0300006b
:020000040000fa
:040044004e03000067
:020000040000fa
:04004800fa020000b8
:020000040000fa
:04004c004e0300005f
:020000040000fa
:040050004e0300005b
:020000040000fa
:040054004e03000057
:020000040000fa
:040058004e03000053
:020000040000fa
:04005c004e0300004f
:020000040000fa
:040060004e0300004b
:020000040000fa
:040064004e03000047
:020000040000fa
:040068004e03000043
:020000040000fa
:04006c004e0300003f
:020000040000fa
:040070004e0300003b
:020000040000fa
:040074004e03000037
:020000040000fa
:040078004e03000033
:020000040000fa
:04007c004e0300002f
:020000040000fa
:040080004e0300002b
:020000040000fa
:040084004e03000027
:020000040000fa
:040088004e03000023
:020000040000fa
:04008c004e0300001f
:020000040000fa
:040090004e0300001b
:020000040000fa
:040094004e03000017
:020000040000fa
:040098004e03000013
:020000040000fa
:04009c004e0300000f
:020000040000fa
:0400a0004e0300000b
:020000040000fa
:0400a4004e03000007
:020000040000fa
:0400a8004e03000003
:020000040000fa
:0400ac004e030000ff
:020000040000fa
:0400b0004e030000fb
:020000040000fa
:0400b4004e030000f7
:020000040000fa
:0400b8004e030000f3
:020000040000fa
:0400bc004e030000ef
:020000040000fa
:0400c0004e030000eb
:020000040000fa
:0400c4004e030000e7
:020000040000fa
:0400c8004e030000e3
:020000040000fa
:0400cc004e030000df
:020000040000fa
:0400d0004e030000db
:020000040000fa
:0400d4004e030000d7
:020000040000fa
:0400d8004e030000d3
:020000040000fa
:0400dc004e030000cf
:020000040000fa
:0400e0004e030000cb
:020000040000fa
:0400e4004e030000c7
:020000040000fa
:0400e8004e030000c3
:020000040000fa
:0400ec004e030000bf
:020000040000fa
:0400f0004e030000bb
:020000040000fa
:0400f4004e030000b7
:020000040000fa
:0400f8004e030000b3
:020000040000fa
:0400fc004e030000af
:020000040000fa
:040100004e030000aa
:020000040000fa
:040104004e030000a6
:020000040000fa
:040108004e030000a2
:020000040000fa
:04010c004e0300009e
:020000040000fa
:040110004e0300009a
:020000040000fa
:040114004e03000096
:020000040000fa
:040118004e03000092
:020000040000fa
:04011c004e0300008e
:020000040000fa
:040120004e0300008a
:020000040000fa
:040124004e03000086
:020000040000fa
:040128004e03000082
:020000040000fa
:04012c004e0300007e
:020000040000fa
:040130004e0300007a
:020000040000fa
:040134004e03000076
:020000040000fa
:040138004e03000072
:020000040000fa
:04013c004e0300006e
:020000040000fa
:040140004e0300006a
:020000040000fa
:040144004e03000066
:020000040000fa
:040148004e03000062
:020000040000fa
:04014c004e0300005e
:020000040000fa
:040150004e0300005a
:020000040000fa
:040154004e03000056
:020000040000fa
:040158004e03000052
:020000040000fa
:04015c004e0300004e
:020000040000fa
:040160004e0300004a
:020000040000fa
:040164004e03000046
:020000040000fa
:040168004e03000042
:020000040000fa
:04016c004e0300003e
:020000040000fa
:040170004e0300003a
:020000040000fa
:040174004e03000036
:020000040000fa
:040178004e03000032
:020000040000fa
:04017c004e0300002e
:020000040000fa
:040180004e0300002a
:020000040000fa
:040184004e03000026
:020000040000fa
:040188004e03000022
:020000040000fa
:04018c004e0300001e
:020000040000fa
:040190004e0300001a
:020000040000fa
:040194004e03000016
:020000040000fa
:040198004e03000012
:020000040000fa
:04019c004e0300000e
:020000040000fa
:0401a0004e0300000a
:020000040000fa
:0401a4004e03000006
:020000040000fa
:0401a8004e03000002
:020000040000fa
:0401ac004e030000fe
:020000040000fa
:0401b0004e030000fa
:020000040000fa
:0401b4004e030000f6
:020000040000fa
:0401b8004e030000f2
:020000040000fa
:0401bc004e030000ee
:020000040000fa
:0401c0004e030000ea
:020000040000fa
:0401c4004e030000e6
:020000040000fa
:0401c8004e030000e2
:020000040000fa
:0401cc004e030000de
:020000040000fa
:0401d0004e030000da
:020000040000fa
:0401d4004e030000d6
:020000040000fa
:0401d8004e030000d2
:020000040000fa
:0401dc004e030000ce
:020000040000fa
:0401e0004e030000ca
:020000040000fa
:0401e4004e030000c6
:020000040000fa
:0401e8004e030000c2
:020000040000fa
:0401ec004e030000be
:020000040000fa
:0401f0004e030000ba
:020000040000fa
:0401f4004e030000b6
:020000040000fa
:0401f8004e030000b2
:020000040000fa
:0401fc004e030000ae
:020000040000fa
:040200004e030000a9
:020000040000fa
:040204004e030000a5
:020000040000fa
:040208004e030000a1
:020000040000fa
:04020c004e0300009d
:020000040000fa
:040210004e03000099
:020000040000fa
:040214004e03000095
:020000040000fa
:040218004e03000091
:020000040000fa
:04021c004e0300008d
:020000040000fa
:040220004e03000089
:020000040000fa
:040224004e03000085
:020000040000fa
:040228004e03000081
:020000040000fa
:04022c004e0300007d
:020000040000fa
:040230004e03000079
:020000040000fa
:040234004e03000075
:020000040000fa
:040238004e03000071
:020000040000fa
:04023c004e0300006d
:020000040000fa
:040240004e03000069
:020000040000fa
:040244004e03000065
:020000040000fa
:040248004e03000061
:020000040000fa
:04024c004e0300005d
:020000040000fa
:040250004e03000059
:020000040000fa
:040254004e03000055
:020000040000fa
:040258004e03000051
:020000040000fa
:04025c004e0300004d
:020000040000fa
:040260004e03000049
:020000040000fa
:040264004e03000045
:020000040000fa
:040268004e03000041
:020000040000fa
:04026c004e0300003d
:020000040000fa
:040270004e03000039
:020000040000fa
:040274004e03000035
:020000040000fa
:040278004e03000031
:020000040000fa
:04027c004e0300002d
:020000040000fa
:040280004e03000029
:020000040000fa
:100400000f0021000eff2c000e01880000000000ec
:10041000000020000000e000020032000001200087
:1004200020028800140007009e0007000000e00082
:1004300003003a0000002000010020000200370005
:100440000000200001002000810f70000100320038
:100450000f000700000020000000e0000200320052
:1004600000000200000000006e0502000000000015
:100470000040da000000fe00200020000000e00044
:1004800002003200100020009001880000000600e9
:10049000a1028800800478000000eb001f003700f4
:1004a000e284440054a0b4009905ba00e2844400f8
:1004b00054a0b4009906ba00e284440054a0b400e9
:1004c0000006eb00476fde00fd07b200ae018800ba
:1004d000636ce10003003a000ad801000000eb0061
:1004e0000e003700606ce10008003a00004deb00a0
:1004f0000a05e800020039003420ec000af0a000f0
:100500008b05e900f9ff3e00040037006168e10057
:10051000010032000086eb000b00070019c7ba008b
:100520000e04e0001905ba0003003a000a00e000da
:10053000dbff3a0000000600fe07b200ae028800b2
:100540008a047800f5ff37000cd0a300e20f4d00bd
:100550001c00390089027800354dba000a05e80010
:10056000020039003420ec000af0a0008b05e900fd
:100570000f003200254dba000a05e80002003900dc
:100580003420ec000af0a0008b05e90008003200de
:100590000c00e0000600320015cdba000a05e800a4
:1005a000020039003420ec000af0a0008b05e900bd
:1005b0008984e80054a0b4000b00e000e2ff3a0098
:1005c000000006009902ba00055d78008b05e9007d
:1005d000f7ff3200c82ade00055d78008b05e900d0
:1005e000f3ff32000c00e000f1ff320019ddba0029
:1005f000eeff3700809fbe000000fa000108a9004e
:1006000021718000004020000080600000f0a70001
:100610000000ea000000e9004f00de000040780022
:100620000080fb00610060004a00dd002171800055
:1006300001a0a10001007000207188000080fa0074
:100640004f00be0000400600809fbe000000fa0080
:100650000068a90021738000000420000080600071
:1006600000f0a7000000ea000000e9004f00de00f3
:10067000004078000080fb00610060004600dd0063
:10068000217380000160a1000100700020738800c8
:100690000080fa004f00be00004006000040da0073
:1006a0000000fe0000000500839f68000100e000dc
:1006b00002003d0060001000e08018000300e00030
:1006c00002003d0060011100e081190008000700f0
:1006d0004f00e00002003b0060001000e0801800c6
:1006e000000006004f89de0082017800100037000c
:1006f0006022b800060220000000d0008180d200f5
:100700000482d2008582d2000000a00002025200c2
:1007100083825a00030031000202420083824a00b1
:100720000000a1000603e900f3ff3a000000060004
:10073000881f7800030478000300e00007003d00f4
:1007400060001000e080180060011900e0811900cd
:1007500002003b0001f02d000300370004000700f9
:1007600008f0a70001f0a0004f0478000000060088
:10077000889fbe008a9fbe00008270000402710044
:1007800004827100260032000004be000200be0098
:100790006011b8006b092000950220000182cf0093
:1007a0000a0039000541b1000082cf00070039007e
:1007b0000541b1000982cf00040039000541b100b4
:1007c0000882cf00010039000541b1000542520006
:1007d000120032000a003b00828171006101640056
:1007e0008100d1000080d3008984d3000884d30025
:1007f0008b05e8000442e800f7ff3a0007003700e5
:100800000804440089844c000000480081804800ae
:100810008b05e9000442e900f9ff3a0003000700f4
:100820004f05be004f04be000000060081002000fe
:10083000618055000b003d000b00200061fe2f0081
:100840000100e1001d00340082817100610164003b
:100850008904d1000884d3000000e800faff3a00c0
:10086000710020006100640003007000020060005d
:100870000900320061044400e0844c000988a500ae
:10088000050032008b05e8006808e10002003a002c
:100890008904d1000884d300f20f20000258e1003f
:1008a00005003d00c75ddd00f907b20089807500d5
:1008b00008007800000006000bf827008b00780085
:0408c000000005002f
:020000040000fa
:1008c4000400fa0013e1a90011e1a9001061a800d5
:1008d4001021a90081088000f0fc2f000080600036
:1008e400800888000a21ef000621ef00404c200018
:1008f4007008880000402b00600888008008800091
:100904004400de00634060000081fb008001eb00d6
:10091400700880008000eb00c002dd0004002000ad
:10092400600880008000eb000400400085804800df
:10093400809ab900828bb9008602780005024200d1
:100944000010b80001024200840078000001be00db
:1009540000a025002126200052ff070060ff0700a9
:10096400008fbe002142800080ff2f0000806000c5
:100974000000a000204288000108a9002108a80066
:1009840011e1a8000080fa00000006000400fa004b
:1009940005e1a90021088000000320000100700087
:1009a400200888000421a90000c82000100888003d
:1009b400200880004400de00634060008080fb006b
:1009c400100880008088b9008000eb000001be00a0
:1009d40000a025002126200032ff070040ff070069
:1009e400008fbe000068a9002068a80005e1a800e7
:1009f4000080fa00000006000000fa00f003200066
:100a0400303a8800213a8000f0f32f000080600023
:100a1400203a8800213a800000fe2f000080600008
:100a24000000a000203a8800120020008007200067
:100a3400a10920003374200080497800814978009e
:100a440082497800103a8000000178000200a0007a
:100a54006004200071052000237420008049780080
:100a6400814978008249780000000000113a800032
:100a7400000027008080600000002100808f50006b
:100a8400faff3a0000000000113a80000002200042
:100a9400008060000000e000fbff32000080fa00ec
:100aa400000006000000fa000e2eef001e2eef00dc
:100ab4002e2eef003e2eef004e2eef005e2eef00a6
:100ac4006e2eef00214ea90060cea90060eea900b1
:100ad4000080fa00000006000000fa00c6ff0700cc
:100ae400f0ff070076ff0700a8ff070064cea80008
:0c0af40064eea800254ea800ffff3700ac
:020000040000fa
:02000004000af0
:04afe000cfff00009f
:020000040000fa
:02000004000af0
:04afe400ffff00006b
:020000040000fa
:02000004000af0
:04afe8007fff0000e7
:020000040000fa
:02000004000af0
:04afec005fff000003
:020000040000fa
:02000004000af0
:04aff00038ff000026
:020000040000fa
:02000004000af0
:04aff400ffff00005b
:00000001FF
