:020000040000fa
:080000000002040000000000f2
:020000040000fa
:040008007a03000077
:020000040000fa
:04000c007a03000073
:020000040000fa
:040010007a0300006f
:020000040000fa
:040014007a0300006b
:020000040000fa
:040018007a03000067
:020000040000fa
:04001c007a03000063
:020000040000fa
:040020007a0300005f
:020000040000fa
:040024007a0300005b
:020000040000fa
:040028007a03000057
:020000040000fa
:04002c007a03000053
:020000040000fa
:040030007a0300004f
:020000040000fa
:0400340002030000c3
:020000040000fa
:040038007a03000047
:020000040000fa
:04003c007a03000043
:020000040000fa
:040040007a0300003f
:020000040000fa
:040044007a0300003b
:020000040000fa
:04004800fa020000b8
:020000040000fa
:04004c007a03000033
:020000040000fa
:040050007a0300002f
:020000040000fa
:040054007a0300002b
:020000040000fa
:040058007a03000027
:020000040000fa
:04005c004c03000051
:020000040000fa
:040060007a0300001f
:020000040000fa
:040064007a0300001b
:020000040000fa
:040068007a03000017
:020000040000fa
:04006c007a03000013
:020000040000fa
:040070007a0300000f
:020000040000fa
:040074007a0300000b
:020000040000fa
:040078007a03000007
:020000040000fa
:04007c007a03000003
:020000040000fa
:040080007a030000ff
:020000040000fa
:040084007a030000fb
:020000040000fa
:040088007a030000f7
:020000040000fa
:04008c007a030000f3
:020000040000fa
:040090007a030000ef
:020000040000fa
:040094002203000043
:020000040000fa
:040098007a030000e7
:020000040000fa
:04009c007a030000e3
:020000040000fa
:0400a0007a030000df
:020000040000fa
:0400a4007a030000db
:020000040000fa
:0400a8007a030000d7
:020000040000fa
:0400ac007a030000d3
:020000040000fa
:0400b0007a030000cf
:020000040000fa
:0400b4007a030000cb
:020000040000fa
:0400b8007a030000c7
:020000040000fa
:0400bc007a030000c3
:020000040000fa
:0400c0007a030000bf
:020000040000fa
:0400c4007a030000bb
:020000040000fa
:0400c8007a030000b7
:020000040000fa
:0400cc007a030000b3
:020000040000fa
:0400d0007a030000af
:020000040000fa
:0400d4007a030000ab
:020000040000fa
:0400d8007a030000a7
:020000040000fa
:0400dc007a030000a3
:020000040000fa
:0400e0007a0300009f
:020000040000fa
:0400e4007a0300009b
:020000040000fa
:0400e8007a03000097
:020000040000fa
:0400ec007a03000093
:020000040000fa
:0400f0007a0300008f
:020000040000fa
:0400f4007a0300008b
:020000040000fa
:0400f8007a03000087
:020000040000fa
:0400fc007a03000083
:020000040000fa
:040100007a0300007e
:020000040000fa
:040104007a0300007a
:020000040000fa
:040108007a03000076
:020000040000fa
:04010c007a03000072
:020000040000fa
:040110007a0300006e
:020000040000fa
:040114007a0300006a
:020000040000fa
:040118007a03000066
:020000040000fa
:04011c007a03000062
:020000040000fa
:040120007a0300005e
:020000040000fa
:040124007a0300005a
:020000040000fa
:040128007a03000056
:020000040000fa
:04012c007a03000052
:020000040000fa
:040130007a0300004e
:020000040000fa
:040134007a0300004a
:020000040000fa
:040138007a03000046
:020000040000fa
:04013c007a03000042
:020000040000fa
:040140007a0300003e
:020000040000fa
:040144007a0300003a
:020000040000fa
:040148007a03000036
:020000040000fa
:04014c007a03000032
:020000040000fa
:040150007a0300002e
:020000040000fa
:040154007a0300002a
:020000040000fa
:040158007a03000026
:020000040000fa
:04015c007a03000022
:020000040000fa
:040160007a0300001e
:020000040000fa
:040164007a0300001a
:020000040000fa
:040168007a03000016
:020000040000fa
:04016c007a03000012
:020000040000fa
:040170007a0300000e
:020000040000fa
:040174007a0300000a
:020000040000fa
:040178007a03000006
:020000040000fa
:04017c007a03000002
:020000040000fa
:040180007a030000fe
:020000040000fa
:040184007a030000fa
:020000040000fa
:040188007a030000f6
:020000040000fa
:04018c007a030000f2
:020000040000fa
:040190007a030000ee
:020000040000fa
:040194007a030000ea
:020000040000fa
:040198007a030000e6
:020000040000fa
:04019c007a030000e2
:020000040000fa
:0401a0007a030000de
:020000040000fa
:0401a4007a030000da
:020000040000fa
:0401a8007a030000d6
:020000040000fa
:0401ac007a030000d2
:020000040000fa
:0401b0007a030000ce
:020000040000fa
:0401b4007a030000ca
:020000040000fa
:0401b8007a030000c6
:020000040000fa
:0401bc007a030000c2
:020000040000fa
:0401c0007a030000be
:020000040000fa
:0401c4007a030000ba
:020000040000fa
:0401c8007a030000b6
:020000040000fa
:0401cc007a030000b2
:020000040000fa
:0401d0007a030000ae
:020000040000fa
:0401d4007a030000aa
:020000040000fa
:0401d8007a030000a6
:020000040000fa
:0401dc007a030000a2
:020000040000fa
:0401e0007a0300009e
:020000040000fa
:0401e4007a0300009a
:020000040000fa
:0401e8007a03000096
:020000040000fa
:0401ec007a03000092
:020000040000fa
:0401f0007a0300008e
:020000040000fa
:0401f4007a0300008a
:020000040000fa
:0401f8007a03000086
:020000040000fa
:0401fc007a03000082
:020000040000fa
:040200007a0300007d
:020000040000fa
:040204007a03000079
:020000040000fa
:040208007a03000075
:020000040000fa
:04020c007a03000071
:020000040000fa
:040210007a0300006d
:020000040000fa
:040214007a03000069
:020000040000fa
:040218007a03000065
:020000040000fa
:04021c007a03000061
:020000040000fa
:040220007a0300005d
:020000040000fa
:040224007a03000059
:020000040000fa
:040228007a03000055
:020000040000fa
:04022c007a03000051
:020000040000fa
:040230007a0300004d
:020000040000fa
:040234007a03000049
:020000040000fa
:040238007a03000045
:020000040000fa
:04023c007a03000041
:020000040000fa
:040240007a0300003d
:020000040000fa
:040244007a03000039
:020000040000fa
:040248007a03000035
:020000040000fa
:04024c007a03000031
:020000040000fa
:040250007a0300002d
:020000040000fa
:040254007a03000029
:020000040000fa
:040258007a03000025
:020000040000fa
:04025c007a03000021
:020000040000fa
:040260007a0300001d
:020000040000fa
:040264007a03000019
:020000040000fa
:040268007a03000015
:020000040000fa
:04026c007a03000011
:020000040000fa
:040270007a0300000d
:020000040000fa
:040274007a03000009
:020000040000fa
:040278007a03000005
:020000040000fa
:04027c007a03000001
:020000040000fa
:040280007a030000fd
:020000040000fa
:10040000cf0321000eff2c000e0188000000000029
:10041000000020000000e000020032000001200087
:100420002002880014000700b40007000000e0006c
:1004300003003a00a04a210001002000020037001a
:100440000000200001002000810f70000100320038
:100450000f000700000020000000e0000200320052
:1004600000000200000000004a0702000000000037
:100470000040da000000fe00200020000000e00044
:1004800002003200100020009001880000000600e9
:10049000a1028800800478000000eb001f003700f4
:1004a000e284440054a0b4009905ba00e2844400f8
:1004b00054a0b4009906ba00e284440054a0b400e9
:1004c0000006eb00476fde00fd07b200ae018800ba
:1004d000636ce10003003a000ad801000000eb0061
:1004e0000e003700606ce10008003a00004deb00a0
:1004f0000a05e800020039003420ec000af0a000f0
:100500008b05e900f9ff3e00040037006168e10057
:10051000010032000086eb000b00070019c7ba008b
:100520000e04e0001905ba0003003a000a00e000da
:10053000dbff3a0000000600fe07b200ae028800b2
:100540008a047800f5ff37000cd0a300e20f4d00bd
:100550001c00390089027800354dba000a05e80010
:10056000020039003420ec000af0a0008b05e900fd
:100570000f003200254dba000a05e80002003900dc
:100580003420ec000af0a0008b05e90008003200de
:100590000c00e0000600320015cdba000a05e800a4
:1005a000020039003420ec000af0a0008b05e900bd
:1005b0008984e80054a0b4000b00e000e2ff3a0098
:1005c000000006009902ba00055d78008b05e9007d
:1005d000f7ff3200c82ade00055d78008b05e900d0
:1005e000f3ff32000c00e000f1ff320019ddba0029
:1005f000eeff37000000fa000108a9000080fa00b1
:10060000004006003600f800809fbe00829fbe00ba
:10061000849fbe00869fbe000000fa000068a9000b
:10062000140707007f0807000080fa004f03be0090
:100630004f02be004f01be004f00be003600f90061
:10064000004006003600f800809fbe00829fbe007a
:10065000849fbe00869fbe000000fa000368a900c8
:10066000608080007180800061004000e080480070
:100670006080880071808800c00207000080fa0056
:100680004f03be004f02be004f01be004f00be0030
:100690003600f90000400600809fbe000000fa000e
:1006a00001a8a9000118800020002100010878009d
:1006b00011188000200021001100980021188000ee
:1006c0002000210021009800311880002000210026
:1006d000310098004118800020002100410098005e
:1006e00010c0b3000af0b7000080fa004f00be004f
:1006f000004006000040da000000fe000000050097
:1007000003f0a200889fbe008a9fbe008c1f780065
:100710002a010700310133006450e1004f0032002c
:100720006420e1005200320003826c0007003b00ad
:100730000905d0000306d000820f54000c065d00ae
:1007400002003900020032008901780003067800b7
:100750008582550004003d000003fd008103fd007b
:100760008502ea008b854200840f720002003b0084
:1007700060001000e08018006011b8000005eb0078
:100780007a28e1000a00390006007800c75ddd0024
:10079000f707b200878075002d0037008281710055
:1007a0000a017800610560008180d1000080d300db
:1007b0008502e900f9ff3b000604400087844800f9
:1007c00002003b0060041400e0841c000988a300c0
:1007d000070032008a81710082817100610164002a
:1007e0008904d1000884d3008b05e8001700370086
:1007f0000978a30013003a000b00e0001300340056
:100800008b05e9000804440089844c000a44740004
:100810000978a3000d003a000b00e0000700340047
:100820008b05e9000804440089844c0001003a006b
:100830000b0020000978a300f7ff32000001eb0055
:1008400002003700828171000a017800a0000700d1
:100850000cf0a70001f0a000e90037006420e100df
:1008600002003a00838f6c00e90033000801be00eb
:100870000200be00e2003700889fbe008a9fbe00d3
:100880008c1f7800cd000700d400330003866c0075
:100890006450e1002e0032006420e1003300320099
:1008a0006150e1002f0032006120e1003100320090
:1008b00085855500eb07b0000900200008042000e2
:1008c000050037000804440089844c000a00310008
:1008d0000603430087834b000001530081815b00c6
:1008e000f8ff33000203be000800a0000804440023
:1008f00089844c00f6ff3900c639dd00830173009e
:1009000001003200130020008904d1000884d300c4
:100910000998a300050032000800a7000300a0000a
:100920008904d1000884d3008b05e8008904d10034
:100930000884d3000001eb000281d20064000700ac
:1009400001f0a1000cf0a70001f0a000ac003700fe
:100950006420e100ae0032000801be000200be00cb
:10096000f7ff37006120e100a90032006000b80005
:10097000f3ff37000000200001f82700f0ff3700e8
:10098000839f68000100e00002003d00600010004d
:10099000e08018000300e00002003d00600111004b
:1009a000e0811900d10007004f00e00002003b0089
:1009b00060001000e0801800000006001400200015
:1009c000da003700f4ff2f00d80037000001be0026
:1009d000650007000470a70003f0a1006509b100dd
:1009e000160032000d0035006828e10006003500d1
:1009f000f0ff2f00f1ff27000300e00013003b0091
:100a0000010028000000050000004000818048002f
:100a10008502e900fcff3a0008003700f88f420029
:100a200002003c008000eb00000005008100d100c6
:100a30000080d3008502e800fcff3a000300e000dc
:100a400002003b0060001000e0801800000006007b
:100a50000001be00440007000470a70003f0a100dd
:100a600003f8a30013003a006509b100100032003a
:100a7000090035006928e100020035000100280066
:100a80000000050000004000818048008502e90068
:100a9000fcff3a0000000600f88f42000500350018
:100aa0008100d1000080d3008502e800fcff3a00fd
:100ab000000006008000eb00000005004f89de000a
:100ac00082017800b40037006011b800c20037001e
:100ad00081002000618055000b003d000b002000cc
:100ae00061fe2f000100e1001d00340082817100d1
:100af000610164008904d1000884d3000000e8008b
:100b0000faff3a00710020006100640003007000e9
:100b1000020060000900320061044400e0844c00df
:100b20000988a500050032008b05e8006808e1008f
:100b300002003a008904d1000884d300f20f20009b
:100b40000258e10005003d00c75ddd00f907b20075
:100b50008980750008007800000006000bf8270067
:100b60008b00780000000500c70ade00f107b20024
:100b7000f50fb20008003200e1cf4200020032005f
:100b80000170a00024000500810f700001003200f8
:100b90000408050044000500810f700002003a00bf
:100ba000140005008502e9000000400081c04800f3
:100bb000fcff3b000170a000240005000004be0003
:100bc000e9ff07000003be000405be000200be00ee
:100bd000e5ff0700844f7500000006000200be001c
:100be0006450e100050036006420e1000200360098
:100bf0000968a30001003a000800be000160a000df
:100c00004f0678004f05be004f04be0000000600ee
:100c1000f0ff2f00f1ff2700f9ff3700889fbe008b
:100c20008a9fbe008c1f7800e4ff0700ebff3300b3
:100c300003866c006450e100240032006420e1006f
:100c4000270032006150e100220032006120e10003
:100c5000210032008b854200eb07b1000134b8005f
:100c6000003ab8000804420089844a00013ab800fa
:100c70000030b8008880400009014a0004003300b9
:100c80000000400081804800020149008b05e90016
:100c9000c909dd008301700001003200130020004b
:100ca000c814de004814dd004709de001200b2005f
:100cb000c808de000884700085ff070001f0a1006d
:100cc0000cf0a70001f0a000cdff37006120e1008b
:100cd000cfff32000801be000200be00f7ff370060
:100ce0006150e100fcff3a00c9ff37006022b80004
:100cf000060220000000d0008180d2000482d200d1
:100d00008582d2000000a0000202520083825a00b5
:100d1000030031000202420083824a000000a10069
:100d20000603e900f3ff3a0000000600889fbe00ba
:100d30008a9fbe00841f7800a0ff07004f00780044
:100d400011003300f0ff2f00838f6c0006003b0082
:100d5000040565000a00a7000800370009f0a60096
:100d60001000200008003700820f5400838f5c00c1
:100d7000030039001000200001003e0000002000a8
:100d800009f0a7000000ea004f05be004f04be00b6
:100d90000000e00000000600881f780003047800cf
:100da0000300e00007003d0060001000e080180034
:100db00060011900e081190002003b0001f02d00e4
:100dc000030037000400070008f0a70001f0a000ae
:100dd0004f04780000000600889fbe008a9fbe0076
:100de000008270000402710004827100260032004b
:100df0000004be000200be006011b8006b092000b4
:100e0000950220000182cf000a0039000541b1009f
:100e10000082cf00070039000541b1000982cf00f0
:100e2000040039000541b1000882cf0001003900fb
:100e30000541b10005425200120032000a003b0099
:100e400082817100610164008100d1000080d300c3
:100e50008984d3000884d3008b05e8000442e800ad
:100e6000f7ff3a00070037000804440089844c006b
:100e700000004800818048008b05e9000442e90039
:100e8000f9ff3a0012ff07004f05be004f04be00f5
:040e90000000060058
:020000040000fa
:100e94000600fa00881f7800710607009b06070009
:100ea40092030700c4030700c104070022060700d9
:100eb400400407005e060700000f78006006070084
:100ec400e14f500081003a00610607001e80e800ef
:100ed400100078008000eb00fafe07003233230094
:100ee400330524004cff07000200200003582400af
:100ef40060fe0700d2cc2c00c304240046ff070088
:100f040010079800210798001e019000ae01900080
:100f1400000020008120240056fe0700020020006b
:100f2400030a2400f5fd07006081880071818800b0
:100f34009e00780064804000100078008000eb0080
:100f4400e0fe0700323323003305240032ff07009c
:100f5400020020000358240046fe0700d2cc2c00d7
:100f6400c30424002cff07001007980021079800f1
:100f74001e019000ae01900000002000812024009a
:100f84003cfe070002002000030a2400dbfd0700ea
:100f940080818800918188009e00780068804000ec
:100fa400100078008000eb00c6fe070032332300f7
:100fb4003305240018ff0700020020000358240012
:100fc4002cfe0700d2cc2c00c304240012ff07001f
:100fd40010079800210798001e019000ae019000b0
:100fe400000020008120240022fe070002002000cf
:100ff400030a2400c1fd0700a0818800b181880094
:101004009e00780066804000100078008000eb00ad
:10101400acfe07003233230033052400fefe070034
:10102400020020000358240012fe0700d2cc2c003a
:10103400c3042400f8fe0700100798002107980055
:101044001e019000ae0190000000200081202400c9
:1010540008fe070002002000030a2400a7fd070081
:10106400c0818800d18188001e00780010007800bb
:101074008000eb0093fe0700323323003305240085
:10108400e5fe07000200200003582400f9fd0700d4
:10109400d2cc2c00c3042400dffe07001007980004
:1010a400210798001e019000ae019000000020006e
:1010b40081202400effd070002002000030a240021
:1010c4008efd0700408188005181880040818000a6
:1010d4005181800018c0b30002002000031a2400cc
:1010e40035fe07000000e000010035000044eb007d
:1010f4000804e00002003200254ea8000100370079
:10110400254ea900808180009181800018c0b30021
:1011140002002000031a240027fe07000000e0005c
:10112400010035000044eb000804e0000200320036
:1011340064eea8000100370064eea900c0818000bd
:10114400d181800018c0b30002002000031a2400db
:1011540019fe07000000e000010035000044eb0028
:101164000804e0000200320064cea80051ff3700fa
:1011740064cea9004fff37000000fa0012d0bf0070
:101184000080fb00cf80de0052012000030020001d
:10119400820f5000838f5800a7003e000006010014
:1011a400150037001e0037002700370031003700d4
:1011b400320037003c0037003d003700470037005d
:1011c4004800370052003700530037005d003700f5
:1011d4009900370098003700830037008d003700ee
:1011e4005a00370064003700650037006f0037008d
:1011f400700037007a0037000c30ef000e30ef003b
:101204000041eb006000b8000504070012c0b30001
:101214006000b8000204070010c0b30012f0b70069
:101224006280800073808000803e200001002000e6
:10123400800f5100818f59008200360020c0b30016
:1012440012f0b700820037000041eb0000002000dc
:10125400811c2c00f203070012c0b3000000200020
:10126400811c2400ee03070030c0b30012f0b70065
:101274007700370078000700750037000041eb0065
:1012840000002000011a2c00e503070012c0b3007f
:1012940000002000010a2c00e103070050c0b30045
:1012a40012f0b7006a0037006b00070068003700cf
:1012b4000041eb0000002000010a2400d8030700cd
:1012c40012c0b30000002000011a2400d403070058
:1012d40070c0b30012f0b7005d0037005e00070075
:1012e4005b0037000041eb000000200001172c00d8
:1012f400cb03070012c0b3000000200001172c002c
:10130400c703070090c0b30012f0b70050003700c5
:10131400510007004e0037000041eb0000002000a0
:1013240001172400be03070012c0b3000000200010
:1013340001172400ba030700b0c0b30012f0b700cd
:101344004300370044000700410037000041eb0030
:101354000000200001172c00b103070012c0b300e5
:101364000000200001172400ad03070010c1b300e2
:1013740012f0b7003600370037000700340037009a
:101384000041eb000000200001122c00a403070020
:1013940012c0b30000002000011a2400a0030700bb
:1013a40030c1b30012f0b700290037002a0007004b
:1013b400270037000041eb0000002000011a2c0038
:1013c4009703070012c0b30000002000011224009c
:1013d4009303070050c1b30012f0b7001c0037009c
:1013e4001d0007001a0037000041eb000000200038
:1013f400011224008a03070012c0b3000000200079
:1014040001122c0086030700f0c0b30012f0b700ed
:101414000f0037006280800073808000803e2000cf
:1014240001002000800f5100818f59000700360011
:1014340009000700060037001270ef0000000000ea
:101444000300370000000000010037000000000026
:101454000080fa00000006000200fa00881f7800ed
:101464000040eb00004f78006081800071818000b3
:1014740018c0b30002002000031a24004efd070028
:101484000000e000010035000044eb000804e00027
:101494002f003200808180009181800018c0b30049
:1014a40002002000031a240043fd07000000e000ae
:1014b400010035000044eb000804e0002400320081
:1014c400a0818000b181800018c0b3000200200018
:1014d400031a240038fd07000000e0000100350075
:1014e4000044eb000804e000190032004081800051
:1014f4005181800018c0b30002002000031a2400a8
:101504002dfd07000000e000010035000044eb0061
:101514000804e0000e003200c0818000d181800008
:1015240018c0b30002002000031a240022fd0700a3
:101534000000e000010035000044eb000804e00076
:101544000300320080c0b300004f780088013700e8
:10155400608180007181800018c0b3000200200007
:10156400031a240014fd07000000e0000100350008
:101574000044eb000804e000190032008081800080
:101584009181800018c0b30002002000031a2400d7
:1015940009fd07000000e000010035000044eb00f5
:1015a4000804e0000e003200a0818000b1818000b8
:1015b40018c0b30002002000031a2400fefc070038
:1015c4000000e000010035000044eb000804e000e6
:1015d40003003200c0c0b300004f7800640137003c
:1015e400608180007181800018c0b3000200200077
:1015f400031a2400f2fc07000000e00001003c0094
:101604000044eb000804e0002f00320080818000d9
:101614009181800018c0b30002002000031f240041
:10162400e7fc07000000e00001003c000044eb0080
:101634000804e00024003200a0818000b181800011
:1016440018c0b30002002000031a2400dcfc0700c9
:101654000000e00001003c000044eb000804e0004e
:1016640019003200408180005181800018c0b3000d
:101674000200200003122400cffc07000000e00059
:10168400010035000044eb000804e0000e003200c5
:10169400c0818000d181800018c0b3000200200006
:1016a40003122400c4fc07000000e0000100350020
:1016b4000044eb000804e00003003200d0c0b30093
:1016c400004f78002a01370060818000718180001a
:1016d40018c0b3000200200003122400b6fc070067
:1016e4000000e000010035000044eb000804e000c5
:1016f40019003200808180009181800018c0b300fd
:1017040002002000031f2400adfc07000000e000dd
:1017140001003c000044eb000804e0000e0032002d
:10172400a0818000b181800018c0b30002002000b5
:1017340003122400a0fc07000000e00001003500b3
:101744000044eb000804e0000300320040c0b30092
:10175400004f7800060137006081800071818000ad
:1017640018c0b30002002000031f240092fc0700ed
:101774000000e000010035000044eb000804e00034
:1017840019003200808180009181800018c0b3006c
:1017940002002000031f240089fc07000000e00071
:1017a40001003c000044eb000804e0000e0032009d
:1017b400a0818000b181800018c0b3000200200025
:1017c400031f24007efc07000000e00001003c0031
:1017d4000044eb000804e0000300320020c0b30022
:1017e400004f7800e2003700608180007181800042
:1017f40018c0b30002002000031f240070fc07007f
:101804000000e00001003c000044eb000804e0009c
:1018140019003200808180009181800018c0b300db
:1018240002002000031f240065fc07000000e00004
:1018340001003c000044eb000804e0000e0032000c
:10184400a0818000b181800018c0b3000200200094
:10185400031f240058fc07000000e00001003500cd
:101864000044eb000804e0000300320010c0b300a1
:10187400004f7800be003700808180009181800095
:1018840018c0b30002002000031a24004afc070019
:101894000000e000010035000044eb000804e00013
:1018a4000300320060c0b300004f7800b00037007e
:1018b400808180009181800018c0b3000200200064
:1018c400831c24003cfc07000000e00001003500fc
:1018d4000044eb000804e0000e0032008081800028
:1018e4009181800018c0b30002002000031a240074
:1018f40033fc07000000e00001003c000044eb0062
:101904000804e0000300320070c0b300004f780008
:1019140097003700608180007181800018c0b30097
:1019240002002000031f240025fc07000000e00043
:1019340001003c000044eb000804e0002f003200ea
:10194400808180009181800018c0b30002002000d3
:10195400031f24001afc07000000e00001003c0003
:101964000044eb000804e00024003200a081800061
:10197400b181800018c0b30002002000031f2400be
:101984000ffc07000000e00001003c000044eb00f5
:101994000804e00019003200408180005181800079
:1019a40018c0b30002002000031a240002fc070040
:1019b4000000e000010035000044eb000804e000f2
:1019c4000e003200c0818000d181800018c0b300b5
:1019d40002002000031f2400f9fb07000000e000c0
:1019e40001003c000044eb000804e0000300320066
:1019f400e0c0b300004f78005d00370060818000d4
:101a04007181800018c0b30002002000031f24006d
:101a1400ebfb07000000e00001003c000044eb0089
:101a24000804e0002f003200808180009181800052
:101a340018c0b30002002000031f2400e0fb0700cd
:101a44000000e00001003c000044eb000804e0005a
:101a540024003200a0818000b181800018c0b3004e
:101a640002002000031f2400d5fb07000000e00053
:101a740001003c000044eb000804e00019003200bf
:101a8400408180005181800018c0b3000200200012
:101a9400031f2400cafb07000000e00001003c0013
:101aa4000044eb000804e0000e003200c081800016
:101ab400d181800018c0b30002002000031a240062
:101ac400bdfb07000000e000010035000044eb000e
:101ad4000804e00003003200f0c0b300004f7800b7
:101ae40023003700608180007181800018c0b3003a
:101af40002002000031f2400b1fb07000000e000e7
:101b040001003c000044eb000804e000180032002f
:101b1400808180009181800018c0b3000200200001
:101b2400031f2400a6fb07000000e00001003c00a6
:101b34000044eb000804e0000d003200a0818000a6
:101b4400b181800018c0b30002002000031f2400ec
:101b54009bfb07000000e00001003c000044eb0098
:101b64000804e000020032000040eb00004f78005f
:101b74001e407800e84f500003003a00e0c0b30074
:101b840013f0b7004d0037001e407800ea4f5000b4
:101b940003003a0080c0b30013f0b70047003700d9
:101ba4001e407800eb4f500003003a0080c0b300a1
:101bb40013f0b700410037001e407800ec4f50008e
:101bc40003003a0080c0b30013f0b7003b003700b5
:101bd4001e407800ed4f500003003a0000c1b300ee
:101be40013f0b700350037001e407800e44f500072
:101bf40003003a0080c0b30013f0b7002f00370091
:101c04001e407800e34f500003003a0000c1b300c7
:101c140013f0b700290037001e407800e24f50004f
:101c240003003a0040c0b30013f0b70023003700ac
:101c34001e407800e14f500003003a0060c0b3003a
:101c440013f0b7001d0037001e407800e64f500027
:101c540003003a0080c0b30013f0b7001700370048
:101c64001e407800e74f500003003a0000c1b30063
:101c740013f0b700110037001e407800ee4f5000fb
:101c840003003a0040c1b30013f0b7000b00370063
:101c94001e407800ef4f500003003a0020c1b3000b
:101ca40013f0b700050037001e4078000004e00080
:101cb40002003a0020c0b30013f0b70013d0bf00f5
:101cc4008080fb0012d0bf000080fb000000e90010
:101cd400808f50000200320013d0bf0012f0b70012
:101ce4004f0478000080fa00000006000400fa00a7
:101cf40013e1a90011e1a9001061a8001021a900b5
:101d040081088000f0fc2f000080600080088800bb
:101d14000a21ef000621ef00404c200070088800e3
:101d240000402b0060088800800880004400de002a
:101d3400634060000081fb008001eb0070088000bc
:101d44008000eb00c002dd00040020006008800079
:101d54008000eb000400400085804800809ab900b0
:101d6400828bb90086027800050242000010b80098
:101d740001024200840078000001be0000a025009a
:101d840021262000fdfa07004bfb0700008fbe0050
:101d94002142800080ff2f00008060000000a0002e
:101da400204288000108a9002108a80011e1a80028
:101db4000080fa00000006000000fa0005e1a90016
:101dc4000421a90000002000812c24000500070044
:101dd4000068a9002068a80005e1a8000080fa00b6
:101de400000006000400fa00881f7800008fbe007f
:101df40021088000f0fc2f0000806000200888008b
:101e04001e0178009e0190000068290081c1240011
:101e140098fa070018c0b30002f02f00f3772400eb
:101e2400e7fa07000000e00001003c000044eb007a
:101e34000804e0005400320021088000f0fc2f0068
:101e4400008060000040a000200888001e01780087
:101e54009e0190000068290081c1240085fa0700d2
:101e6400020020000310240082fa070018c0b30007
:101e740002f02f00f3772400d1fa07000000e000fd
:101e840001003c000044eb000804e0003200320092
:101e940021088000f0fc2f00008060000050a000aa
:101ea400200888001e0178009e0190000068290027
:101eb40081c124006ffa07000200200003282400d7
:101ec4006cfa070018c0b30002f02f00f377240067
:101ed400bbfa07000000e00001003c000044eb00f6
:101ee4000804e000100032002108800000032000f4
:101ef40001007000200888001e0178009e019000f7
:101f04000068290081c124005afa07000200200059
:101f14000338240057fa0700abfa070000007800e2
:101f240010088800200037001e0178009e019000f0
:101f34000068290081c124004efa07000200200035
:101f4400032824004bfa07009ffa070000007800da
:101f540010088800140037001e0178009e019000cc
:101f64000068290081c1240042fa07000200200011
:101f7400031024003ffa070093fa070000007800da
:101f840010088800080037001e0178009e019000a8
:101f94000068290081c1240036fa07008afa070084
:101fa40000007800100888004f0478000080fa00d0
:101fb400000006000000fa0000002000a1472400f1
:101fc40088ff07001fe1a9001e21a9000368a900da
:101fd4002368a8001fe1a8000080fa0000000600a2
:101fe4000400fa00881f7800008fbe00f10880000a
:101ff400f0fc2f0000806000f00888001e017800cb
:102004009e0190000068290081c1240019fa07008c
:1020140018c0b30002f02f00f377240068fa070019
:102024000000e00001003c000044eb000804e00074
:1020340054003200f1088000f0fc2f0000806000a2
:102044000040a000f00888001e0178009e01900066
:102054000068290081c1240006fa0700020020005c
:102064000310240003fa070018c0b30002f02f0085
:10207400f377240052fa07000000e00001003c005e
:102084000044eb000804e00032003200f108800054
:10209400f0fc2f00008060000050a000f0088800d1
:1020a4001e0178009e0190000068290081c124006f
:1020b400f0f907000200200003282400edf90700ce
:1020c40018c0b30002f02f00f37724003cfa070095
:1020d4000000e00001003c000044eb000804e000c4
:1020e40010003200f108800000032000010070009d
:1020f400f00888001e0178009e0190000068290005
:1021040081c12400dbf90700020020000338240009
:10211400d8f907002cfa070000007800d0088800de
:10212400200037001e0178009e01900000682900fd
:1021340081c12400cff907000200200003282400f5
:10214400ccf9070020fa070000007800d0088800c6
:10215400140037001e0178009e01900000682900d9
:1021640081c12400c3f907000200200003102400e9
:10217400c0f9070014fa070000007800d0088800ae
:10218400080037001e0178009e01900000682900b5
:1021940081c12400b7f907000bfa0700000078009a
:1021a400d00888004f0478000080fa000000060080
:1021b4000000fa001160800080ff2f0000806000a2
:1021c4001060880000fa20002060880023aca8007a
:1021d400238ca80011618000f03f2f000080600074
:1021e40000a0a00010618800300020002061880059
:1021f400c3aca800c38ca80011668000f03f2f0078
:102204000080600000a0a00010668800300020005c
:102214002066880001eca8000080fa000000060097
:102224000600fa00008fbe00424798004e4090001e
:102234000004e00005003a001e0178009e019000b1
:102244000281880013818800070037004e40900007
:10225400e14f500004003a001e0178009e019000f6
:10226400c2808800d38088000080fa000000060045
:102274000000fa00889fbe008a9fbe00248180006f
:1022840035818000008180001181800018c0b30076
:102294000001be000400be00c7f907000000e00012
:1022a400010035000044eb000804e0000f00320098
:1022b40008818000198180002a8180003b81800090
:1022c40014d0bf000080fb00cf80de00faf90700c5
:1022d4000001be000a00be0009f907000801be00a3
:1022e400bc0007002081880031818800248180009f
:1022f40035818000008180001181800018c0b30006
:102304000001be000400be00adf907000000e000bb
:1023140001003c000044eb000804e0000f00320020
:1023240008818000198180002a8180003b8180001f
:1023340014d0bf000080fb00cf80de00def9070070
:102344000001be000a00be00ecf807000801be0050
:102354008800070020818800318188002081800066
:102364003181800018c0b3006011b80094f90700ef
:102374000000e00001003c000044eb000804e00021
:1023840004003200c3cca90024eea800c3eca800ca
:1023940003003700c3eca90024cea800c3cca800d6
:1023a40020818000318180005c0007000200200051
:1023b4000322240018fa0700a4f90700000078009b
:1023c40030668800e4808000f5808000c080800052
:1023d400d180800018c0b3000001be000400be001c
:1023e40075f907000000e000010035000044eb002f
:1023f4000804e0000f003200c8808000d98080000b
:10240400ea808000fb80800014d0bf000080fb00c5
:10241400cf80de00a8f907000001be000a00be005c
:10242400b7f807000801be006a000700e0808800d2
:10243400f1808800e4808000f5808000c080800006
:10244400d180800018c0b3000001be000400be00ab
:102454005bf907000000e00001003c000044eb00d1
:102464000804e0000f003200c8808000d98080009a
:10247400ea808000fb80800014d0bf000080fb0055
:10248400cf80de008cf907000001be000a00be0008
:102494009af807000801be0036000700e0808800b3
:1024a400f1808800e0808000f180800018c0b300d3
:1024b4006011b80042f907000000e00001003c0090
:1024c4000044eb000804e0000400320023cca9001f
:1024d40015eea80023eca8000300370023eca900a4
:1024e40015cea80023cca800e0808000f1808000f5
:1024f4000a0007000200200003222400c6f9070096
:1025040052f9070000007800306188004f05be00d2
:102514004f04be000080fa00000006000400fa0028
:10252400881f7800008fbe0018c0b3006011b80087
:102534001e0078009e00900021f907000000e000d2
:1025440001003d000044eb000804e00003003200f9
:102554001e0078009e009000030037001e007800e3
:102564009e00900001f0a2004f0478000080fa0061
:10257400000006000800fa00881f7800008fbe00e3
:10258400220798003307980018c0b3002e0190006a
:10259400be0190001e0078009e00900008f907001c
:1025a4000000e00001003c000044eb000804e000ef
:1025b400030032001e0078009e00900002003700e5
:1025c4002e009000be0090004f0478000080fa00b6
:1025d400000006000800fa00881f7800008fbe0083
:1025e400220798003307980018c0b3002e0190000a
:1025f400be0190001e0078009e009000eef80700d7
:102604000000e000010035000044eb000804e00095
:10261400030032001e0078009e0090000200370084
:102624002e009000be0090004f0478000080fa0055
:10263400000006000c00fa00881f7800008fbe001e
:10264400220798003307980044079800550798001c
:1026540018c0b3004e019000de0190001e00780007
:102664009e009000d6f807000000e00001003c0046
:102674000044eb000804e000040032004e01900026
:10268400de019000028fbe000e00370018c0b300b8
:102694002e019000be0190001e0078009e00900064
:1026a400c5f807000000e000010035000044eb001d
:1026b4000804e000030032002e019000be019000e7
:1026c400028fbe001e0078009e0090004f04780028
:1026d4000080fa00000006000400fa00008fbe002b
:1026e400b2fd2000930424001e0078009e00900098
:1026f40060f80700020020004333240046f9070075
:102704000080fa00000006000400fa00008fbe00fa
:10271400b2fd2000930424001e0078009e00900067
:102724003df90700020020004333240051f807005c
:102734000080fa00000006000000fa0021e3a9006e
:102744002143a80001198000f0cf2f000080600011
:10275400001988002043a90001198000000e200000
:10276400010070000019880011198000f0ff210099
:1027740000806000101988002343a800111980000c
:10278400f0cf2f000080600010198800111980001c
:1027940030f82f00008060000040a000101988006d
:1027a4002203a9002223a90025e3a900f0c0b30055
:1027b40024e3b70021198000f00f2e008080600010
:1027c40000f0200001007000201988003303a900e4
:1027d4002e0ea8002f6ea8006f2ea8001e2ea80093
:1027e4004feea80030c3a8003163a8002e03a80050
:1027f4003063a80031e3a8004119800000fc2f00d9
:10280400008060004019880028e3a90001a8a900fd
:1028140021a8a80021e3a8000080fa000000060017
:102824000000fa002023a8000080fa00000006003f
:102834000000fa00200021000080fa0000000600d9
:102844000000fa000ad0bf000080fa000000060071
:102854000000fa000a70ef000080fa000000060091
:102864000000fa00f0032000303a8800213a80008a
:10287400f0f32f0000806000203a8800213a8000a5
:1028840000fe2f00008060000000a000203a8800b5
:102894001200200080072000a109200033742000ca
:1028a400804978008149780082497800103a800094
:1028b400000178000200a0006004200071052000df
:1028c4002374200080497800814978008249780087
:1028d40000000000113a80000000270080806000a2
:1028e40000002100808f5000faff3a000000000031
:1028f400113a800000022000008060000000e00027
:10290400fbff32000080fa00000006000000fa001d
:102914000e2eef001e2eef002e2eef003e2eef00a7
:102924004e2eef005e2eef006e2eef00214ea9001a
:1029340060cea90060eea90011cea90011eea90095
:1029440020cea90020eea9000080fa0000000600b5
:020000040000fa
:102954001210000002000000800000000c100000b3
:102964000600000080000000161000002600000091
:10297400800000001410000002000000820000002b
:1029840007000000001000000c00000080000000a0
:04299400000000003f
:020000040000fa
:02000004000af0
:04afe000cfff00009f
:020000040000fa
:02000004000af0
:04afe400ffff00006b
:020000040000fa
:02000004000af0
:04afe8007fff0000e7
:020000040000fa
:02000004000af0
:04afec005fff000003
:020000040000fa
:02000004000af0
:04aff00038ff000026
:020000040000fa
:02000004000af0
:04aff400ffff00005b
:00000001FF
