:020000040000fa
:080000000002040000000000f2
:020000040000fa
:04000800e803000009
:020000040000fa
:04000c00e803000005
:020000040000fa
:04001000e803000001
:020000040000fa
:04001400e8030000fd
:020000040000fa
:04001800e8030000f9
:020000040000fa
:04001c00e8030000f5
:020000040000fa
:04002000e8030000f1
:020000040000fa
:04002400e8030000ed
:020000040000fa
:04002800e8030000e9
:020000040000fa
:04002c00e8030000e5
:020000040000fa
:04003000e8030000e1
:020000040000fa
:0400340002030000c3
:020000040000fa
:04003800e8030000d9
:020000040000fa
:04003c00e8030000d5
:020000040000fa
:04004000e8030000d1
:020000040000fa
:04004400e8030000cd
:020000040000fa
:04004800fa020000b8
:020000040000fa
:04004c00e8030000c5
:020000040000fa
:04005000e8030000c1
:020000040000fa
:04005400a403000001
:020000040000fa
:040058007a03000027
:020000040000fa
:04005c004c03000051
:020000040000fa
:04006000e8030000b1
:020000040000fa
:04006400e8030000ad
:020000040000fa
:04006800e8030000a9
:020000040000fa
:04006c00e8030000a5
:020000040000fa
:04007000e8030000a1
:020000040000fa
:04007400e80300009d
:020000040000fa
:04007800e803000099
:020000040000fa
:04007c00e803000095
:020000040000fa
:04008000e803000091
:020000040000fa
:04008400e80300008d
:020000040000fa
:04008800e803000089
:020000040000fa
:04008c00e803000085
:020000040000fa
:04009000e803000081
:020000040000fa
:040094002203000043
:020000040000fa
:04009800e803000079
:020000040000fa
:04009c00e803000075
:020000040000fa
:0400a000e803000071
:020000040000fa
:0400a400e80300006d
:020000040000fa
:0400a800e803000069
:020000040000fa
:0400ac00e803000065
:020000040000fa
:0400b000e803000061
:020000040000fa
:0400b400e80300005d
:020000040000fa
:0400b800e803000059
:020000040000fa
:0400bc00e803000055
:020000040000fa
:0400c000e803000051
:020000040000fa
:0400c400e80300004d
:020000040000fa
:0400c800e803000049
:020000040000fa
:0400cc00e803000045
:020000040000fa
:0400d000e803000041
:020000040000fa
:0400d400e80300003d
:020000040000fa
:0400d800e803000039
:020000040000fa
:0400dc00e803000035
:020000040000fa
:0400e000e803000031
:020000040000fa
:0400e400e80300002d
:020000040000fa
:0400e800e803000029
:020000040000fa
:0400ec00e803000025
:020000040000fa
:0400f000e803000021
:020000040000fa
:0400f400e80300001d
:020000040000fa
:0400f800e803000019
:020000040000fa
:0400fc00e803000015
:020000040000fa
:04010000e803000010
:020000040000fa
:04010400e80300000c
:020000040000fa
:04010800e803000008
:020000040000fa
:04010c00e803000004
:020000040000fa
:04011000e803000000
:020000040000fa
:04011400e8030000fc
:020000040000fa
:04011800e8030000f8
:020000040000fa
:04011c00e8030000f4
:020000040000fa
:04012000e8030000f0
:020000040000fa
:04012400e8030000ec
:020000040000fa
:04012800e8030000e8
:020000040000fa
:04012c00e8030000e4
:020000040000fa
:04013000e8030000e0
:020000040000fa
:04013400e8030000dc
:020000040000fa
:04013800e8030000d8
:020000040000fa
:04013c00e8030000d4
:020000040000fa
:04014000e8030000d0
:020000040000fa
:04014400e8030000cc
:020000040000fa
:04014800e8030000c8
:020000040000fa
:04014c00e8030000c4
:020000040000fa
:04015000e8030000c0
:020000040000fa
:04015400e8030000bc
:020000040000fa
:04015800e8030000b8
:020000040000fa
:04015c00e8030000b4
:020000040000fa
:04016000e8030000b0
:020000040000fa
:04016400e8030000ac
:020000040000fa
:04016800e8030000a8
:020000040000fa
:04016c00e8030000a4
:020000040000fa
:04017000e8030000a0
:020000040000fa
:04017400e80300009c
:020000040000fa
:04017800e803000098
:020000040000fa
:04017c00e803000094
:020000040000fa
:04018000e803000090
:020000040000fa
:04018400e80300008c
:020000040000fa
:04018800e803000088
:020000040000fa
:04018c00e803000084
:020000040000fa
:04019000e803000080
:020000040000fa
:04019400e80300007c
:020000040000fa
:04019800e803000078
:020000040000fa
:04019c00e803000074
:020000040000fa
:0401a000e803000070
:020000040000fa
:0401a400e80300006c
:020000040000fa
:0401a800e803000068
:020000040000fa
:0401ac00e803000064
:020000040000fa
:0401b000e803000060
:020000040000fa
:0401b400e80300005c
:020000040000fa
:0401b800e803000058
:020000040000fa
:0401bc00e803000054
:020000040000fa
:0401c000e803000050
:020000040000fa
:0401c400e80300004c
:020000040000fa
:0401c800e803000048
:020000040000fa
:0401cc00e803000044
:020000040000fa
:0401d000e803000040
:020000040000fa
:0401d400e80300003c
:020000040000fa
:0401d800e803000038
:020000040000fa
:0401dc00e803000034
:020000040000fa
:0401e000e803000030
:020000040000fa
:0401e400e80300002c
:020000040000fa
:0401e800e803000028
:020000040000fa
:0401ec00e803000024
:020000040000fa
:0401f000e803000020
:020000040000fa
:0401f400e80300001c
:020000040000fa
:0401f800e803000018
:020000040000fa
:0401fc00e803000014
:020000040000fa
:04020000e80300000f
:020000040000fa
:04020400e80300000b
:020000040000fa
:04020800e803000007
:020000040000fa
:04020c00e803000003
:020000040000fa
:04021000e8030000ff
:020000040000fa
:04021400e8030000fb
:020000040000fa
:04021800e8030000f7
:020000040000fa
:04021c00e8030000f3
:020000040000fa
:04022000e8030000ef
:020000040000fa
:04022400e8030000eb
:020000040000fa
:04022800e8030000e7
:020000040000fa
:04022c00e8030000e3
:020000040000fa
:04023000e8030000df
:020000040000fa
:04023400e8030000db
:020000040000fa
:04023800e8030000d7
:020000040000fa
:04023c00e8030000d3
:020000040000fa
:04024000e8030000cf
:020000040000fa
:04024400e8030000cb
:020000040000fa
:04024800e8030000c7
:020000040000fa
:04024c00e8030000c3
:020000040000fa
:04025000e8030000bf
:020000040000fa
:04025400e8030000bb
:020000040000fa
:04025800e8030000b7
:020000040000fa
:04025c00e8030000b3
:020000040000fa
:04026000e8030000af
:020000040000fa
:04026400e8030000ab
:020000040000fa
:04026800e8030000a7
:020000040000fa
:04026c00e8030000a3
:020000040000fa
:04027000e80300009f
:020000040000fa
:04027400e80300009b
:020000040000fa
:04027800e803000097
:020000040000fa
:04027c00e803000093
:020000040000fa
:04028000e80300008f
:020000040000fa
:100400006f1421000eff2c000e0188000000000078
:10041000000020000000e000020032000001200087
:100420002002880014000700eb0007000000e00035
:1004300003003a00006d2100010020000200370097
:100440000000200001002000810f70000100320038
:100450000f000700000020000000e0000200320052
:100460000000020000000000b807020000000000c9
:100470000040da000000fe00200020000000e00044
:1004800002003200100020009001880000000600e9
:10049000a1028800800478000000eb001f003700f4
:1004a000e284440054a0b4009905ba00e2844400f8
:1004b00054a0b4009906ba00e284440054a0b400e9
:1004c0000006eb00476fde00fd07b200ae018800ba
:1004d000636ce10003003a000ad801000000eb0061
:1004e0000e003700606ce10008003a00004deb00a0
:1004f0000a05e800020039003420ec000af0a000f0
:100500008b05e900f9ff3e00040037006168e10057
:10051000010032000086eb000b00070019c7ba008b
:100520000e04e0001905ba0003003a000a00e000da
:10053000dbff3a0000000600fe07b200ae028800b2
:100540008a047800f5ff37000cd0a300e20f4d00bd
:100550001c00390089027800354dba000a05e80010
:10056000020039003420ec000af0a0008b05e900fd
:100570000f003200254dba000a05e80002003900dc
:100580003420ec000af0a0008b05e90008003200de
:100590000c00e0000600320015cdba000a05e800a4
:1005a000020039003420ec000af0a0008b05e900bd
:1005b0008984e80054a0b4000b00e000e2ff3a0098
:1005c000000006009902ba00055d78008b05e9007d
:1005d000f7ff3200c82ade00055d78008b05e900d0
:1005e000f3ff32000c00e000f1ff320019ddba0029
:1005f000eeff37000000fa000108a9000080fa00b1
:10060000004006003600f800809fbe00829fbe00ba
:10061000849fbe00869fbe000000fa000068a9000b
:100620005e0707002a0907000080fa004f03be009a
:100630004f02be004f01be004f00be003600f90061
:10064000004006003600f800809fbe00829fbe007a
:10065000849fbe00869fbe000000fa000368a900c8
:10066000608080007180800061004000e080480070
:1006700060808800718088000a0307000080fa000b
:100680004f03be004f02be004f01be004f00be0030
:100690003600f90000400600809fbe000000fa000e
:1006a00001a8a9000118800020002100010878009d
:1006b00011188000200021001100980021188000ee
:1006c0002000210021009800311880002000210026
:1006d000310098004118800020002100410098005e
:1006e00010c0b3000af0b7000080fa004f00be004f
:1006f000004006003600f800809fbe00829fbe00ca
:10070000849fbe00869fbe000000fa000188a900f9
:10071000a180800090808000808f50000200320015
:100720008c080700010037001670ef000080fa0007
:100730004f03be004f02be004f01be004f00be007f
:100740003600f900004006003600f800809fbe0029
:10075000829fbe00849fbe00869fbe000000fa00fc
:100760000168a90010118000640060000000e00032
:10077000010032002242a9001011800062006000d6
:100780000000e000060032002222a9000500370028
:100790003011800000407800dd08070001003700bc
:1007a0000000000010118000610060000000e00007
:1007b000f7ff3a000080fa004f03be004f02be0070
:1007c0004f01be004f00be003600f9000040060099
:1007d0000040da000000fe000000050003f0a20067
:1007e000889fbe008a9fbe008c1f78002a010700e8
:1007f000310133006450e1004f0032006420e10019
:100800005200320003826c0007003b000905d00053
:100810000306d000820f54000c065d000200390070
:1008200002003200890178000306780085825500b5
:1008300004003d000003fd008103fd008502ea0085
:100840008b854200840f720002003b0060001000a4
:10085000e08018006011b8000005eb007a28e10084
:100860000a00390006007800c75ddd00f707b20016
:10087000878075002d003700828171000a017800a1
:10088000610560008180d1000080d3008502e9000d
:10089000f9ff3b00060440008784480002003b004b
:1008a00060041400e0841c000988a30007003200e3
:1008b0008a81710082817100610164008904d10024
:1008c0000884d3008b05e800170037000978a300df
:1008d00013003a000b00e000130034008b05e90020
:1008e0000804440089844c000a4474000978a30079
:1008f0000d003a000b00e000070034008b05e90012
:100900000804440089844c0001003a000b002000d8
:100910000978a300f7ff32000001eb000200370066
:10092000828171000a017800a00007000cf0a70086
:1009300001f0a000e90037006420e10002003a0065
:10094000838f6c00e90033000801be000200be0086
:10095000e2003700889fbe008a9fbe008c1f78008f
:10096000cd000700d400330003866c006450e10022
:100970002e0032006420e100330032006150e100bb
:100980002f0032006120e1003100320085855500e2
:10099000eb07b00009002000080420000500370024
:1009a0000804440089844c000a0031000603430017
:1009b00087834b000001530081815b00f8ff330007
:1009c0000203be000800a0000804440089844c0013
:1009d000f6ff3900c639dd008301730001003200e3
:1009e000130020008904d1000884d3000998a300d3
:1009f000050032000800a7000300a0008904d10010
:100a00000884d3008b05e8008904d1000884d30052
:100a10000001eb000281d2006400070001f0a10098
:100a20000cf0a70001f0a000ac0037006420e1004a
:100a3000ae0032000801be000200be00f7ff370022
:100a40006120e100a90032006000b800f3ff370028
:100a50000000200001f82700f0ff3700839f6800a6
:100a60000100e00002003d0060001000e08018007e
:100a70000300e00002003d0060011100e081190068
:100a8000d10007004f00e00002003b0060001000b2
:100a9000e08018000000060014002000da00370093
:100aa000f4ff2f00d80037000001be0065000700ea
:100ab0000470a70003f0a1006509b1001600320020
:100ac0000d0035006828e10006003500f0ff2f001a
:100ad000f1ff27000300e00013003b0001002800a5
:100ae0000000050000004000818048008502e90008
:100af000fcff3a0008003700f88f420002003c007b
:100b00008000eb00000005008100d1000080d300d0
:100b10008502e800fcff3a000300e00002003b0011
:100b200060001000e0801800000006000001be0018
:100b3000440007000470a70003f0a10003f8a3001d
:100b400013003a006509b1001000320009003500b9
:100b50006928e100020035000100280000000500be
:100b600000004000818048008502e900fcff3a0057
:100b700000000600f88f4200050035008100d1001a
:100b80000080d3008502e800fcff3a000000060068
:100b90008000eb00000005004f89de008201780034
:100ba000b40037006011b800c20037008100200097
:100bb000618055000b003d000b00200061fe2f00fe
:100bc0000100e1001d0034008281710061016400b8
:100bd0008904d1000884d3000000e800faff3a003d
:100be00071002000610064000300700002006000da
:100bf0000900320061044400e0844c000988a5002b
:100c0000050032008b05e8006808e10002003a00a8
:100c10008904d1000884d300f20f20000258e100bb
:100c200005003d00c75ddd00f907b2008980750051
:100c300008007800000006000bf827008b00780001
:100c400000000500c70ade00f107b200f50fb20090
:100c500008003200e1cf4200020032000170a00023
:100c600024000500810f7000010032000408050017
:100c700044000500810f700002003a0014000500d6
:100c80008502e9000000400081c04800fcff3b00f5
:100c90000170a000240005000004be00e9ff070069
:100ca0000003be000405be000200be00e5ff070011
:100cb000844f7500000006000200be006450e10091
:100cc000050036006420e100020036000968a30038
:100cd00001003a000800be000160a0004f06780045
:100ce0004f05be004f04be0000000600f0ff2f00bd
:100cf000f1ff2700f9ff3700889fbe008a9fbe00e2
:100d00008c1f7800e4ff0700ebff330003866c00c4
:100d10006450e100240032006420e100270032002a
:100d20006150e100220032006120e1002100320028
:100d30008b854200eb07b1000134b800003ab800df
:100d40000804420089844a00013ab8000030b80023
:100d50008880400009014a00040033000000400080
:100d600081804800020149008b05e900c909dd00c6
:100d7000830170000100320013002000c814de005f
:100d80004814dd004709de001200b200c808de008a
:100d90000884700085ff070001f0a1000cf0a70097
:100da00001f0a000cdff37006120e100cfff32004d
:100db0000801be000200be00f7ff37006150e100ed
:100dc000fcff3a00c9ff37006022b800060220008d
:100dd0000000d0008180d2000482d2008582d2003f
:100de0000000a0000202520083825a00030031007a
:100df0000202420083824a000000a1000603e900cb
:100e0000f3ff3a0000000600889fbe008a9fbe00e4
:100e1000841f7800a0ff07004f0078001100330006
:100e2000f0ff2f00838f6c0006003b000405650077
:100e30000a00a7000800370009f0a60010002000f3
:100e400008003700820f5400838f5c0003003900d4
:100e50001000200001003e000000200009f0a70063
:100e60000000ea004f05be004f04be000000e00095
:100e700000000600881f7800030478000300e000eb
:100e800007003d0060001000e080180060011900bc
:100e9000e081190002003b0001f02d000300370043
:100ea0000400070008f0a70001f0a0004f0478003c
:100eb00000000600889fbe008a9fbe00008270006e
:100ec0000402710004827100260032000004be009a
:100ed0000200be006011b8006b09200095022000de
:100ee0000182cf000a0039000541b1000082cf0025
:100ef000070039000541b1000982cf000400390024
:100f00000541b1000882cf00010039000541b10060
:100f100005425200120032000a003b00828171003b
:100f2000610164008100d1000080d3008984d30076
:100f30000884d3008b05e8000442e800f7ff3a007c
:100f4000070037000804440089844c000000480072
:100f5000818048008b05e9000442e900f9ff3a006e
:100f600012ff07004f05be004f04be000000060040
:020000040000fa
:100f70000a00fa00881f78005e070700a50707002f
:100f8000a5030700d7030700d4040700960607004f
:100f9000530407002307070001003700000000008a
:100fa000cf06070010079800d1060700e14f500058
:100fb000faff3a00d20607001e0090000080e80009
:100fc000100078008000eb00f6fe070032332300ab
:100fd0003305240048ff07000200200003582400c6
:100fe0005cfe0700d2cc2c00c304240042ff0700a3
:100ff00020079800310798002e019000be01900054
:10100000000020008120240052fe07000200200082
:10101000030a2400f1fd0700b0898800c189880017
:101020001e00900064004000100078008000eb007b
:10103000dcfe070032332300330524002eff0700b7
:10104000020020000358240042fe0700d2cc2c00ee
:10105000c304240028ff07002007980031079800e8
:101060002e019000be01900000002000812024008d
:1010700038fe070002002000030a2400d7fd070005
:10108000d0898800e18988001e0090006800400037
:10109000100078008000eb00c2fe0700323323000e
:1010a0003305240014ff0700020020000358240029
:1010b00028fe0700d2cc2c00c30424000eff07003a
:1010c00020079800310798002e019000be01900083
:1010d00000002000812024001efe070002002000e6
:1010e000030a2400bdfd0700f0898800018a8800fa
:1010f0001e00900066004000100078008000eb00a9
:10110000a8fe07003233230033052400fafe07004f
:1011100002002000035824000efe0700d2cc2c0051
:10112000c3042400f4fe070020079800310798004c
:101130002e019000be0190000000200081202400bc
:1011400004fe070002002000030a2400a3fd07009c
:10115000108a8800218a88001e0090001000780004
:101160008000eb008ffe070032332300330524009c
:10117000e1fe07000200200003582400f5fd0700ef
:10118000d2cc2c00c3042400dbfe0700200798000b
:10119000310798002e019000be0190000000200051
:1011a00081202400ebfd070002002000030a240038
:1011b0008afd070090898800a189880090898000b5
:1011c000a189800018c0b30002002000031a240087
:1011d00031fe07000000e000010035000044eb0094
:1011e0000804e00002003200254ea800010037008c
:1011f000254ea900d0898000e189800018c0b30085
:1012000002002000031a240023fe07000000e00073
:10121000010035000044eb000804e0000200320049
:1012200064eea8000100370064eea900108a800077
:10123000218a800018c0b30002002000031a240095
:1012400015fe07000000e000010035000044eb003f
:101250000804e0000200320064cea800010037005c
:1012600064cea9000000eb00000f780006003700f4
:101270003a060700004f9800680047001100200060
:10128000780507001e0fe800550607009e0f500066
:10129000f7ff3c000071220001002000f806070063
:1012a0003fff37000000fa001cd0bf000080fb00a9
:1012b000cf80de005201200003002000820f50008a
:1012c000838f5800a7003e0000060100150037007c
:1012d0001e0037002700370031003700320037008a
:1012e0003c0037003d00370047003700480037001a
:1012f00052003700530037005d0037009900370077
:1013000098003700830037008d0037005a003700ff
:1013100064003700650037006f0037007000370049
:101320007a0037000c30ef000e30ef000041eb0088
:101330006000b8000504070012c0b3006000b800e8
:101340000204070010c0b3001cf0b70062808000e8
:1013500073808000803e200001002000800f51003b
:10136000818f59008200360020c0b3001cf0b70006
:10137000820037000041eb0000002000811c2c009f
:10138000f203070012c0b30000002000811c2400fb
:10139000ee03070030c0b3001cf0b7007700370041
:1013a00078000700750037000041eb0000002000c6
:1013b000011a2c00e503070012c0b3000000200052
:1013c000010a2c00e103070050c0b3001cf0b70075
:1013d0006a0037006b000700680037000041eb002f
:1013e00000002000010a2400d803070012c0b30047
:1013f00000002000011a2400d403070070c0b300cd
:101400001cf0b7005d0037005e0007005b0037008e
:101410000041eb000000200001172c00cb03070067
:1014200012c0b3000000200001172c00c703070002
:1014300090c0b3001cf0b700500037005100070007
:101440004e0037000041eb0000002000011724008f
:10145000be03070012c0b3000000200001172400e3
:10146000ba030700b0c0b3001cf0b7004300370058
:1014700044000700410037000041eb00000020005d
:1014800001172c00b103070012c0b30000002000b8
:1014900001172400ad03070010c1b3001cf0b70012
:1014a0003600370037000700340037000041eb00fa
:1014b0000000200001122c00a403070012c0b3009a
:1014c00000002000011a2400a003070030c1b3006f
:1014d0001cf0b700290037002a000700270037005a
:1014e0000041eb0000002000011a2c0097030700c8
:1014f00012c0b30000002000011224009303070073
:1015000050c1b3001cf0b7001c0037001d000700dd
:101510001a0037000041eb000000200001122400f7
:101520008a03070012c0b3000000200001122c0043
:1015300086030700f0c0b3001cf0b7000f003700af
:101540006280800073808000803e200001002000c7
:10155000800f5100818f59000700360009000700f5
:10156000060037001c70ef00000000000300370089
:101570000000000001003700000000000080fa00b9
:10158000000006000200fa00881f78000040eb000f
:10159000004f7800b0898000c189800018c0b30076
:1015a00002002000031a24003bfd07000000e000b9
:1015b000010035000044eb000804e0002f00320079
:1015c000d0898000e189800018c0b30002002000ab
:1015d000031a240030fd07000000e0000100350080
:1015e0000044eb000804e00024003200f089800091
:1015f000018a800018c0b30002002000031a2400f2
:1016000025fd07000000e000010035000044eb006c
:101610000804e0001900320090898000a189800050
:1016200018c0b30002002000031a24001afd0700ae
:101630000000e000010035000044eb000804e00079
:101640000e003200108a8000218a800018c0b3008a
:1016500002002000031a24000ffd07000000e00034
:10166000010035000044eb000804e00003003200f4
:1016700080c0b300004f780088013700b089800037
:10168000c189800018c0b30002002000031a2400a2
:1016900001fd07000000e000010035000044eb0000
:1016a0000804e00019003200d0898000e189800040
:1016b00018c0b30002002000031a2400f6fc070043
:1016c0000000e000010035000044eb000804e000e9
:1016d0000e003200f0898000018a800018c0b3003b
:1016e00002002000031a2400ebfc07000000e000c9
:1016f000010035000044eb000804e0000300320064
:10170000c0c0b300004f780064013700b08980008a
:10171000c189800018c0b30002002000031a240011
:10172000dffc07000000e00001003c000044eb008b
:101730000804e0002f003200d0898000e189800099
:1017400018c0b30002002000031f2400d4fc0700cf
:101750000000e00001003c000044eb000804e00051
:1017600024003200f0898000018a800018c0b30094
:1017700002002000031a2400c9fc07000000e0005a
:1017800001003c000044eb000804e00019003200b6
:1017900090898000a189800018c0b3000200200059
:1017a00003122400bcfc07000000e000010035002b
:1017b0000044eb000804e0000e003200108a8000b4
:1017c000218a800018c0b300020020000312240008
:1017d000b1fc07000000e000010035000044eb0010
:1017e0000804e00003003200d0c0b300004f7800ce
:1017f0002a013700b0898000c189800018c0b30079
:101800000200200003122400a3fc07000000e000f7
:10181000010035000044eb000804e000190032002c
:10182000d0898000e189800018c0b3000200200048
:10183000031f24009afc07000000e00001003c00a8
:101840000044eb000804e0000e003200f089800044
:10185000018a800018c0b300020020000312240097
:101860008dfc07000000e000010035000044eb00a3
:101870000804e0000300320040c0b300004f7800cd
:1018800006013700b0898000c189800018c0b3000c
:1018900002002000031f24007ffc07000000e0007e
:1018a000010035000044eb000804e000190032009c
:1018b000d0898000e189800018c0b30002002000b8
:1018c000031f240076fc07000000e00001003c003c
:1018d0000044eb000804e0000e003200f0898000b4
:1018e000018a800018c0b30002002000031f2400fa
:1018f0006bfc07000000e00001003c000044eb002e
:101900000804e0000300320020c0b300004f78005c
:10191000e2003700b0898000c189800018c0b300a0
:1019200002002000031f24005dfc07000000e0000f
:1019300001003c000044eb000804e0001900320004
:10194000d0898000e189800018c0b3000200200027
:10195000031f240052fc07000000e00001003c00cf
:101960000044eb000804e0000e003200f089800023
:10197000018a800018c0b30002002000031f240069
:1019800045fc07000000e000010035000044eb00ca
:101990000804e0000300320010c0b300004f7800dc
:1019a000be003700d0898000e189800018c0b300f4
:1019b00002002000031a240037fc07000000e000aa
:1019c000010035000044eb000804e0000300320091
:1019d00060c0b300004f7800b0003700d0898000ad
:1019e000e189800018c0b30002002000831c24009d
:1019f00029fc07000000e000010035000044eb0076
:101a00000804e0000e003200d0898000e1898000e7
:101a100018c0b30002002000031a240020fc0700b5
:101a20000000e00001003c000044eb000804e0007e
:101a30000300320070c0b300004f780097003700f9
:101a4000b0898000c189800018c0b3000200200066
:101a5000031f240012fc07000000e00001003c000e
:101a60000044eb000804e0002f003200d089800021
:101a7000e189800018c0b30002002000031f240089
:101a800007fc07000000e00001003c000044eb0000
:101a90000804e00024003200f0898000018a800000
:101aa00018c0b30002002000031f2400fcfb070045
:101ab0000000e00001003c000044eb000804e000ee
:101ac0001900320090898000a189800018c0b300fd
:101ad00002002000031a2400effb07000000e000d2
:101ae000010035000044eb000804e0000e00320065
:101af000108a8000218a800018c0b30002002000f4
:101b0000031f2400e6fb07000000e00001003c008a
:101b10000044eb000804e00003003200e0c0b30022
:101b2000004f78005d003700b0898000c1898000d7
:101b300018c0b30002002000031f2400d8fb0700d8
:101b40000000e00001003c000044eb000804e0005d
:101b50002f003200d0898000e189800018c0b300d6
:101b600002002000031f2400cdfb07000000e0005e
:101b700001003c000044eb000804e00024003200b7
:101b8000f0898000018a800018c0b30002002000a4
:101b9000031f2400c2fb07000000e00001003c001e
:101ba0000044eb000804e000190032009089800036
:101bb000a189800018c0b30002002000031f240088
:101bc000b7fb07000000e00001003c000044eb0010
:101bd0000804e0000e003200108a8000218a800094
:101be00018c0b30002002000031a2400aafb07005b
:101bf0000000e000010035000044eb000804e000b4
:101c000003003200f0c0b300004f7800230037001b
:101c1000b0898000c189800018c0b3000200200094
:101c2000031f24009efb07000000e00001003c00b1
:101c30000044eb000804e00018003200d089800066
:101c4000e189800018c0b30002002000031f2400b7
:101c500093fb07000000e00001003c000044eb00a3
:101c60000804e0000d003200f0898000018a800045
:101c700018c0b30002002000031f240088fb0700e7
:101c80000000e00001003c000044eb000804e0001c
:101c9000020032000040eb00004f78001e40780048
:101ca000e84f500003003a00e0c0b3001df0b70059
:101cb0004d0037001e407800ea4f500003003a0004
:101cc00080c0b3001df0b700470037001e40780009
:101cd000eb4f500003003a0080c0b3001df0b70086
:101ce000410037001e407800ec4f500003003a00de
:101cf00080c0b3001df0b7003b0037001e407800e5
:101d0000ed4f500003003a0000c1b3001df0b700d2
:101d1000350037001e407800e44f500003003a00c1
:101d200080c0b3001df0b7002f0037001e407800c0
:101d3000e34f500003003a0000c1b3001df0b700ac
:101d4000290037001e407800e24f500003003a009f
:101d500040c0b3001df0b700230037001e407800dc
:101d6000e14f500003003a0060c0b3001df0b7001f
:101d70001d0037001e407800e64f500003003a0077
:101d800080c0b3001df0b700170037001e40780078
:101d9000e74f500003003a0000c1b3001df0b70048
:101da000110037001e407800ee4f500003003a004b
:101db00040c1b3001df0b7000b0037001e40780093
:101dc000ef4f500003003a0020c1b3001df0b700f0
:101dd000050037001e4078000004e00002003a00d1
:101de00020c0b3001df0b7001dd0bf008080fb00f5
:101df0001cd0bf000080fb000000e900808f500075
:101e0000020032001dd0bf001cf0b7004f04780064
:101e10000080fa00000006000400fa0013e1a900a7
:101e200011e1a9001061a8001021a900810880001b
:101e3000f0fc2f0000806000800888000a21ef007d
:101e40000621ef00404c20007008880000402b0065
:101e500060088800800880004400de006340600065
:101e60000081fb008001eb00700880008000eb0027
:101e7000c002dd0004002000600880008000eb004c
:101e80000400400085804800809ab900828bb90028
:101e900086027800050242000010b80001024200ec
:101ea000840078000001be0000a02500212620004b
:101eb000eafa070038fb0700008fbe0021428000cd
:101ec00080ff2f00008060000000a00020428800fa
:101ed0000108a9002108a80011e1a8000080fa006b
:101ee000000006000000fa0005e1a9000421a90095
:101ef00000002000812c2400050007000068a900d4
:101f00002068a80005e1a8000080fa000000060093
:101f10000400fa00881f7800008fbe0021088000ae
:101f2000f0fc2f0000806000200888001e0178006f
:101f30009e0190000068290081c1240085fa0700f5
:101f400018c0b30002f02f00f3772400d4fa070082
:101f50000000e00001003c000044eb000804e00049
:101f60005400320021088000f0fc2f000080600047
:101f70000040a000200888001e0178009e0190000b
:101f80000068290081c1240072fa070002002000c5
:101f9000031024006ffa070018c0b30002f02f00ee
:101fa000f3772400befa07000000e00001003c00c7
:101fb0000044eb000804e0003200320021088000f9
:101fc000f0fc2f00008060000050a0002008880076
:101fd0001e0178009e0190000068290081c1240044
:101fe0005cfa0700020020000328240059fa0700c9
:101ff00018c0b30002f02f00f3772400a8fa0700fe
:102000000000e00001003c000044eb000804e00098
:102010001000320021088000000320000100700041
:10202000200888001e0178009e01900000682900a9
:1020300081c1240047fa0700020020000338240071
:1020400044fa070098fa070000007800100888009a
:10205000200037001e0178009e01900000682900d2
:1020600081c124003bfa070002002000032824005d
:1020700038fa07008cfa0700000078001008880082
:10208000140037001e0178009e01900000682900ae
:1020900081c124002ffa0700020020000310240051
:1020a0002cfa070080fa070000007800100888006a
:1020b000080037001e0178009e019000006829008a
:1020c00081c1240023fa070077fa07000000780096
:1020d000100888004f0478000080fa000000060015
:1020e0000000fa0000002000a147240007000700bc
:1020f0001fe1a9001e21a9000368a9002368a80008
:102100001fe1a8000080fa00000006000400fa00a9
:10211000881f7800008fbe00f1088000f0fc2f00bf
:1021200000806000f00888001e0178009e01900089
:102130000068290081c1240006fa070018c0b30016
:1021400002f02f00f377240055fa07000000e000aa
:1021500001003c000044eb000804e00054003200a1
:10216000f1088000f0fc2f00008060000040a0001b
:10217000f00888001e0178009e0190000068290088
:1021800081c12400f3f9070002002000031024009d
:10219000f0f9070018c0b30002f02f00f377240015
:1021a0003ffa07000000e00001003c000044eb00a3
:1021b0000804e00032003200f1088000f0fc2f003b
:1021c000008060000050a000f00888001e01780028
:1021d0009e0190000068290081c12400ddf90700fc
:1021e0000200200003282400daf9070018c0b30019
:1021f00002f02f00f377240029fa07000000e00026
:1022000001003c000044eb000804e0001000320034
:10221000f10880000003200001007000f008880031
:102220001e0178009e0190000068290081c12400f1
:10223000c8f907000200200003382400c5f9070090
:1022400019fa070000007800d00888002000370045
:102250001e0178009e0190000068290081c12400c1
:10226000bcf907000200200003282400b9f9070088
:102270000dfa070000007800d0088800140037002d
:102280001e0178009e0190000068290081c1240091
:10229000b0f907000200200003102400adf9070088
:1022a00001fa070000007800d00888000800370015
:1022b0001e0178009e0190000068290081c1240061
:1022c000a4f90700f8f9070000007800d00888009a
:1022d0004f0478000080fa00000006000000fa00b9
:1022e0001160800080ff2f00008060001060880077
:1022f00000fa20002060880023aca800238ca800ee
:1023000011618000f03f2f000080600000a0a0005d
:10231000106188003000200020618800c3aca80054
:10232000c38ca80011668000f03f2f000080600081
:1023300000a0a00010668800300020002066880001
:1023400001eca8000080fa00000006000600fa0078
:10235000008fbe00424798004e4090000004e0000d
:1023600005003a001e0178009e0190005289880005
:1023700063898800070037004e409000e14f50000d
:1023800004003a001e0178009e0190001289880026
:10239000238988000080fa00000006000000fa008f
:1023a000889fbe008a9fbe00748980008589800056
:1023b000508980006189800018c0b3000001be0010
:1023c0000400be00b4f907000000e0000100350081
:1023d0000044eb000804e0000f0032005889800040
:1023e000698980007a8980008b8980001ed0bf00b7
:1023f0000080fb00cf80de00e7f907000001be008f
:102400000a00be00f6f807000801be00bc00070085
:10241000708988008189880074898000858980009e
:10242000508980006189800018c0b3000001be009f
:102430000400be009af907000000e00001003c0023
:102440000044eb000804e0000f00320058898000cf
:10245000698980007a8980008b8980001ed0bf0046
:102460000080fb00cf80de00cbf907000001be003a
:102470000a00be00d9f807000801be008800070066
:102480007089880081898800708980008189800036
:1024900018c0b3006011b80081f907000000e00027
:1024a00001003c000044eb000804e000040032009e
:1024b000c3cca90024eea800c3eca8000300370099
:1024c000c3eca90024cea800c3cca800708980006a
:1024d000818980005c0007000200200003222400a4
:1024e00005fa070091f907000000780030668800bf
:1024f000348980004589800010898000218980000e
:1025000018c0b3000001be000400be0062f907005d
:102510000000e000010035000044eb000804e0008a
:102520000f00320018898000298980003a898000d4
:102530004b8980001ed0bf000080fb00cf80de00f2
:1025400095f907000001be000a00be00a4f80700cc
:102550000801be006a0007003089880041898800b0
:10256000348980004589800010898000218980009d
:1025700018c0b3000001be000400be0048f9070007
:102580000000e00001003c000044eb000804e00013
:102590000f00320018898000298980003a89800064
:1025a0004b8980001ed0bf000080fb00cf80de0082
:1025b00079f907000001be000a00be0087f8070095
:1025c0000801be0036000700308988004189880074
:1025d000308980004189800018c0b3006011b800c4
:1025e0002ff907000000e00001003c000044eb0070
:1025f0000804e0000400320023cca90015eea80076
:1026000023eca8000300370023eca90015cea80096
:1026100023cca80030898000418980000a0007008f
:102620000200200003222400b3f907003ff907004d
:1026300000007800306188004f05be004f04be00e6
:102640000080fa00000006000400fa00881f7800ed
:10265000008fbe0018c0b3006011b8001e007800e3
:102660009e0090000ef907000000e00001003d0010
:102670000044eb000804e000030032001e00780074
:102680009e009000030037001e0078009e0090001e
:1026900001f0a2004f0478000080fa00000006005c
:1026a0000800fa00881f7800008fbe0022079800fb
:1026b0003307980018c0b3002e019000be019000af
:1026c0001e0078009e009000f5f807000000e00072
:1026d00001003c000044eb000804e000030032006d
:1026e0001e0078009e009000020037002e0090002f
:1026f000be0090004f0478000080fa000000060041
:102700000800fa00881f7800008fbe00220798009a
:102710003307980018c0b3002e019000be0190004e
:102720001e0078009e009000dbf807000000e0002b
:10273000010035000044eb000804e0000300320013
:102740001e0078009e009000020037002e009000ce
:10275000be0090004f0478000080fa0000000600e0
:102760000c00fa00881f7800008fbe002207980036
:1027700033079800440798005507980018c0b30025
:102780004e019000de0190001e0078009e00900037
:10279000c3f807000000e00001003c000044eb002b
:1027a0000804e000040032004e019000de019000b9
:1027b000028fbe000e00370018c0b3002e0190003b
:1027c000be0190001e0078009e009000b2f8070045
:1027d0000000e000010035000044eb000804e000c8
:1027e000030032002e019000be019000028fbe0057
:1027f0001e0078009e0090004f0478000080fa00d0
:10280000000006000400fa00008fbe00b2fd2000a8
:10281000930424001e0078009e0090004df80700ed
:10282000020020004333240033f907000080fa003f
:10283000000006000400fa00008fbe00b2fd200078
:10284000930424001e0078009e0090002af90700df
:1028500002002000433324003ef807000080fa0005
:10286000000006000600fa001007980021079800f3
:102870000040eb00004f780054000700ae009000cd
:10288000810f5000110034000040eb00004f780031
:10289000060037001e80fb009e0090000080400074
:1028a000104078000b0007001e4fe8009e80fb00e0
:1028b0002e009000808f5000f6ff35002e0007009c
:1028c0000004e00001003a00220007000080fa0046
:1028d000000006000200fa00004f7800908080009f
:1028e00001022100008040001e4878009080800096
:1028f0000000e8009080880091808000f0072000b0
:10290000808f5000010034001230ef000080fa0088
:10291000000006000200fa00a080800001022100f1
:1029200000804000104f7800a08080000000e80088
:10293000a0808800a1808000f0072000808f5000d8
:10294000010034001430ef001e4078000080fa00cf
:10295000000006000200fa0010c0b30016f0b70035
:10296000ecff0700004f78001e80fb00201188005c
:102970000080fa00000006000000fa0016d0bf0038
:102980000080fa00000006000200fa00918080003a
:10299000a0808000808f500004003500918080006e
:1029a000a0808000008f50000500370091808000db
:1029b000a08080000080500001082000010f40002e
:1029c0001e0078000080fa00000006000200fa00f5
:1029d000edff070001082000008f50001e00780066
:1029e0000080fa00000006000000fa0021e3a900c0
:1029f0002143a80001198000f0cf2f000080600063
:102a0000001988002043a90001198000000e200051
:102a1000010070000019880011198000f0ff2100ea
:102a200000806000101988002343a800111980005d
:102a3000f0cf2f000080600010198800111980006d
:102a400030f82f00008060000040a00010198800be
:102a50002203a9002223a90025e3a900f0c0b300a6
:102a600024e3b70021198000f00f2e008080600061
:102a700000f0200001007000201988003303a90035
:102a80002e0ea8002f6ea8006f2ea8001e2ea800e4
:102a90004feea80030c3a8003163a8002e03a800a1
:102aa0003063a80031e3a8004119800000fc2f002a
:102ab000008060004019880028e3a90001a8a9004f
:102ac00021a8a80021e3a8000080fa000000060069
:102ad0000000fa002023a8000080fa000000060091
:102ae0000000fa00200021000080fa00000006002b
:102af0000000fa000ad0bf000080fa0000000600c3
:102b00000000fa000a70ef000080fa0000000600e2
:102b10000200fa00004f78002a0007000000e000e1
:102b20000c003400c0808000010a210000804000b9
:102b30001e487800c08080000000e800c080880047
:102b4000c180800000082000808f50000100340008
:102b50001830ef000080fa00000006000200fa00c2
:102b6000d0808000010a210000804000104f7800d2
:102b7000d08080000000e800d0808800d1808000f4
:102b800000082000808f5000010034001a30ef0050
:102b90001e4078000080fa00000006000000fa00e5
:102ba000c1808000d0808000808f50000200320001
:102bb00010c0b300010037000040eb000080fa00b5
:102bc000000006000200fa000500070001082000ce
:102bd000008f50001e0078000080fa000000060000
:102be0000200fa00c1808000d0808000808f5000f9
:102bf00004003500c1808000d0808000008f50002c
:102c000005003700c1808000d08080000080500027
:102c100001082000010f40001e0078000080fa002b
:102c2000000006000000fa002002a9000111800047
:102c300090ff2f00008060000011880020a2a900f2
:102c40002062a800500520004011880023a2a9009e
:102c500023e2a9000188a9002188a80011118000a1
:102c6000f0f32f0000806000101188000168a900b7
:102c70002168a80021e2a8002342a8000080fa00f1
:102c8000000006000600fa001007980021079800cf
:102c90000040eb00004f78000040eb00004f780050
:102ca0000e003700000000001111800000202000fd
:102cb000008060000000e000fbff3a001e00900072
:102cc000104078000080fb00201188001e0090005a
:102cd0000000e800100798001e4fe8009e80fb00ef
:102ce0002e009000808f5000eeff35000080fa002b
:102cf000000006000000fa00f0032000303a8800cf
:102d0000213a8000f0f32f0000806000203a880014
:102d1000213a800000fe2f00008060000000a0002b
:102d2000203a88001200200080072000a10920001e
:102d30003374200080497800814978008249780006
:102d4000103a8000000178000200a000600420001a
:102d500071052000237420008049780081497800a3
:102d60008249780000000000113a8000000027002e
:102d70008080600000002100808f5000faff3a0040
:102d800000000000113a8000000220000080600076
:102d90000000e000fbff32000080fa0000000600a7
:020000040000fa
:102da0001c10000002000000800000000c10000059
:102db0000600000080000000201100002600000036
:102dc000800000001e1000000200000082000000d1
:102dd00007000000001000000c0000008000000050
:102de0002010000080000000800000001210000091
:102df0000600000080000000a0100000800000001d
:102e00008000000018100000040000008000000096
:042e100000000000be
:020000040000fa
:102e14000000fa000e2eef001e2eef002e2eef0003
:102e24003e2eef004e2eef005e2eef006e2eef00d2
:102e3400214ea90060cea90060eea90011cea90020
:102e440011eea90020cea90020eea90021368000b1
:102e540000f82f00008060008001b3002036880055
:102e64001134800000fc2f00008060000000a000ee
:0c2e7400103488000080fa000000060006
:020000040000fa
:102e8000f03fb1000180b10006003500ee030900fb
:102e900000000000403fb1000180b100fbff3d0099
:102ea0001000b000203fb000020035000080090093
:082eb000000000000000060014
:020000040000fa
:02000004000af0
:04afe000cfff00009f
:020000040000fa
:02000004000af0
:04afe400ffff00006b
:020000040000fa
:02000004000af0
:04afe8007fff0000e7
:020000040000fa
:02000004000af0
:04afec005fff000003
:020000040000fa
:02000004000af0
:04aff00038ff000026
:020000040000fa
:02000004000af0
:04aff400ffff00005b
:00000001FF
