:020000040000fa
:080000000002040000000000f2
:020000040000fa
:04000800e803000009
:020000040000fa
:04000c00e803000005
:020000040000fa
:04001000e803000001
:020000040000fa
:04001400e8030000fd
:020000040000fa
:04001800e8030000f9
:020000040000fa
:04001c00e8030000f5
:020000040000fa
:04002000e8030000f1
:020000040000fa
:04002400e8030000ed
:020000040000fa
:04002800e8030000e9
:020000040000fa
:04002c00e8030000e5
:020000040000fa
:04003000e8030000e1
:020000040000fa
:0400340002030000c3
:020000040000fa
:04003800e8030000d9
:020000040000fa
:04003c00e8030000d5
:020000040000fa
:04004000e8030000d1
:020000040000fa
:04004400e8030000cd
:020000040000fa
:04004800fa020000b8
:020000040000fa
:04004c00e8030000c5
:020000040000fa
:04005000e8030000c1
:020000040000fa
:04005400a403000001
:020000040000fa
:040058007a03000027
:020000040000fa
:04005c004c03000051
:020000040000fa
:04006000e8030000b1
:020000040000fa
:04006400e8030000ad
:020000040000fa
:04006800e8030000a9
:020000040000fa
:04006c00e8030000a5
:020000040000fa
:04007000e8030000a1
:020000040000fa
:04007400e80300009d
:020000040000fa
:04007800e803000099
:020000040000fa
:04007c00e803000095
:020000040000fa
:04008000e803000091
:020000040000fa
:04008400e80300008d
:020000040000fa
:04008800e803000089
:020000040000fa
:04008c00e803000085
:020000040000fa
:04009000e803000081
:020000040000fa
:040094002203000043
:020000040000fa
:04009800e803000079
:020000040000fa
:04009c00e803000075
:020000040000fa
:0400a000e803000071
:020000040000fa
:0400a400e80300006d
:020000040000fa
:0400a800e803000069
:020000040000fa
:0400ac00e803000065
:020000040000fa
:0400b000e803000061
:020000040000fa
:0400b400e80300005d
:020000040000fa
:0400b800e803000059
:020000040000fa
:0400bc00e803000055
:020000040000fa
:0400c000e803000051
:020000040000fa
:0400c400e80300004d
:020000040000fa
:0400c800e803000049
:020000040000fa
:0400cc00e803000045
:020000040000fa
:0400d000e803000041
:020000040000fa
:0400d400e80300003d
:020000040000fa
:0400d800e803000039
:020000040000fa
:0400dc00e803000035
:020000040000fa
:0400e000e803000031
:020000040000fa
:0400e400e80300002d
:020000040000fa
:0400e800e803000029
:020000040000fa
:0400ec00e803000025
:020000040000fa
:0400f000e803000021
:020000040000fa
:0400f400e80300001d
:020000040000fa
:0400f800e803000019
:020000040000fa
:0400fc00e803000015
:020000040000fa
:04010000e803000010
:020000040000fa
:04010400e80300000c
:020000040000fa
:04010800e803000008
:020000040000fa
:04010c00e803000004
:020000040000fa
:04011000e803000000
:020000040000fa
:04011400e8030000fc
:020000040000fa
:04011800e8030000f8
:020000040000fa
:04011c00e8030000f4
:020000040000fa
:04012000e8030000f0
:020000040000fa
:04012400e8030000ec
:020000040000fa
:04012800e8030000e8
:020000040000fa
:04012c00e8030000e4
:020000040000fa
:04013000e8030000e0
:020000040000fa
:04013400e8030000dc
:020000040000fa
:04013800e8030000d8
:020000040000fa
:04013c00e8030000d4
:020000040000fa
:04014000e8030000d0
:020000040000fa
:04014400e8030000cc
:020000040000fa
:04014800e8030000c8
:020000040000fa
:04014c00e8030000c4
:020000040000fa
:04015000e8030000c0
:020000040000fa
:04015400e8030000bc
:020000040000fa
:04015800e8030000b8
:020000040000fa
:04015c00e8030000b4
:020000040000fa
:04016000e8030000b0
:020000040000fa
:04016400e8030000ac
:020000040000fa
:04016800e8030000a8
:020000040000fa
:04016c00e8030000a4
:020000040000fa
:04017000e8030000a0
:020000040000fa
:04017400e80300009c
:020000040000fa
:04017800e803000098
:020000040000fa
:04017c00e803000094
:020000040000fa
:04018000e803000090
:020000040000fa
:04018400e80300008c
:020000040000fa
:04018800e803000088
:020000040000fa
:04018c00e803000084
:020000040000fa
:04019000e803000080
:020000040000fa
:04019400e80300007c
:020000040000fa
:04019800e803000078
:020000040000fa
:04019c00e803000074
:020000040000fa
:0401a000e803000070
:020000040000fa
:0401a400e80300006c
:020000040000fa
:0401a800e803000068
:020000040000fa
:0401ac00e803000064
:020000040000fa
:0401b000e803000060
:020000040000fa
:0401b400e80300005c
:020000040000fa
:0401b800e803000058
:020000040000fa
:0401bc00e803000054
:020000040000fa
:0401c000e803000050
:020000040000fa
:0401c400e80300004c
:020000040000fa
:0401c800e803000048
:020000040000fa
:0401cc00e803000044
:020000040000fa
:0401d000e803000040
:020000040000fa
:0401d400e80300003c
:020000040000fa
:0401d800e803000038
:020000040000fa
:0401dc00e803000034
:020000040000fa
:0401e000e803000030
:020000040000fa
:0401e400e80300002c
:020000040000fa
:0401e800e803000028
:020000040000fa
:0401ec00e803000024
:020000040000fa
:0401f000e803000020
:020000040000fa
:0401f400e80300001c
:020000040000fa
:0401f800e803000018
:020000040000fa
:0401fc00e803000014
:020000040000fa
:04020000e80300000f
:020000040000fa
:04020400e80300000b
:020000040000fa
:04020800e803000007
:020000040000fa
:04020c00e803000003
:020000040000fa
:04021000e8030000ff
:020000040000fa
:04021400e8030000fb
:020000040000fa
:04021800e8030000f7
:020000040000fa
:04021c00e8030000f3
:020000040000fa
:04022000e8030000ef
:020000040000fa
:04022400e8030000eb
:020000040000fa
:04022800e8030000e7
:020000040000fa
:04022c00e8030000e3
:020000040000fa
:04023000e8030000df
:020000040000fa
:04023400e8030000db
:020000040000fa
:04023800e8030000d7
:020000040000fa
:04023c00e8030000d3
:020000040000fa
:04024000e8030000cf
:020000040000fa
:04024400e8030000cb
:020000040000fa
:04024800e8030000c7
:020000040000fa
:04024c00e8030000c3
:020000040000fa
:04025000e8030000bf
:020000040000fa
:04025400e8030000bb
:020000040000fa
:04025800e8030000b7
:020000040000fa
:04025c00e8030000b3
:020000040000fa
:04026000e8030000af
:020000040000fa
:04026400e8030000ab
:020000040000fa
:04026800e8030000a7
:020000040000fa
:04026c00e8030000a3
:020000040000fa
:04027000e80300009f
:020000040000fa
:04027400e80300009b
:020000040000fa
:04027800e803000097
:020000040000fa
:04027c00e803000093
:020000040000fa
:04028000e80300008f
:020000040000fa
:10040000cf1c21000eff27000e0188000000000015
:10041000000020000000e000020032000001200087
:100420002002880014000700eb0007000000e00035
:1004300003003a00a07721000100200002003700ed
:100440000000200001002000810f70000100320038
:100450000f000700000020000000e0000200320052
:100460000000020000000000c007020000000000c1
:100470000040da000000fe00800020000000e000e4
:1004800002003200002020009001880000000600d9
:10049000a1028800800478000000eb001f003700f4
:1004a000e284440054a0b4009905ba00e2844400f8
:1004b00054a0b4009906ba00e284440054a0b400e9
:1004c0000006eb00476fde00fd07b200ae018800ba
:1004d000636ce10003003a000ad801000000eb0061
:1004e0000e003700606ce10008003a00004deb00a0
:1004f0000a05e800020039003420ec000af0a000f0
:100500008b05e900f9ff3e00040037006168e10057
:10051000010032000086eb000b00070019c7ba008b
:100520000e04e0001905ba0003003a000a00e000da
:10053000dbff3a0000000600fe07b200ae028800b2
:100540008a047800f5ff37000cd0a300e20f4d00bd
:100550001c00390089027800354dba000a05e80010
:10056000020039003420ec000af0a0008b05e900fd
:100570000f003200254dba000a05e80002003900dc
:100580003420ec000af0a0008b05e90008003200de
:100590000c00e0000600320015cdba000a05e800a4
:1005a000020039003420ec000af0a0008b05e900bd
:1005b0008984e80054a0b4000b00e000e2ff3a0098
:1005c000000006009902ba00055d78008b05e9007d
:1005d000f7ff3200c82ade00055d78008b05e900d0
:1005e000f3ff32000c00e000f1ff320019ddba0029
:1005f000eeff37000000fa000108a9000080fa00b1
:10060000004006003600f800809fbe00829fbe00ba
:10061000849fbe00869fbe000000fa000068a9000b
:100620006b070700b30907000080fa004f03be0004
:100630004f02be004f01be004f00be003600f90061
:10064000004006003600f800809fbe00829fbe007a
:10065000849fbe00869fbe000000fa000368a900c8
:10066000608080007180800061004000e080480070
:100670006080880071808800170307000080fa00fe
:100680004f03be004f02be004f01be004f00be0030
:100690003600f90000400600809fbe000000fa000e
:1006a00001a8a9000118800020002100010878009d
:1006b00011188000200021001100980021188000ee
:1006c0002000210021009800311880002000210026
:1006d000310098004118800020002100410098005e
:1006e00010c0b3000af0b7000080fa004f00be004f
:1006f000004006003600f800809fbe00829fbe00ca
:10070000849fbe00869fbe000000fa000188a900f9
:10071000a180800090808000808f50000200320015
:1007200015090700010037001670ef000080fa007d
:100730004f03be004f02be004f01be004f00be007f
:100740003600f900004006003600f800809fbe0029
:10075000829fbe00849fbe00869fbe000000fa00fc
:100760000168a90010118000640060000000e00032
:10077000010032002242a9001011800062006000d6
:100780000000e000060032002222a9000500370028
:100790003011800000407800660907000100370032
:1007a0000000000010118000610060000000e00007
:1007b000f7ff3a000080fa004f03be004f02be0070
:1007c0004f01be004f00be003600f9000040060099
:1007d0000040da000000fe000000050003f0a20067
:1007e000889fbe008a9fbe008c1f78002a010700e8
:1007f000310133006450e1004f0032006420e10019
:100800005200320003826c0007003b000905d00053
:100810000306d000820f54000c065d000200390070
:1008200002003200890178000306780085825500b5
:1008300004003d000003fd008103fd008502ea0085
:100840008b854200840f720002003b0060001000a4
:10085000e08018006011b8000005eb007a28e10084
:100860000a00390006007800c75ddd00f707b20016
:10087000878075002d003700828171000a017800a1
:10088000610560008180d1000080d3008502e9000d
:10089000f9ff3b00060440008784480002003b004b
:1008a00060041400e0841c000988a30007003200e3
:1008b0008a81710082817100610164008904d10024
:1008c0000884d3008b05e800170037000978a300df
:1008d00013003a000b00e000130034008b05e90020
:1008e0000804440089844c000a4474000978a30079
:1008f0000d003a000b00e000070034008b05e90012
:100900000804440089844c0001003a000b002000d8
:100910000978a300f7ff32000001eb000200370066
:10092000828171000a017800a00007000cf0a70086
:1009300001f0a000e90037006420e10002003a0065
:10094000838f6c00e90033000801be000200be0086
:10095000e2003700889fbe008a9fbe008c1f78008f
:10096000cd000700d400330003866c006450e10022
:100970002e0032006420e100330032006150e100bb
:100980002f0032006120e1003100320085855500e2
:10099000eb07b00009002000080420000500370024
:1009a0000804440089844c000a0031000603430017
:1009b00087834b000001530081815b00f8ff330007
:1009c0000203be000800a0000804440089844c0013
:1009d000f6ff3900c639dd008301730001003200e3
:1009e000130020008904d1000884d3000998a300d3
:1009f000050032000800a7000300a0008904d10010
:100a00000884d3008b05e8008904d1000884d30052
:100a10000001eb000281d2006400070001f0a10098
:100a20000cf0a70001f0a000ac0037006420e1004a
:100a3000ae0032000801be000200be00f7ff370022
:100a40006120e100a90032006000b800f3ff370028
:100a50000000200001f82700f0ff3700839f6800a6
:100a60000100e00002003d0060001000e08018007e
:100a70000300e00002003d0060011100e081190068
:100a8000d10007004f00e00002003b0060001000b2
:100a9000e08018000000060014002000da00370093
:100aa000f4ff2f00d80037000001be0065000700ea
:100ab0000470a70003f0a1006509b1001600320020
:100ac0000d0035006828e10006003500f0ff2f001a
:100ad000f1ff27000300e00013003b0001002800a5
:100ae0000000050000004000818048008502e90008
:100af000fcff3a0008003700f88f420002003c007b
:100b00008000eb00000005008100d1000080d300d0
:100b10008502e800fcff3a000300e00002003b0011
:100b200060001000e0801800000006000001be0018
:100b3000440007000470a70003f0a10003f8a3001d
:100b400013003a006509b1001000320009003500b9
:100b50006928e100020035000100280000000500be
:100b600000004000818048008502e900fcff3a0057
:100b700000000600f88f4200050035008100d1001a
:100b80000080d3008502e800fcff3a000000060068
:100b90008000eb00000005004f89de008201780034
:100ba000b40037006011b800c20037008100200097
:100bb000618055000b003d000b00200061fe2f00fe
:100bc0000100e1001d0034008281710061016400b8
:100bd0008904d1000884d3000000e800faff3a003d
:100be00071002000610064000300700002006000da
:100bf0000900320061044400e0844c000988a5002b
:100c0000050032008b05e8006808e10002003a00a8
:100c10008904d1000884d300f20f20000258e100bb
:100c200005003d00c75ddd00f907b2008980750051
:100c300008007800000006000bf827008b00780001
:100c400000000500c70ade00f107b200f50fb20090
:100c500008003200e1cf4200020032000170a00023
:100c600024000500810f7000010032000408050017
:100c700044000500810f700002003a0014000500d6
:100c80008502e9000000400081c04800fcff3b00f5
:100c90000170a000240005000004be00e9ff070069
:100ca0000003be000405be000200be00e5ff070011
:100cb000844f7500000006000200be006450e10091
:100cc000050036006420e100020036000968a30038
:100cd00001003a000800be000160a0004f06780045
:100ce0004f05be004f04be0000000600f0ff2f00bd
:100cf000f1ff2700f9ff3700889fbe008a9fbe00e2
:100d00008c1f7800e4ff0700ebff330003866c00c4
:100d10006450e100240032006420e100270032002a
:100d20006150e100220032006120e1002100320028
:100d30008b854200eb07b1000134b800003ab800df
:100d40000804420089844a00013ab8000030b80023
:100d50008880400009014a00040033000000400080
:100d600081804800020149008b05e900c909dd00c6
:100d7000830170000100320013002000c814de005f
:100d80004814dd004709de001200b200c808de008a
:100d90000884700085ff070001f0a1000cf0a70097
:100da00001f0a000cdff37006120e100cfff32004d
:100db0000801be000200be00f7ff37006150e100ed
:100dc000fcff3a00c9ff37006022b800060220008d
:100dd0000000d0008180d2000482d2008582d2003f
:100de0000000a0000202520083825a00030031007a
:100df0000202420083824a000000a1000603e900cb
:100e0000f3ff3a0000000600889fbe008a9fbe00e4
:100e1000841f7800a0ff07004f0078001100330006
:100e2000f0ff2f00838f6c0006003b000405650077
:100e30000a00a7000800370009f0a60010002000f3
:100e400008003700820f5400838f5c0003003900d4
:100e50001000200001003e000000200009f0a70063
:100e60000000ea004f05be004f04be000000e00095
:100e700000000600881f7800030478000300e000eb
:100e800007003d0060001000e080180060011900bc
:100e9000e081190002003b0001f02d000300370043
:100ea0000400070008f0a70001f0a0004f0478003c
:100eb00000000600889fbe008a9fbe00008270006e
:100ec0000402710004827100260032000004be009a
:100ed0000200be006011b8006b09200095022000de
:100ee0000182cf000a0039000541b1000082cf0025
:100ef000070039000541b1000982cf000400390024
:100f00000541b1000882cf00010039000541b10060
:100f100005425200120032000a003b00828171003b
:100f2000610164008100d1000080d3008984d30076
:100f30000884d3008b05e8000442e800f7ff3a007c
:100f4000070037000804440089844c000000480072
:100f5000818048008b05e9000442e900f9ff3a006e
:100f600012ff07004f05be004f04be000000060040
:020000040000fa
:100f7000426f00006e6a00006f7500007200000092
:020000040000fa
:100f80001000fa00881f7800af070700fc07070071
:100f9000ae030700e0030700dd0407001b0707009e
:100fa0005c04070011080700010037000000000082
:100fb000540707001007980056070700e14f50003c
:100fc000faff3a00570707001e0090000080e80073
:100fd000100078008000eb00f2fe0700323323009f
:100fe0003305240044ff07000200200003582400ba
:100ff00058fe0700d2cc2c00c30424003eff07009b
:1010000020079800310798002e019000be01900043
:1010100000002000812024004efe07000200200076
:10102000030a2400edfd0700e08d8800f18d8800a3
:101030001e00900064004000100078008000eb006b
:10104000d8fe070032332300330524002aff0700af
:1010500002002000035824003efe0700d2cc2c00e2
:10106000c304240024ff07002007980031079800dc
:101070002e019000be01900000002000812024007d
:1010800034fe070002002000030a2400d3fd0700fd
:10109000008e8800118e88001e00900068004000bd
:1010a000100078008000eb00befe07003233230002
:1010b0003305240010ff070002002000035824001d
:1010c00024fe0700d2cc2c00c30424000aff070032
:1010d00020079800310798002e019000be01900073
:1010e00000002000812024001afe070002002000da
:1010f000030a2400b9fd0700208e8800318e880085
:101100001e00900066004000100078008000eb0098
:10111000a4fe07003233230033052400f6fe070047
:1011200002002000035824000afe0700d2cc2c0045
:10113000c3042400f0fe0700200798003107980040
:101140002e019000be0190000000200081202400ac
:1011500000fe070002002000030a24009ffd070094
:10116000408e8800518e88001e009000100078008c
:101170008000eb008bfe0700323323003305240090
:10118000ddfe07000200200003582400f1fd0700e7
:10119000d2cc2c00c3042400d7fe070020079800ff
:1011a000310798002e019000be0190000000200041
:1011b00081202400e7fd070002002000030a24002c
:1011c00086fd0700c08d8800d18d8800c08d80000d
:1011d000d18d800018c0b30002002000031a240043
:1011e0002dfe07000000e000010035000044eb0088
:1011f0000804e00002003200254ea800010037007c
:10120000254ea900008e8000118e800018c0b3000a
:1012100002002000031a24001ffe07000000e00067
:10122000010035000044eb000804e0000200320039
:1012300064eea8000100370064eea900408e800033
:10124000518e800018c0b30002002000031a240051
:1012500011fe07000000e000010035000044eb0033
:101260000804e0000200320064cea800010037004c
:1012700064cea9000000eb00000f780006003700e4
:10128000bf060700704f98006f0047001100200054
:10129000fd0507001e0fe800da0607009e0f50004c
:1012a000f7ff3c0000a8210061002000670707004d
:1012b000e8004700827b280006000900b258780049
:1012c000680047000001780071002000000820003d
:1012d000a105070036ff37000000fa0022d0bf004a
:1012e0000080fb00cf80de005201200003002000c0
:1012f000820f5000838f5800a7003e0000060100b7
:10130000150037001e003700270037003100370076
:10131000320037003c0037003d00370047003700ff
:101320004800370052003700530037005d00370097
:101330009900370098003700830037008d00370090
:101340005a00370064003700650037006f0037002f
:10135000700037007a0037000c30ef000e30ef00dd
:101360000041eb006000b8000504070012c0b300a4
:101370006000b8000204070010c0b30022f0b700fc
:101380006280800073808000803e20000100200089
:10139000800f5100818f59008200360020c0b300b9
:1013a00022f0b700820037000041eb00000020006f
:1013b000811c2c00f203070012c0b30000002000c3
:1013c000811c2400ee03070030c0b30022f0b700f8
:1013d0007700370078000700750037000041eb0008
:1013e00000002000011a2c00e503070012c0b30022
:1013f00000002000010a2c00e103070050c0b300e8
:1014000022f0b7006a0037006b0007006800370061
:101410000041eb0000002000010a2400d80307006f
:1014200012c0b30000002000011a2400d4030700fa
:1014300070c0b30022f0b7005d0037005e00070007
:101440005b0037000041eb000000200001172c007a
:10145000cb03070012c0b3000000200001172c00ce
:10146000c703070090c0b30022f0b7005000370058
:10147000510007004e0037000041eb000000200043
:1014800001172400be03070012c0b30000002000b3
:1014900001172400ba030700b0c0b30022f0b70060
:1014a0004300370044000700410037000041eb00d3
:1014b0000000200001172c00b103070012c0b30088
:1014c0000000200001172400ad03070010c1b30085
:1014d00022f0b7003600370037000700340037002d
:1014e0000041eb000000200001122c00a4030700c3
:1014f00012c0b30000002000011a2400a00307005e
:1015000030c1b30022f0b700290037002a000700dd
:10151000270037000041eb0000002000011a2c00da
:101520009703070012c0b30000002000011224003e
:101530009303070050c1b30022f0b7001c0037002e
:101540001d0007001a0037000041eb0000002000da
:10155000011224008a03070012c0b300000020001b
:1015600001122c0086030700f0c0b30022f0b70080
:101570000f0037006280800073808000803e200072
:1015800001002000800f5100818f590007003600b4
:1015900009000700060037002270ef00000000007d
:1015a00003003700000000000100370000000000c9
:1015b0000080fa00000006000200fa00881f780090
:1015c0000040eb00004f7800e08d8000f18d80003e
:1015d00018c0b30002002000031a24002efd0700eb
:1015e0000000e000010035000044eb000804e000ca
:1015f0002f003200008e8000118e800018c0b300d2
:1016000002002000031a240023fd07000000e00070
:10161000010035000044eb000804e0002400320023
:10162000208e8000318e800018c0b30002002000a0
:10163000031a240018fd07000000e0000100350037
:101640000044eb000804e00019003200c08d800067
:10165000d18d800018c0b30002002000031a2400be
:101660000dfd07000000e000010035000044eb0024
:101670000804e0000e003200408e8000518e800091
:1016800018c0b30002002000031a240002fd070066
:101690000000e000010035000044eb000804e00019
:1016a0000300320080c0b300004f7800880137008b
:1016b000e08d8000f18d800018c0b3000200200092
:1016c000031a2400f4fc07000000e00001003500cc
:1016d0000044eb000804e00019003200008e800096
:1016e000118e800018c0b30002002000031a2400ed
:1016f000e9fc07000000e000010035000044eb00b9
:101700000804e0000e003200208e8000318e800040
:1017100018c0b30002002000031a2400defc0700fa
:101720000000e000010035000044eb000804e00088
:1017300003003200c0c0b300004f780064013700de
:10174000e08d8000f18d800018c0b3000200200001
:10175000031a2400d2fc07000000e00001003c0056
:101760000044eb000804e0002f003200008e8000ef
:10177000118e800018c0b30002002000031f240057
:10178000c7fc07000000e00001003c000044eb0043
:101790000804e00024003200208e8000318e80009a
:1017a00018c0b30002002000031a2400bcfc07008c
:1017b0000000e00001003c000044eb000804e000f1
:1017c00019003200c08d8000d18d800018c0b30098
:1017d0000200200003122400affc07000000e0001c
:1017e000010035000044eb000804e0000e00320068
:1017f000408e8000518e800018c0b300020020008f
:1018000003122400a4fc07000000e00001003500e2
:101810000044eb000804e00003003200d0c0b30035
:10182000004f78002a013700e08d8000f18d8000a4
:1018300018c0b300020020000312240096fc070029
:101840000000e000010035000044eb000804e00067
:1018500019003200008e8000118e800018c0b30085
:1018600002002000031f24008dfc07000000e000a0
:1018700001003c000044eb000804e0000e003200d0
:10188000208e8000318e800018c0b300020020003e
:101890000312240080fc07000000e0000100350076
:1018a0000044eb000804e0000300320040c0b30035
:1018b000004f780006013700e08d8000f18d800038
:1018c00018c0b30002002000031f240072fc0700b0
:1018d0000000e000010035000044eb000804e000d7
:1018e00019003200008e8000118e800018c0b300f5
:1018f00002002000031f240069fc07000000e00034
:1019000001003c000044eb000804e0000e0032003f
:10191000208e8000318e800018c0b30002002000ad
:10192000031f24005efc07000000e00001003c00f3
:101930000044eb000804e0000300320020c0b300c4
:10194000004f7800e2003700e08d8000f18d8000cc
:1019500018c0b30002002000031f240050fc070041
:101960000000e00001003c000044eb000804e0003f
:1019700019003200008e8000118e800018c0b30064
:1019800002002000031f240045fc07000000e000c7
:1019900001003c000044eb000804e0000e003200af
:1019a000208e8000318e800018c0b300020020001d
:1019b000031f240038fc07000000e0000100350090
:1019c0000044eb000804e0000300320010c0b30044
:1019d000004f7800be003700008e8000118e80001e
:1019e00018c0b30002002000031a24002afc0700dc
:1019f0000000e000010035000044eb000804e000b6
:101a00000300320060c0b300004f7800b000370020
:101a1000008e8000118e800018c0b30002002000ec
:101a2000831c24001cfc07000000e00001003500be
:101a30000044eb000804e0000e003200008e80003d
:101a4000118e800018c0b30002002000031a240089
:101a500013fc07000000e00001003c000044eb0024
:101a60000804e0000300320070c0b300004f7800ab
:101a700097003700e08d8000f18d800018c0b30022
:101a800002002000031f240005fc07000000e00006
:101a900001003c000044eb000804e0002f0032008d
:101aa000008e8000118e800018c0b300020020005c
:101ab000031f2400fafb07000000e00001003c00c7
:101ac0000044eb000804e00024003200208e800077
:101ad000318e800018c0b30002002000031f2400d4
:101ae000effb07000000e00001003c000044eb00b9
:101af0000804e00019003200c08d8000d18d800004
:101b000018c0b30002002000031a2400e2fb070003
:101b10000000e000010035000044eb000804e00094
:101b20000e003200408e8000518e800018c0b3003d
:101b300002002000031f2400d9fb07000000e00082
:101b400001003c000044eb000804e0000300320008
:101b5000e0c0b300004f78005d003700e08d8000ea
:101b6000f18d800018c0b30002002000031f240084
:101b7000cbfb07000000e00001003c000044eb004c
:101b80000804e0002f003200008e8000118e8000db
:101b900018c0b30002002000031f2400c0fb070090
:101ba0000000e00001003c000044eb000804e000fd
:101bb00024003200208e8000318e800018c0b300d7
:101bc00002002000031f2400b5fb07000000e00016
:101bd00001003c000044eb000804e0001900320062
:101be000c08d8000d18d800018c0b300020020009d
:101bf000031f2400aafb07000000e00001003c00d6
:101c00000044eb000804e0000e003200408e80002b
:101c1000518e800018c0b30002002000031a240077
:101c20009dfb07000000e000010035000044eb00d0
:101c30000804e00003003200f0c0b300004f780059
:101c400023003700e08d8000f18d800018c0b300c4
:101c500002002000031f240091fb07000000e000a9
:101c600001003c000044eb000804e00018003200d2
:101c7000008e8000118e800018c0b300020020008a
:101c8000031f240086fb07000000e00001003c0069
:101c90000044eb000804e0000d003200208e8000bc
:101ca000318e800018c0b30002002000031f240002
:101cb0007bfb07000000e00001003c000044eb005b
:101cc0000804e000020032000040eb00004f780002
:101cd0001e407800e84f500003003a00e0c0b30017
:101ce00023f0b7004d0037001e407800ea4f500047
:101cf00003003a0080c0b30023f0b700470037006c
:101d00001e407800eb4f500003003a0080c0b30043
:101d100023f0b700410037001e407800ec4f500020
:101d200003003a0080c0b30023f0b7003b00370047
:101d30001e407800ed4f500003003a0000c1b30090
:101d400023f0b700350037001e407800e44f500004
:101d500003003a0080c0b30023f0b7002f00370023
:101d60001e407800e34f500003003a0000c1b3006a
:101d700023f0b700290037001e407800e24f5000e2
:101d800003003a0040c0b30023f0b700230037003f
:101d90001e407800e14f500003003a0060c0b300dd
:101da00023f0b7001d0037001e407800e64f5000ba
:101db00003003a0080c0b30023f0b70017003700db
:101dc0001e407800e74f500003003a0000c1b30006
:101dd00023f0b700110037001e407800ee4f50008e
:101de00003003a0040c1b30023f0b7000b003700f6
:101df0001e407800ef4f500003003a0020c1b300ae
:101e000023f0b700050037001e4078000004e00012
:101e100002003a0020c0b30023f0b70023d0bf0077
:101e20008080fb0022d0bf000080fb000000e900a2
:101e3000808f50000200320023d0bf0022f0b70094
:101e40004f0478000080fa00000006000400fa0049
:101e500013e1a90011e1a9001061a8001021a90057
:101e600081088000f0fc2f0000806000800888005e
:101e70000a21ef000621ef00404c20007008880086
:101e800000402b0060088800800880004400de00cd
:101e9000634060000081fb008001eb00700880005f
:101ea0008000eb00c002dd0004002000600880001c
:101eb0008000eb000400400085804800809ab90053
:101ec000828bb90086027800050242000010b8003b
:101ed00001024200840078000001be0000a025003d
:101ee00021262000ddfa07002bfb0700008fbe0033
:101ef0002142800080ff2f00008060000000a000d1
:101f0000204288000108a9002108a80011e1a800ca
:101f10000080fa00000006000000fa0005e1a900b8
:101f20000421a90000002000812c240005000700e6
:101f30000068a9002068a80005e1a8000080fa0058
:101f4000000006000400fa00881f7800008fbe0021
:101f500021088000f0fc2f0000806000200888002d
:101f60001e0178009e0190000068290081c12400b4
:101f700078fa070018c0b30002f02f00f3772400ae
:101f8000c7fa07000000e00001003c000044eb003d
:101f90000804e0005400320021088000f0fc2f000b
:101fa000008060000040a000200888001e0178002a
:101fb0009e0190000068290081c1240065fa070095
:101fc000020020000310240062fa070018c0b300ca
:101fd00002f02f00f3772400b1fa07000000e000c0
:101fe00001003c000044eb000804e0003200320035
:101ff00021088000f0fc2f00008060000050a0004d
:10200000200888001e0178009e01900000682900c9
:1020100081c124004ffa0700020020000328240099
:102020004cfa070018c0b30002f02f00f377240029
:102030009bfa07000000e00001003c000044eb00b8
:102040000804e00010003200210880000003200096
:1020500001007000200888001e0178009e01900099
:102060000068290081c124003afa0700020020001c
:102070000338240037fa07008bfa070000007800c5
:1020800010088800200037001e0178009e01900093
:102090000068290081c124002efa070002002000f8
:1020a000032824002bfa07007ffa070000007800bd
:1020b00010088800140037001e0178009e0190006f
:1020c0000068290081c1240022fa070002002000d4
:1020d000031024001ffa070073fa070000007800bd
:1020e00010088800080037001e0178009e0190004b
:1020f0000068290081c1240016fa07006afa070067
:1021000000007800100888004f0478000080fa0072
:10211000000006000000fa0000002000a147240093
:10212000070007001fe1a9001e21a9000368a900fc
:102130002368a8001fe1a8000080fa000000060044
:102140000400fa00881f7800008fbe00f1088000ac
:10215000f0fc2f0000806000f00888001e0178006d
:102160009e0190000068290081c12400f9f9070050
:1021700018c0b30002f02f00f377240048fa0700dc
:102180000000e00001003c000044eb000804e00017
:1021900054003200f1088000f0fc2f000080600045
:1021a0000040a000f00888001e0178009e01900009
:1021b0000068290081c12400e6f907000200200020
:1021c00003102400e3f9070018c0b30002f02f0049
:1021d000f377240032fa07000000e00001003c0021
:1021e0000044eb000804e00032003200f1088000f7
:1021f000f0fc2f00008060000050a000f008880074
:102200001e0178009e0190000068290081c1240011
:10221000d0f907000200200003282400cdf90700b0
:1022200018c0b30002f02f00f37724001cfa070057
:102230000000e00001003c000044eb000804e00066
:1022400010003200f108800000032000010070003f
:10225000f00888001e0178009e01900000682900a7
:1022600081c12400bbf907000200200003382400cc
:10227000b8f907000cfa070000007800d0088800c1
:10228000200037001e0178009e01900000682900a0
:1022900081c12400aff907000200200003282400b8
:1022a000acf9070000fa070000007800d0088800a9
:1022b000140037001e0178009e019000006829007c
:1022c00081c12400a3f907000200200003102400ac
:1022d000a0f90700f4f9070000007800d008880092
:1022e000080037001e0178009e0190000068290058
:1022f00081c1240097f90700ebf90700000078007e
:10230000d00888004f0478000080fa000000060022
:102310000000fa001160800080ff2f000080600044
:102320001060880000fa20002060880023aca8001c
:10233000238ca80011618000f03f2f000080600016
:1023400000a0a000106188003000200020618800fb
:10235000c3aca800c38ca80011668000f03f2f001a
:102360000080600000a0a0001066880030002000ff
:102370002066880001eca8000080fa00000006003a
:102380000600fa00008fbe00424798004e409000c1
:102390000004e00005003a001e0178009e01900054
:1023a000828d8800938d8800070037004e40900092
:1023b000e14f500004003a001e0178009e01900099
:1023c000428d8800538d88000080fa0000000600ce
:1023d0000000fa00889fbe008a9fbe00a48d800086
:1023e000b58d8000808d8000918d800018c0b30075
:1023f0000001be000400be00a7f907000000e000d5
:10240000010035000044eb000804e0000f0032003a
:10241000888d8000998d8000aa8d8000bb8d800002
:1024200024d0bf000080fb00cf80de00daf9070077
:102430000001be000a00be00e9f807000801be0066
:10244000bc000700a08d8800b18d8800a48d80009d
:10245000b58d8000808d8000918d800018c0b30004
:102460000001be000400be008df907000000e0007e
:1024700001003c000044eb000804e0000f003200c3
:10248000888d8000998d8000aa8d8000bb8d800092
:1024900024d0bf000080fb00cf80de00bef9070023
:1024a0000001be000a00be00ccf807000801be0013
:1024b00088000700a08d8800b18d8800a08d800065
:1024c000b18d800018c0b3006011b80074f9070026
:1024d0000000e00001003c000044eb000804e000c4
:1024e00004003200c3cca90024eea800c3eca8006d
:1024f00003003700c3eca90024cea800c3cca80079
:10250000a08d8000b18d80005c00070002002000db
:1025100003222400f8f9070084f90700000078007e
:1025200030668800648d8000758d8000408d80004d
:10253000518d800018c0b3000001be000400be0031
:1025400055f907000000e000010035000044eb00f1
:102550000804e0000f003200488d8000598d800093
:102560006a8d80007b8d800024d0bf000080fb003e
:10257000cf80de0088f907000001be000a00be001f
:1025800097f807000801be006a000700608d880008
:10259000718d8800648d8000758d8000408d800075
:1025a000518d800018c0b3000001be000400be00c1
:1025b0003bf907000000e00001003c000044eb0094
:1025c0000804e0000f003200488d8000598d800023
:1025d0006a8d80007b8d800024d0bf000080fb00ce
:1025e000cf80de006cf907000001be000a00be00cb
:1025f0007af807000801be0036000700608d8800e9
:10260000718d8800608d8000718d800018c0b300ce
:102610006011b80022f907000000e00001003c0052
:102620000044eb000804e0000400320023cca900c1
:1026300015eea80023eca8000300370023eca90046
:1026400015cea80023cca800608d8000718d80007d
:102650000a0007000200200003222400a6f9070058
:1026600032f9070000007800306188004f05be0095
:102670004f04be000080fa00000006000400fa00cb
:10268000881f7800008fbe0018c0b3006011b8002a
:102690001e0078009e00900001f907000000e00095
:1026a00001003d000044eb000804e000030032009c
:1026b0001e0078009e009000030037001e00780086
:1026c0009e00900001f0a2004f0478000080fa0004
:1026d000000006000800fa00881f7800008fbe0086
:1026e000220798003307980018c0b3002e0190000d
:1026f000be0190001e0078009e009000e8f80700e0
:102700000000e00001003c000044eb000804e00091
:10271000030032001e0078009e0090000200370087
:102720002e009000be0090004f0478000080fa0058
:10273000000006000800fa00881f7800008fbe0025
:10274000220798003307980018c0b3002e019000ac
:10275000be0190001e0078009e009000cef8070099
:102760000000e000010035000044eb000804e00038
:10277000030032001e0078009e0090000200370027
:102780002e009000be0090004f0478000080fa00f8
:10279000000006000c00fa00881f7800008fbe00c1
:1027a00022079800330798004407980055079800bf
:1027b00018c0b3004e019000de0190001e007800aa
:1027c0009e009000b6f807000000e00001003c0009
:1027d0000044eb000804e000040032004e019000c9
:1027e000de019000028fbe000e00370018c0b3005b
:1027f0002e019000be0190001e0078009e00900007
:10280000a5f807000000e000010035000044eb00df
:102810000804e000030032002e019000be01900089
:10282000028fbe001e0078009e0090004f047800ca
:102830000080fa00000006000400fa00008fbe00cd
:10284000b2fd2000930424001e0078009e0090003a
:1028500040f80700020020004333240026f9070057
:102860000080fa00000006000400fa00008fbe009d
:10287000b2fd2000930424001e0078009e0090000a
:102880001df90700020020004333240031f807003f
:102890000080fa00000006000a00fa0020079800f5
:1028a0003107980042079800e0cfb300004f78004e
:1028b0002e0090004880de00804078001e407800a6
:1028c00000c06800004f78002e0090008040780023
:1028d0001e40780000c06800004f78003e00900065
:1028e0004880de00804078001e40780000c068000c
:1028f000004f78003e009000804078001e40780035
:1029000000c06800004f78000000eb00100798003e
:102910000000eb0010079800080037001e00900030
:10292000ce00900000804000104078001e4f6800ec
:102930001e0090000000e800100798009e00900024
:102940003e009000808f5000f4ff35001e4078005c
:102950000080fa00000006000e00fa004007980010
:1029600051079800620798006e019000de00900009
:102970004e009000c8ff0700404798000000eb00a1
:10298000000f78001e007800be009000008040001c
:10299000e1cfb300014878001e0fe8001e00780068
:1029a000be00900000804000ce009000c888de008d
:1029b00081407800014878001e0fe8001e00780072
:1029c000be00900000804000ce0090008140780062
:1029d000014878001e0fe8001e007800be0090003d
:1029e00000804000de009000c888de008140780052
:1029f000014878001e0fe8001e007800be0090001d
:102a000000804000de00900081407800014878009e
:102a10001e0fe8000000eb00100798000000eb001c
:102a2000100798000c0037001e007800be009000d0
:102a3000008040009e0090006e01900081004100e7
:102a400091407800014878001e0fe8001e009000b9
:102a50000000e800100798009e0090005e009000c3
:102a6000808f5000f0ff35001e007800be009000ff
:102a700000804000ce409000014878001e0fe80022
:102a80000080fa00000006000600fa001007980017
:102a9000210798000040eb00004f78005400070029
:102aa000ae009000810f5000110034000040eb0098
:102ab000004f7800060037001e80fb009e0090004b
:102ac00000804000104078000b0007001e4fe80017
:102ad0009e80fb002e009000808f5000f6ff350096
:102ae0002e0007000004e00001003a002200070069
:102af0000080fa00000006000200fa00004f780093
:102b00009080800061022100008040001e48780013
:102b1000908080000000e800908088009180800014
:102b2000f0072000808f5000010034001230ef00c9
:102b30000080fa00000006000200fa00a080800079
:102b40006102210000804000104f7800a0808000ca
:102b50000000e800a0808800a1808000f00720002d
:102b6000808f5000010034001430ef001e407800c8
:102b70000080fa00000006000200fa0010c0b30056
:102b800016f0b700ecff0700004f78001e80fb0036
:102b9000201188000080fa00000006000000fa0002
:102ba00016d0bf000080fa00000006000200fa0004
:102bb00091808000a0808000808f5000040035004c
:102bc00091808000a0808000008f500005003700b9
:102bd00091808000a08080000080500001082000cb
:102be000010f40001e0078000080fa00000006007f
:102bf0000200fa00edff070001082000008f5000de
:102c00001e0078000080fa00000006000000fa00b4
:102c100021e3a9002143a80001198000f0cf2f0073
:102c200000806000001988002043a900011980007d
:102c3000000e2000010070000019880011198000aa
:102c4000f0ff210000806000101988002343a800d5
:102c500011198000f0cf2f0000806000101988004b
:102c60001119800030f82f00008060000040a000a3
:102c7000101988002203a9002223a90025e3a90036
:102c8000f0c0b30024e3b70021198000f00f2e003c
:102c90008080600000f02000010070002019880092
:102ca0003303a9002e0ea8002f6ea8006f2ea800d7
:102cb0001e2ea8004feea80030c3a8003163a80064
:102cc0002e03a8003063a80031e3a800411980005a
:102cd00000fc2f00008060004019880028e3a90054
:102ce00001a8a90021a8a80021e3a8000080fa00fb
:102cf000000006000000fa002023a8000080fa006f
:102d0000000006000000fa00200021000080fa0008
:102d1000000006000000fa000ad0bf000080fa00a0
:102d2000000006000000fa000a70ef000080fa00c0
:102d3000000006000200fa00004f78002a00070099
:102d40000000e0000c003400f0808000610a2100e7
:102d5000008040001e487800f08080000000e800fd
:102d6000f0808800f180800000082000808f5000f3
:102d7000010034001e30ef000080fa000000060061
:102d80000200fa0000818000610a210000804000fa
:102d9000104f7800008180000000e800008188006a
:102da0000181800000082000808f50000100340065
:102db0002030ef001e4078000080fa00000006007e
:102dc0000000fa00f180800000818000808f5000b8
:102dd0000200320010c0b300010037000040eb00d9
:102de0000080fa00000006000200fa00050007005b
:102df00001082000008f50001e0078000080fa00bb
:102e0000000006000200fa00f180800000818000ce
:102e1000808f500004003500f18080000081800028
:102e2000008f500005003700f18080000081800095
:102e30000080500001082000010f40001e007800b3
:102e40000080fa00000006000000fa00f0032000f5
:102e5000303a8800213a8000f0f32f0000806000b3
:102e6000203a8800213a800000fe2f000080600098
:102e70000000a000203a88001200200080072000f7
:102e8000a10920003374200080497800814978002e
:102e900082497800103a8000000178000200a0000a
:102ea0006004200071052000237420008049780010
:102eb000814978008249780000000000113a8000c2
:102ec000000027008080600000002100808f5000fb
:102ed000faff3a0000000000113a800000022000d2
:102ee000008060000000e000fbff32000080fa007c
:042ef00000000600d8
:020000040000fa
:102ef4002210000002000000800000000c100000fe
:102f04000600000080000000a6110000260000005a
:102f14008000000024100000020000008200000075
:102f240007000000001000000c00000080000000fa
:102f34002610000080000000800000001210000035
:102f44000600000080000000a610000080000000c1
:102f5400800000001e10000004000000800000003b
:102f640026110000800000008000000018100000fe
:0c2f7400060000008000000000000000cb
:020000040000fa
:102f80000000fa000e2eef001e2eef002e2eef0096
:102f90003e2eef004e2eef005e2eef006e2eef0065
:102fa000214ea90060cea90060eea90011cea900b3
:102fb00011eea90020cea90020eea9002136800044
:102fc00000f82f00008060008001b30020368800e8
:102fd0001134800000fc2f00008060000000a00081
:102fe000103488000080fa00000006000000fa009b
:102ff0002002a9000111800090ff2f0000806000d6
:103000000011880020a2a9002062a800500520001d
:103010004011880023a2a90023e2a9000188a90089
:103020002188a80011118000f0f32f0000806000bb
:10303000101188000168a9002168a80021e2a800f9
:0c3040002342a8000080fa0000000600f7
:020000040000fa
:10304c00f03fb1000180b10006003500ee0309002d
:10305c0000000000403fb1000180b100fbff3d00cb
:10306c001000b000203fb0000200350000800900c5
:08307c00000000000000060046
:020000040000fa
:02000004000af0
:04afe000cfff00009f
:020000040000fa
:02000004000af0
:04afe400ffff00006b
:020000040000fa
:02000004000af0
:04afe8007fff0000e7
:020000040000fa
:02000004000af0
:04afec005fff000003
:020000040000fa
:02000004000af0
:04aff00038ff000026
:020000040000fa
:02000004000af0
:04aff400ffff00005b
:00000001FF
