:020000040000fa
:080000000002040000000000f2
:020000040000fa
:04000800e803000009
:020000040000fa
:04000c00e803000005
:020000040000fa
:04001000e803000001
:020000040000fa
:04001400e8030000fd
:020000040000fa
:04001800e8030000f9
:020000040000fa
:04001c00e8030000f5
:020000040000fa
:04002000e8030000f1
:020000040000fa
:04002400e8030000ed
:020000040000fa
:04002800e8030000e9
:020000040000fa
:04002c00e8030000e5
:020000040000fa
:04003000e8030000e1
:020000040000fa
:0400340002030000c3
:020000040000fa
:04003800e8030000d9
:020000040000fa
:04003c00e8030000d5
:020000040000fa
:04004000e8030000d1
:020000040000fa
:04004400e8030000cd
:020000040000fa
:04004800fa020000b8
:020000040000fa
:04004c00e8030000c5
:020000040000fa
:04005000e8030000c1
:020000040000fa
:04005400a403000001
:020000040000fa
:040058007a03000027
:020000040000fa
:04005c004c03000051
:020000040000fa
:04006000e8030000b1
:020000040000fa
:04006400e8030000ad
:020000040000fa
:04006800e8030000a9
:020000040000fa
:04006c00e8030000a5
:020000040000fa
:04007000e8030000a1
:020000040000fa
:04007400e80300009d
:020000040000fa
:04007800e803000099
:020000040000fa
:04007c00e803000095
:020000040000fa
:04008000e803000091
:020000040000fa
:04008400e80300008d
:020000040000fa
:04008800e803000089
:020000040000fa
:04008c00e803000085
:020000040000fa
:04009000e803000081
:020000040000fa
:040094002203000043
:020000040000fa
:04009800e803000079
:020000040000fa
:04009c00e803000075
:020000040000fa
:0400a000e803000071
:020000040000fa
:0400a400e80300006d
:020000040000fa
:0400a800e803000069
:020000040000fa
:0400ac00e803000065
:020000040000fa
:0400b000e803000061
:020000040000fa
:0400b400e80300005d
:020000040000fa
:0400b800e803000059
:020000040000fa
:0400bc00e803000055
:020000040000fa
:0400c000e803000051
:020000040000fa
:0400c400e80300004d
:020000040000fa
:0400c800e803000049
:020000040000fa
:0400cc00e803000045
:020000040000fa
:0400d000e803000041
:020000040000fa
:0400d400e80300003d
:020000040000fa
:0400d800e803000039
:020000040000fa
:0400dc00e803000035
:020000040000fa
:0400e000e803000031
:020000040000fa
:0400e400e80300002d
:020000040000fa
:0400e800e803000029
:020000040000fa
:0400ec00e803000025
:020000040000fa
:0400f000e803000021
:020000040000fa
:0400f400e80300001d
:020000040000fa
:0400f800e803000019
:020000040000fa
:0400fc00e803000015
:020000040000fa
:04010000e803000010
:020000040000fa
:04010400e80300000c
:020000040000fa
:04010800e803000008
:020000040000fa
:04010c00e803000004
:020000040000fa
:04011000e803000000
:020000040000fa
:04011400e8030000fc
:020000040000fa
:04011800e8030000f8
:020000040000fa
:04011c00e8030000f4
:020000040000fa
:04012000e8030000f0
:020000040000fa
:04012400e8030000ec
:020000040000fa
:04012800e8030000e8
:020000040000fa
:04012c00e8030000e4
:020000040000fa
:04013000e8030000e0
:020000040000fa
:04013400e8030000dc
:020000040000fa
:04013800e8030000d8
:020000040000fa
:04013c00e8030000d4
:020000040000fa
:04014000e8030000d0
:020000040000fa
:04014400e8030000cc
:020000040000fa
:04014800e8030000c8
:020000040000fa
:04014c00e8030000c4
:020000040000fa
:04015000e8030000c0
:020000040000fa
:04015400e8030000bc
:020000040000fa
:04015800e8030000b8
:020000040000fa
:04015c00e8030000b4
:020000040000fa
:04016000e8030000b0
:020000040000fa
:04016400e8030000ac
:020000040000fa
:04016800e8030000a8
:020000040000fa
:04016c00e8030000a4
:020000040000fa
:04017000e8030000a0
:020000040000fa
:04017400e80300009c
:020000040000fa
:04017800e803000098
:020000040000fa
:04017c00e803000094
:020000040000fa
:04018000e803000090
:020000040000fa
:04018400e80300008c
:020000040000fa
:04018800e803000088
:020000040000fa
:04018c00e803000084
:020000040000fa
:04019000e803000080
:020000040000fa
:04019400e80300007c
:020000040000fa
:04019800e803000078
:020000040000fa
:04019c00e803000074
:020000040000fa
:0401a000e803000070
:020000040000fa
:0401a400e80300006c
:020000040000fa
:0401a800e803000068
:020000040000fa
:0401ac00e803000064
:020000040000fa
:0401b000e803000060
:020000040000fa
:0401b400e80300005c
:020000040000fa
:0401b800e803000058
:020000040000fa
:0401bc00e803000054
:020000040000fa
:0401c000e803000050
:020000040000fa
:0401c400e80300004c
:020000040000fa
:0401c800e803000048
:020000040000fa
:0401cc00e803000044
:020000040000fa
:0401d000e803000040
:020000040000fa
:0401d400e80300003c
:020000040000fa
:0401d800e803000038
:020000040000fa
:0401dc00e803000034
:020000040000fa
:0401e000e803000030
:020000040000fa
:0401e400e80300002c
:020000040000fa
:0401e800e803000028
:020000040000fa
:0401ec00e803000024
:020000040000fa
:0401f000e803000020
:020000040000fa
:0401f400e80300001c
:020000040000fa
:0401f800e803000018
:020000040000fa
:0401fc00e803000014
:020000040000fa
:04020000e80300000f
:020000040000fa
:04020400e80300000b
:020000040000fa
:04020800e803000007
:020000040000fa
:04020c00e803000003
:020000040000fa
:04021000e8030000ff
:020000040000fa
:04021400e8030000fb
:020000040000fa
:04021800e8030000f7
:020000040000fa
:04021c00e8030000f3
:020000040000fa
:04022000e8030000ef
:020000040000fa
:04022400e8030000eb
:020000040000fa
:04022800e8030000e7
:020000040000fa
:04022c00e8030000e3
:020000040000fa
:04023000e8030000df
:020000040000fa
:04023400e8030000db
:020000040000fa
:04023800e8030000d7
:020000040000fa
:04023c00e8030000d3
:020000040000fa
:04024000e8030000cf
:020000040000fa
:04024400e8030000cb
:020000040000fa
:04024800e8030000c7
:020000040000fa
:04024c00e8030000c3
:020000040000fa
:04025000e8030000bf
:020000040000fa
:04025400e8030000bb
:020000040000fa
:04025800e8030000b7
:020000040000fa
:04025c00e8030000b3
:020000040000fa
:04026000e8030000af
:020000040000fa
:04026400e8030000ab
:020000040000fa
:04026800e8030000a7
:020000040000fa
:04026c00e8030000a3
:020000040000fa
:04027000e80300009f
:020000040000fa
:04027400e80300009b
:020000040000fa
:04027800e803000097
:020000040000fa
:04027c00e803000093
:020000040000fa
:04028000e80300008f
:020000040000fa
:10040000ef1c21000eff27000e01880000000000f5
:10041000000020000000e000020032000001200087
:100420002002880014000700eb0007000000e00035
:1004300003003a008077210001002000020037000d
:100440000000200001002000810f70000100320038
:100450000f000700000020000000e0000200320052
:100460000000020000000000c007020000000000c1
:100470000040da000000fe00800020000000e000e4
:1004800002003200002020009001880000000600d9
:10049000a1028800800478000000eb001f003700f4
:1004a000e284440054a0b4009905ba00e2844400f8
:1004b00054a0b4009906ba00e284440054a0b400e9
:1004c0000006eb00476fde00fd07b200ae018800ba
:1004d000636ce10003003a000ad801000000eb0061
:1004e0000e003700606ce10008003a00004deb00a0
:1004f0000a05e800020039003420ec000af0a000f0
:100500008b05e900f9ff3e00040037006168e10057
:10051000010032000086eb000b00070019c7ba008b
:100520000e04e0001905ba0003003a000a00e000da
:10053000dbff3a0000000600fe07b200ae028800b2
:100540008a047800f5ff37000cd0a300e20f4d00bd
:100550001c00390089027800354dba000a05e80010
:10056000020039003420ec000af0a0008b05e900fd
:100570000f003200254dba000a05e80002003900dc
:100580003420ec000af0a0008b05e90008003200de
:100590000c00e0000600320015cdba000a05e800a4
:1005a000020039003420ec000af0a0008b05e900bd
:1005b0008984e80054a0b4000b00e000e2ff3a0098
:1005c000000006009902ba00055d78008b05e9007d
:1005d000f7ff3200c82ade00055d78008b05e900d0
:1005e000f3ff32000c00e000f1ff320019ddba0029
:1005f000eeff37000000fa000108a9000080fa00b1
:10060000004006003600f800809fbe00829fbe00ba
:10061000849fbe00869fbe000000fa000068a9000b
:1006200067070700b20907000080fa004f03be0009
:100630004f02be004f01be004f00be003600f90061
:10064000004006003600f800809fbe00829fbe007a
:10065000849fbe00869fbe000000fa000368a900c8
:10066000608080007180800061004000e080480070
:100670006080880071808800130307000080fa0002
:100680004f03be004f02be004f01be004f00be0030
:100690003600f90000400600809fbe000000fa000e
:1006a00001a8a9000118800020002100010878009d
:1006b00011188000200021001100980021188000ee
:1006c0002000210021009800311880002000210026
:1006d000310098004118800020002100410098005e
:1006e00010c0b3000af0b7000080fa004f00be004f
:1006f000004006003600f800809fbe00829fbe00ca
:10070000849fbe00869fbe000000fa000188a900f9
:10071000a180800090808000808f50000200320015
:1007200014090700010037001670ef000080fa007e
:100730004f03be004f02be004f01be004f00be007f
:100740003600f900004006003600f800809fbe0029
:10075000829fbe00849fbe00869fbe000000fa00fc
:100760000168a90010118000640060000000e00032
:10077000010032002242a9001011800062006000d6
:100780000000e000060032002222a9000500370028
:100790003011800000407800650907000100370033
:1007a0000000000010118000610060000000e00007
:1007b000f7ff3a000080fa004f03be004f02be0070
:1007c0004f01be004f00be003600f9000040060099
:1007d0000040da000000fe000000050003f0a20067
:1007e000889fbe008a9fbe008c1f78002a010700e8
:1007f000310133006450e1004f0032006420e10019
:100800005200320003826c0007003b000905d00053
:100810000306d000820f54000c065d000200390070
:1008200002003200890178000306780085825500b5
:1008300004003d000003fd008103fd008502ea0085
:100840008b854200840f720002003b0060001000a4
:10085000e08018006011b8000005eb007a28e10084
:100860000a00390006007800c75ddd00f707b20016
:10087000878075002d003700828171000a017800a1
:10088000610560008180d1000080d3008502e9000d
:10089000f9ff3b00060440008784480002003b004b
:1008a00060041400e0841c000988a30007003200e3
:1008b0008a81710082817100610164008904d10024
:1008c0000884d3008b05e800170037000978a300df
:1008d00013003a000b00e000130034008b05e90020
:1008e0000804440089844c000a4474000978a30079
:1008f0000d003a000b00e000070034008b05e90012
:100900000804440089844c0001003a000b002000d8
:100910000978a300f7ff32000001eb000200370066
:10092000828171000a017800a00007000cf0a70086
:1009300001f0a000e90037006420e10002003a0065
:10094000838f6c00e90033000801be000200be0086
:10095000e2003700889fbe008a9fbe008c1f78008f
:10096000cd000700d400330003866c006450e10022
:100970002e0032006420e100330032006150e100bb
:100980002f0032006120e1003100320085855500e2
:10099000eb07b00009002000080420000500370024
:1009a0000804440089844c000a0031000603430017
:1009b00087834b000001530081815b00f8ff330007
:1009c0000203be000800a0000804440089844c0013
:1009d000f6ff3900c639dd008301730001003200e3
:1009e000130020008904d1000884d3000998a300d3
:1009f000050032000800a7000300a0008904d10010
:100a00000884d3008b05e8008904d1000884d30052
:100a10000001eb000281d2006400070001f0a10098
:100a20000cf0a70001f0a000ac0037006420e1004a
:100a3000ae0032000801be000200be00f7ff370022
:100a40006120e100a90032006000b800f3ff370028
:100a50000000200001f82700f0ff3700839f6800a6
:100a60000100e00002003d0060001000e08018007e
:100a70000300e00002003d0060011100e081190068
:100a8000d10007004f00e00002003b0060001000b2
:100a9000e08018000000060014002000da00370093
:100aa000f4ff2f00d80037000001be0065000700ea
:100ab0000470a70003f0a1006509b1001600320020
:100ac0000d0035006828e10006003500f0ff2f001a
:100ad000f1ff27000300e00013003b0001002800a5
:100ae0000000050000004000818048008502e90008
:100af000fcff3a0008003700f88f420002003c007b
:100b00008000eb00000005008100d1000080d300d0
:100b10008502e800fcff3a000300e00002003b0011
:100b200060001000e0801800000006000001be0018
:100b3000440007000470a70003f0a10003f8a3001d
:100b400013003a006509b1001000320009003500b9
:100b50006928e100020035000100280000000500be
:100b600000004000818048008502e900fcff3a0057
:100b700000000600f88f4200050035008100d1001a
:100b80000080d3008502e800fcff3a000000060068
:100b90008000eb00000005004f89de008201780034
:100ba000b40037006011b800c20037008100200097
:100bb000618055000b003d000b00200061fe2f00fe
:100bc0000100e1001d0034008281710061016400b8
:100bd0008904d1000884d3000000e800faff3a003d
:100be00071002000610064000300700002006000da
:100bf0000900320061044400e0844c000988a5002b
:100c0000050032008b05e8006808e10002003a00a8
:100c10008904d1000884d300f20f20000258e100bb
:100c200005003d00c75ddd00f907b2008980750051
:100c300008007800000006000bf827008b00780001
:100c400000000500c70ade00f107b200f50fb20090
:100c500008003200e1cf4200020032000170a00023
:100c600024000500810f7000010032000408050017
:100c700044000500810f700002003a0014000500d6
:100c80008502e9000000400081c04800fcff3b00f5
:100c90000170a000240005000004be00e9ff070069
:100ca0000003be000405be000200be00e5ff070011
:100cb000844f7500000006000200be006450e10091
:100cc000050036006420e100020036000968a30038
:100cd00001003a000800be000160a0004f06780045
:100ce0004f05be004f04be0000000600f0ff2f00bd
:100cf000f1ff2700f9ff3700889fbe008a9fbe00e2
:100d00008c1f7800e4ff0700ebff330003866c00c4
:100d10006450e100240032006420e100270032002a
:100d20006150e100220032006120e1002100320028
:100d30008b854200eb07b1000134b800003ab800df
:100d40000804420089844a00013ab8000030b80023
:100d50008880400009014a00040033000000400080
:100d600081804800020149008b05e900c909dd00c6
:100d7000830170000100320013002000c814de005f
:100d80004814dd004709de001200b200c808de008a
:100d90000884700085ff070001f0a1000cf0a70097
:100da00001f0a000cdff37006120e100cfff32004d
:100db0000801be000200be00f7ff37006150e100ed
:100dc000fcff3a00c9ff37006022b800060220008d
:100dd0000000d0008180d2000482d2008582d2003f
:100de0000000a0000202520083825a00030031007a
:100df0000202420083824a000000a1000603e900cb
:100e0000f3ff3a0000000600889fbe008a9fbe00e4
:100e1000841f7800a0ff07004f0078001100330006
:100e2000f0ff2f00838f6c0006003b000405650077
:100e30000a00a7000800370009f0a60010002000f3
:100e400008003700820f5400838f5c0003003900d4
:100e50001000200001003e000000200009f0a70063
:100e60000000ea004f05be004f04be000000e00095
:100e700000000600881f7800030478000300e000eb
:100e800007003d0060001000e080180060011900bc
:100e9000e081190002003b0001f02d000300370043
:100ea0000400070008f0a70001f0a0004f0478003c
:100eb00000000600889fbe008a9fbe00008270006e
:100ec0000402710004827100260032000004be009a
:100ed0000200be006011b8006b09200095022000de
:100ee0000182cf000a0039000541b1000082cf0025
:100ef000070039000541b1000982cf000400390024
:100f00000541b1000882cf00010039000541b10060
:100f100005425200120032000a003b00828171003b
:100f2000610164008100d1000080d3008984d30076
:100f30000884d3008b05e8000442e800f7ff3a007c
:100f4000070037000804440089844c000000480072
:100f5000818048008b05e9000442e900f9ff3a006e
:100f600012ff07004f05be004f04be000000060040
:020000040000fa
:100f7000426f00006e6a00006f7500007200000092
:020000040000fa
:100f80000e00fa00881f7800ae070700fb07070075
:100f9000aa030700dc030700d90407001a070700ab
:100fa0005804070010080700010037000000000087
:100fb00053070700000f780055070700e14f500066
:100fc000faff3a00560707001e80e800100078007c
:100fd0008000eb00f3fe07003233230033052400ca
:100fe00045ff0700020020000358240059fe0700b7
:100ff000d2cc2c00c30424003fff07001007980048
:10100000210798001e019000ae0190000000200012
:10101000812024004ffe070002002000030a240064
:10102000eefd0700f08d8800018e88009e0078009c
:1010300064804000100078008000eb00d9fe0700bb
:1010400032332300330524002bff07000200200069
:10105000035824003ffe0700d2cc2c00c304240018
:1010600025ff070010079800210798001e01900037
:10107000ae019000000020008120240035fe070012
:1010800002002000030a2400d4fd0700108e88000f
:10109000218e88001e017800680041001000780051
:1010a0008000eb00bffe070032332300330524002d
:1010b00011ff0700020020000358240025fe07004e
:1010c000d2cc2c00c30424000bff070010079800ab
:1010d000210798001e019000ae0190000000200042
:1010e000812024001bfe070002002000030a2400c8
:1010f000bafd0700308e8800418e88009e0078007f
:1011000066804000100078008000eb00a5fe07001c
:101110003233230033052400f7fe070002002000cd
:10112000035824000bfe0700d2cc2c00c30424007b
:10113000f1fe070010079800210798001e0190009b
:10114000ae019000000020008120240001fe070075
:1011500002002000030a2400a0fd0700508e880032
:10116000618e88001e007800100078008000eb007f
:101170008cfe07003233230033052400defe070017
:101180000200200003582400f2fd0700d2cc2c00fe
:10119000c3042400d8fe0700100798002107980018
:1011a0001e019000ae01900000002000812024006c
:1011b000e8fd070002002000030a240087fd070065
:1011c000d08d8800e18d8800d08d8000e18d800079
:1011d00018c0b30002002000031a24002efe0700ee
:1011e0000000e000010035000044eb000804e000ce
:1011f00002003200254ea80001003700254ea9004c
:10120000108e8000218e800018c0b30002002000e4
:10121000031a240020fe07000000e0000100350052
:101220000044eb000804e0000200320064eea80075
:101230000100370064eea900508e8000618e8000ae
:1012400018c0b30002002000031a240012fe070099
:101250000000e000010035000044eb000804e0005d
:101260000200320064cea8000100370064cea9005d
:10127000f1808000a000200000017800110009002a
:101280008200d8008000fd000000e0000a003a0063
:10129000e6004700827b280006000900b25878006b
:1012a000660047000001780071002000000820005f
:1012b000a50507001e30ef00f08080000000e80068
:1012c000f08088003aff37000000fa0020d0bf000d
:1012d0000080fb00cf80de005201200003002000d0
:1012e000820f5000838f5800a7003e0000060100c7
:1012f000150037001e003700270037003100370087
:10130000320037003c0037003d003700470037000f
:101310004800370052003700530037005d003700a7
:101320009900370098003700830037008d003700a0
:101330005a00370064003700650037006f0037003f
:10134000700037007a0037000c30ef000e30ef00ed
:101350000041eb006000b8000504070012c0b300b4
:101360006000b8000204070010c0b30020f0b7000e
:101370006280800073808000803e20000100200099
:10138000800f5100818f59008200360020c0b300c9
:1013900020f0b700820037000041eb000000200081
:1013a000811c2c00f203070012c0b30000002000d3
:1013b000811c2400ee03070030c0b30020f0b7000a
:1013c0007700370078000700750037000041eb0018
:1013d00000002000011a2c00e503070012c0b30032
:1013e00000002000010a2c00e103070050c0b300f8
:1013f00020f0b7006a0037006b0007006800370074
:101400000041eb0000002000010a2400d80307007f
:1014100012c0b30000002000011a2400d40307000a
:1014200070c0b30020f0b7005d0037005e00070019
:101430005b0037000041eb000000200001172c008a
:10144000cb03070012c0b3000000200001172c00de
:10145000c703070090c0b30020f0b700500037006a
:10146000510007004e0037000041eb000000200053
:1014700001172400be03070012c0b30000002000c3
:1014800001172400ba030700b0c0b30020f0b70072
:101490004300370044000700410037000041eb00e3
:1014a0000000200001172c00b103070012c0b30098
:1014b0000000200001172400ad03070010c1b30095
:1014c00020f0b7003600370037000700340037003f
:1014d0000041eb000000200001122c00a4030700d3
:1014e00012c0b30000002000011a2400a00307006e
:1014f00030c1b30020f0b700290037002a000700f0
:10150000270037000041eb0000002000011a2c00ea
:101510009703070012c0b30000002000011224004e
:101520009303070050c1b30020f0b7001c00370040
:101530001d0007001a0037000041eb0000002000ea
:10154000011224008a03070012c0b300000020002b
:1015500001122c0086030700f0c0b30020f0b70092
:101560000f0037006280800073808000803e200082
:1015700001002000800f5100818f590007003600c4
:1015800009000700060037002070ef00000000008f
:1015900003003700000000000100370000000000d9
:1015a0000080fa00000006000200fa00881f7800a0
:1015b0000040eb00004f7800f08d8000018e80002d
:1015c00018c0b30002002000031a240032fd0700f7
:1015d0000000e000010035000044eb000804e000da
:1015e0002f003200108e8000218e800018c0b300c2
:1015f00002002000031a240027fd07000000e0007d
:10160000010035000044eb000804e0002400320033
:10161000308e8000418e800018c0b3000200200090
:10162000031a24001cfd07000000e0000100350043
:101630000044eb000804e00019003200d08d800067
:10164000e18d800018c0b30002002000031a2400be
:1016500011fd07000000e000010035000044eb0030
:101660000804e0000e003200508e8000618e800081
:1016700018c0b30002002000031a240006fd070072
:101680000000e000010035000044eb000804e00029
:101690000300320080c0b300004f7800880137009b
:1016a000f08d8000018e800018c0b3000200200081
:1016b000031a2400f8fc07000000e00001003500d8
:1016c0000044eb000804e00019003200108e800096
:1016d000218e800018c0b30002002000031a2400ed
:1016e000edfc07000000e000010035000044eb00c5
:1016f0000804e0000e003200308e8000418e800031
:1017000018c0b30002002000031a2400e2fc070006
:101710000000e000010035000044eb000804e00098
:1017200003003200c0c0b300004f780064013700ee
:10173000f08d8000018e800018c0b30002002000f0
:10174000031a2400d6fc07000000e00001003c0062
:101750000044eb000804e0002f003200108e8000ef
:10176000218e800018c0b30002002000031f240057
:10177000cbfc07000000e00001003c000044eb004f
:101780000804e00024003200308e8000418e80008a
:1017900018c0b30002002000031a2400c0fc070098
:1017a0000000e00001003c000044eb000804e00001
:1017b00019003200d08d8000e18d800018c0b30088
:1017c0000200200003122400b3fc07000000e00028
:1017d000010035000044eb000804e0000e00320078
:1017e000508e8000618e800018c0b300020020007f
:1017f00003122400a8fc07000000e00001003500ef
:101800000044eb000804e00003003200d0c0b30045
:10181000004f78002a013700f08d8000018e800093
:1018200018c0b30002002000031224009afc070035
:101830000000e000010035000044eb000804e00077
:1018400019003200108e8000218e800018c0b30075
:1018500002002000031f240091fc07000000e000ac
:1018600001003c000044eb000804e0000e003200e0
:10187000308e8000418e800018c0b300020020002e
:101880000312240084fc07000000e0000100350082
:101890000044eb000804e0000300320040c0b30045
:1018a000004f780006013700f08d8000018e800027
:1018b00018c0b30002002000031f240076fc0700bc
:1018c0000000e000010035000044eb000804e000e7
:1018d00019003200108e8000218e800018c0b300e5
:1018e00002002000031f24006dfc07000000e00040
:1018f00001003c000044eb000804e0000e00320050
:10190000308e8000418e800018c0b300020020009d
:10191000031f240062fc07000000e00001003c00ff
:101920000044eb000804e0000300320020c0b300d4
:10193000004f7800e2003700f08d8000018e8000bb
:1019400018c0b30002002000031f240054fc07004d
:101950000000e00001003c000044eb000804e0004f
:1019600019003200108e8000218e800018c0b30054
:1019700002002000031f240049fc07000000e000d3
:1019800001003c000044eb000804e0000e003200bf
:10199000308e8000418e800018c0b300020020000d
:1019a000031f24003cfc07000000e000010035009c
:1019b0000044eb000804e0000300320010c0b30054
:1019c000004f7800be003700108e8000218e80000e
:1019d00018c0b30002002000031a24002efc0700e8
:1019e0000000e000010035000044eb000804e000c6
:1019f0000300320060c0b300004f7800b000370031
:101a0000108e8000218e800018c0b30002002000dc
:101a1000831c240020fc07000000e00001003500ca
:101a20000044eb000804e0000e003200108e80003d
:101a3000218e800018c0b30002002000031a240089
:101a400017fc07000000e00001003c000044eb0030
:101a50000804e0000300320070c0b300004f7800bb
:101a600097003700f08d8000018e800018c0b30011
:101a700002002000031f240009fc07000000e00012
:101a800001003c000044eb000804e0002f0032009d
:101a9000108e8000218e800018c0b300020020004c
:101aa000031f2400fefb07000000e00001003c00d3
:101ab0000044eb000804e00024003200308e800077
:101ac000418e800018c0b30002002000031f2400d4
:101ad000f3fb07000000e00001003c000044eb00c5
:101ae0000804e00019003200d08d8000e18d8000f4
:101af00018c0b30002002000031a2400e6fb070010
:101b00000000e000010035000044eb000804e000a4
:101b10000e003200508e8000618e800018c0b3002d
:101b200002002000031f2400ddfb07000000e0008e
:101b300001003c000044eb000804e0000300320018
:101b4000e0c0b300004f78005d003700f08d8000ea
:101b5000018e800018c0b30002002000031f240083
:101b6000cffb07000000e00001003c000044eb0058
:101b70000804e0002f003200108e8000218e8000cb
:101b800018c0b30002002000031f2400c4fb07009c
:101b90000000e00001003c000044eb000804e0000d
:101ba00024003200308e8000418e800018c0b300c7
:101bb00002002000031f2400b9fb07000000e00022
:101bc00001003c000044eb000804e0001900320072
:101bd000d08d8000e18d800018c0b300020020008d
:101be000031f2400aefb07000000e00001003c00e2
:101bf0000044eb000804e0000e003200508e80002c
:101c0000618e800018c0b30002002000031a240077
:101c1000a1fb07000000e000010035000044eb00dc
:101c20000804e00003003200f0c0b300004f780069
:101c300023003700f08d8000018e800018c0b300b3
:101c400002002000031f240095fb07000000e000b5
:101c500001003c000044eb000804e00018003200e2
:101c6000108e8000218e800018c0b300020020007a
:101c7000031f24008afb07000000e00001003c0075
:101c80000044eb000804e0000d003200308e8000bc
:101c9000418e800018c0b30002002000031f240002
:101ca0007ffb07000000e00001003c000044eb0067
:101cb0000804e000020032000040eb00004f780012
:101cc0001e407800e84f500003003a00e0c0b30027
:101cd00021f0b7004d0037001e407800ea4f500059
:101ce00003003a0080c0b30021f0b700470037007e
:101cf0001e407800eb4f500003003a0080c0b30054
:101d000021f0b700410037001e407800ec4f500032
:101d100003003a0080c0b30021f0b7003b00370059
:101d20001e407800ed4f500003003a0000c1b300a0
:101d300021f0b700350037001e407800e44f500016
:101d400003003a0080c0b30021f0b7002f00370035
:101d50001e407800e34f500003003a0000c1b3007a
:101d600021f0b700290037001e407800e24f5000f4
:101d700003003a0040c0b30021f0b7002300370051
:101d80001e407800e14f500003003a0060c0b300ed
:101d900021f0b7001d0037001e407800e64f5000cc
:101da00003003a0080c0b30021f0b70017003700ed
:101db0001e407800e74f500003003a0000c1b30016
:101dc00021f0b700110037001e407800ee4f5000a0
:101dd00003003a0040c1b30021f0b7000b00370008
:101de0001e407800ef4f500003003a0020c1b300be
:101df00021f0b700050037001e4078000004e00025
:101e000002003a0020c0b30021f0b70021d0bf008b
:101e10008080fb0020d0bf000080fb000000e900b4
:101e2000808f50000200320021d0bf0020f0b700a8
:101e30004f0478000080fa00000006000400fa0059
:101e400013e1a90011e1a9001061a8001021a90067
:101e500081088000f0fc2f0000806000800888006e
:101e60000a21ef000621ef00404c20007008880096
:101e700000402b0060088800800880004400de00dd
:101e8000634060000081fb008001eb00700880006f
:101e90008000eb00c002dd0004002000600880002c
:101ea0008000eb000400400085804800809ab90063
:101eb000828bb90086027800050242000010b8004b
:101ec00001024200840078000001be0000a025004d
:101ed00021262000e1fa07002ffb0700008fbe003b
:101ee0002142800080ff2f00008060000000a000e1
:101ef000204288000108a9002108a80011e1a800db
:101f00000080fa00000006000000fa0005e1a900c8
:101f10000421a90000002000812c240005000700f6
:101f20000068a9002068a80005e1a8000080fa0068
:101f3000000006000400fa00881f7800008fbe0031
:101f400021088000f0fc2f0000806000200888003d
:101f50001e0178009e0190000068290081c12400c4
:101f60007cfa070018c0b30002f02f00f3772400ba
:101f7000cbfa07000000e00001003c000044eb0049
:101f80000804e0005400320021088000f0fc2f001b
:101f9000008060000040a000200888001e0178003a
:101fa0009e0190000068290081c1240069fa0700a1
:101fb000020020000310240066fa070018c0b300d6
:101fc00002f02f00f3772400b5fa07000000e000cc
:101fd00001003c000044eb000804e0003200320045
:101fe00021088000f0fc2f00008060000050a0005d
:101ff000200888001e0178009e01900000682900da
:1020000081c1240053fa07000200200003282400a5
:1020100050fa070018c0b30002f02f00f377240035
:102020009ffa07000000e00001003c000044eb00c4
:102030000804e000100032002108800000032000a6
:1020400001007000200888001e0178009e019000a9
:102050000068290081c124003efa07000200200028
:10206000033824003bfa07008ffa070000007800cd
:1020700010088800200037001e0178009e019000a3
:102080000068290081c1240032fa07000200200004
:10209000032824002ffa070083fa070000007800c5
:1020a00010088800140037001e0178009e0190007f
:1020b0000068290081c1240026fa070002002000e0
:1020c0000310240023fa070077fa070000007800c5
:1020d00010088800080037001e0178009e0190005b
:1020e0000068290081c124001afa07006efa07006f
:1020f00000007800100888004f0478000080fa0083
:10210000000006000000fa0000002000a1472400a3
:10211000070007001fe1a9001e21a9000368a9000c
:102120002368a8001fe1a8000080fa000000060054
:102130000400fa00881f7800008fbe00f1088000bc
:10214000f0fc2f0000806000f00888001e0178007d
:102150009e0190000068290081c12400fdf907005c
:1021600018c0b30002f02f00f37724004cfa0700e8
:102170000000e00001003c000044eb000804e00027
:1021800054003200f1088000f0fc2f000080600055
:102190000040a000f00888001e0178009e01900019
:1021a0000068290081c12400eaf90700020020002c
:1021b00003102400e7f9070018c0b30002f02f0055
:1021c000f377240036fa07000000e00001003c002d
:1021d0000044eb000804e00032003200f108800007
:1021e000f0fc2f00008060000050a000f008880084
:1021f0001e0178009e0190000068290081c1240022
:10220000d4f907000200200003282400d1f90700b8
:1022100018c0b30002f02f00f377240020fa070063
:102220000000e00001003c000044eb000804e00076
:1022300010003200f108800000032000010070004f
:10224000f00888001e0178009e01900000682900b7
:1022500081c12400bff907000200200003382400d8
:10226000bcf9070010fa070000007800d0088800c9
:10227000200037001e0178009e01900000682900b0
:1022800081c12400b3f907000200200003282400c4
:10229000b0f9070004fa070000007800d0088800b1
:1022a000140037001e0178009e019000006829008c
:1022b00081c12400a7f907000200200003102400b8
:1022c000a4f90700f8f9070000007800d00888009a
:1022d000080037001e0178009e0190000068290068
:1022e00081c124009bf90700eff907000000780086
:1022f000d00888004f0478000080fa000000060033
:102300000000fa001160800080ff2f000080600054
:102310001060880000fa20002060880023aca8002c
:10232000238ca80011618000f03f2f000080600026
:1023300000a0a0001061880030002000206188000b
:10234000c3aca800c38ca80011668000f03f2f002a
:102350000080600000a0a00010668800300020000f
:102360002066880001eca8000080fa00000006004a
:102370000600fa00008fbe00424798004e409000d1
:102380000004e00005003a001e0178009e01900064
:10239000928d8800a38d8800070037004e40900082
:1023a000e14f500004003a001e0178009e019000a9
:1023b000528d8800638d88000080fa0000000600be
:1023c0000000fa00889fbe008a9fbe00b48d800086
:1023d000c58d8000908d8000a18d800018c0b30055
:1023e0000001be000400be00abf907000000e000e1
:1023f000010035000044eb000804e0000f0032004b
:10240000988d8000a98d8000ba8d8000cb8d8000d2
:1024100026d0bf000080fb00cf80de00def9070081
:102420000001be000a00be00edf807000801be0072
:10243000bc000700b08d8800c18d8800b48d80007d
:10244000c58d8000908d8000a18d800018c0b300e4
:102450000001be000400be0091f907000000e0008a
:1024600001003c000044eb000804e0000f003200d3
:10247000988d8000a98d8000ba8d8000cb8d800062
:1024800026d0bf000080fb00cf80de00c2f907002d
:102490000001be000a00be00d0f807000801be001f
:1024a00088000700b08d8800c18d8800b08d800045
:1024b000c18d800018c0b3006011b80078f9070022
:1024c0000000e00001003c000044eb000804e000d4
:1024d00004003200c3cca90024eea800c3eca8007d
:1024e00003003700c3eca90024cea800c3cca80089
:1024f000b08d8000c18d80005c00070002002000cc
:1025000003222400fcf9070088f907000000780086
:1025100030668800748d8000858d8000508d80002d
:10252000618d800018c0b3000001be000400be0031
:1025300059f907000000e000010035000044eb00fd
:102540000804e0000f003200588d8000698d800083
:102550007a8d80008b8d800026d0bf000080fb002c
:10256000cf80de008cf907000001be000a00be002b
:102570009bf807000801be006a000700708d880004
:10258000818d8800748d8000858d8000508d800045
:10259000618d800018c0b3000001be000400be00c1
:1025a0003ff907000000e00001003c000044eb00a0
:1025b0000804e0000f003200588d8000698d800013
:1025c0007a8d80008b8d800026d0bf000080fb00bc
:1025d000cf80de0070f907000001be000a00be00d7
:1025e0007ef807000801be0036000700708d8800e5
:1025f000818d8800708d8000818d800018c0b300af
:102600006011b80026f907000000e00001003c005e
:102610000044eb000804e0000400320023cca900d1
:1026200015eea80023eca8000300370023eca90056
:1026300015cea80023cca800708d8000818d80006d
:102640000a0007000200200003222400aaf9070064
:1026500036f9070000007800306188004f05be00a1
:102660004f04be000080fa00000006000400fa00db
:10267000881f7800008fbe0018c0b3006011b8003a
:102680001e0078009e00900005f907000000e000a1
:1026900001003d000044eb000804e00003003200ac
:1026a0001e0078009e009000030037001e00780096
:1026b0009e00900001f0a2004f0478000080fa0014
:1026c000000006000800fa00881f7800008fbe0096
:1026d000220798003307980018c0b3002e0190001d
:1026e000be0190001e0078009e009000ecf80700ec
:1026f0000000e00001003c000044eb000804e000a2
:10270000030032001e0078009e0090000200370097
:102710002e009000be0090004f0478000080fa0068
:10272000000006000800fa00881f7800008fbe0035
:10273000220798003307980018c0b3002e019000bc
:10274000be0190001e0078009e009000d2f80700a5
:102750000000e000010035000044eb000804e00048
:10276000030032001e0078009e0090000200370037
:102770002e009000be0090004f0478000080fa0008
:10278000000006000c00fa00881f7800008fbe00d1
:1027900022079800330798004407980055079800cf
:1027a00018c0b3004e019000de0190001e007800ba
:1027b0009e009000baf807000000e00001003c0015
:1027c0000044eb000804e000040032004e019000d9
:1027d000de019000028fbe000e00370018c0b3006b
:1027e0002e019000be0190001e0078009e00900017
:1027f000a9f807000000e000010035000044eb00ec
:102800000804e000030032002e019000be01900099
:10281000028fbe001e0078009e0090004f047800da
:102820000080fa00000006000400fa00008fbe00dd
:10283000b2fd2000930424001e0078009e0090004a
:1028400044f8070002002000433324002af907005f
:102850000080fa00000006000400fa00008fbe00ad
:10286000b2fd2000930424001e0078009e0090001a
:1028700021f90700020020004333240035f8070047
:102880000080fa00000006000a00fa002007980005
:102890003107980042079800e0cfb300004f78005e
:1028a0002e0090004880de00804078001e407800b6
:1028b00000c06800004f78002e0090008040780033
:1028c0001e40780000c06800004f78003e00900075
:1028d0004880de00804078001e40780000c068001c
:1028e000004f78003e009000804078001e40780045
:1028f00000c06800004f78000000eb00100798004f
:102900000000eb0010079800080037001e00900040
:10291000ce00900000804000104078001e4f6800fc
:102920001e0090000000e800100798009e00900034
:102930003e009000808f5000f4ff35001e4078006c
:102940000080fa00000006000e00fa004007980020
:1029500051079800620798006e019000de00900019
:102960004e009000c8ff0700404798000000eb00b1
:10297000000f78001e007800be009000008040002c
:10298000e1cfb300014878001e0fe8001e00780078
:10299000be00900000804000ce009000c888de009d
:1029a00081407800014878001e0fe8001e00780082
:1029b000be00900000804000ce0090008140780072
:1029c000014878001e0fe8001e007800be0090004d
:1029d00000804000de009000c888de008140780062
:1029e000014878001e0fe8001e007800be0090002d
:1029f00000804000de0090008140780001487800af
:102a00001e0fe8000000eb00100798000000eb002c
:102a1000100798000c0037001e007800be009000e0
:102a2000008040009e0090006e01900081004100f7
:102a300091407800014878001e0fe8001e009000c9
:102a40000000e800100798009e0090005e009000d3
:102a5000808f5000f0ff35001e007800be0090000f
:102a600000804000ce409000014878001e0fe80032
:102a70009e0078003e009000020007000080fa00ef
:102a8000000006000600fa001007980021079800d1
:102a90000040eb00004f780054000700ae009000ab
:102aa000810f5000110034000040eb00004f78000f
:102ab000060037001e80fb009e0090000080400052
:102ac000104078000b0007001e4fe8009e80fb00be
:102ad0002e009000808f5000f6ff35002e0007007a
:102ae0000004e00001003a00220007000080fa0024
:102af000000006000200fa00004f7800908080007d
:102b000081022100008040001e48780090808000f3
:102b10000000e8009080880091808000f00720008d
:102b2000808f5000010034001230ef000080fa0066
:102b3000000006000200fa00a0808000810221004f
:102b400000804000104f7800a08080000000e80066
:102b5000a0808800a1808000f0072000808f5000b6
:102b6000010034001430ef001e4078000080fa00ad
:102b7000000006000200fa0010c0b30016f0b70013
:102b8000ecff0700004f78001e80fb00201188003a
:102b90000080fa00000006000000fa0016d0bf0016
:102ba0000080fa00000006000200fa009180800018
:102bb000a0808000808f500004003500918080004c
:102bc000a0808000008f50000500370091808000b9
:102bd000a08080000080500001082000010f40000c
:102be0001e0078000080fa00000006000200fa00d3
:102bf000edff070001082000008f50001e00780044
:102c00000080fa00000006000000fa0021e3a9009d
:102c10002143a80001198000f0cf2f000080600040
:102c2000001988002043a90001198000000e20002f
:102c3000010070000019880011198000f0ff2100c8
:102c400000806000101988002343a800111980003b
:102c5000f0cf2f000080600010198800111980004b
:102c600030f82f00008060000040a000101988009c
:102c70002203a9002223a90025e3a900f0c0b30084
:102c800024e3b70021198000f00f2e00808060003f
:102c900000f0200001007000201988003303a90013
:102ca0002e0ea8002f6ea8006f2ea8001e2ea800c2
:102cb0004feea80030c3a8003163a8002e03a8007f
:102cc0003063a80031e3a8004119800000fc2f0008
:102cd000008060004019880028e3a90001a8a9002d
:102ce00021a8a80021e3a8000080fa000000060047
:102cf0000000fa002023a8000080fa00000006006f
:102d00000000fa00200021000080fa000000060008
:102d10000000fa000ad0bf000080fa0000000600a0
:102d20000000fa000a70ef000080fa0000000600c0
:102d30000200fa00004f78002a0007000000e000bf
:102d40000c00340010818000810a210000804000c6
:102d50001e487800108180000000e8001081880083
:102d60001181800000082000808f50000100340095
:102d70002230ef000080fa00000006000200fa0096
:102d800020818000810a210000804000104f7800df
:102d9000208180000000e8002081880021818000df
:102da00000082000808f5000010034002430ef0024
:102db0001e4078000080fa00000006000000fa00c3
:102dc0001181800020818000808f5000020032003d
:102dd00010c0b300010037000040eb000080fa0093
:102de000000006000200fa000500070001082000ac
:102df000008f50001e0078000080fa0000000600de
:102e00000200fa001181800020818000808f500034
:102e1000040035001181800020818000008f500067
:102e20000500370011818000208180000080500063
:102e300001082000010f40001e0078000080fa0009
:102e4000000006000000fa00f0032000303a88007d
:102e5000213a8000f0f32f0000806000203a8800c3
:102e6000213a800000fe2f00008060000000a000da
:102e7000203a88001200200080072000a1092000cd
:102e800033742000804978008149780082497800b5
:102e9000103a8000000178000200a00060042000c9
:102ea0007105200023742000804978008149780052
:102eb0008249780000000000113a800000002700dd
:102ec0008080600000002100808f5000faff3a00ef
:102ed00000000000113a8000000220000080600025
:102ee0000000e000fbff32000080fa000000060056
:020000040000fa
:102ef0001e10000004000000800000000c10000004
:102f00000600000080000000a8110000260000005c
:102f10008000000026100000020000008200000077
:102f200007000000001000000c00000080000000fe
:102f30002810000080000000800000001210000037
:102f40000600000080000000a810000080000000c3
:102f5000800000002210000004000000800000003b
:102f60002811000080000000800000001810000000
:0c2f7000060000008000000000000000cf
:020000040000fa
:102f7c000000fa000e2eef001e2eef002e2eef009a
:102f8c003e2eef004e2eef005e2eef006e2eef0069
:102f9c00214ea90060cea90060eea90011cea900b7
:102fac0011eea90020cea90020eea9002136800048
:102fbc0000f82f00008060008001b30020368800ec
:102fcc001134800000fc2f00008060000000a00085
:102fdc00103488000080fa00000006000000fa009f
:102fec002002a9000111800090ff2f0000806000da
:102ffc000011880020a2a9002062a8005005200022
:10300c004011880023a2a90023e2a9000188a9008d
:10301c002188a80011118000f0f32f0000806000bf
:10302c00101188000168a9002168a80021e2a800fd
:0c303c002342a8000080fa0000000600fb
:020000040000fa
:02000004000af0
:04afe000cfff00009f
:020000040000fa
:02000004000af0
:04afe400ffff00006b
:020000040000fa
:02000004000af0
:04afe8007fff0000e7
:020000040000fa
:02000004000af0
:04afec005fff000003
:020000040000fa
:02000004000af0
:04aff00038ff000026
:020000040000fa
:02000004000af0
:04aff400ffff00005b
:00000001FF
