:020000040000fa
:080000000002040000000000f2
:020000040000fa
:04000800de03000013
:020000040000fa
:04000c00de0300000f
:020000040000fa
:04001000de0300000b
:020000040000fa
:04001400de03000007
:020000040000fa
:04001800de03000003
:020000040000fa
:04001c00de030000ff
:020000040000fa
:04002000de030000fb
:020000040000fa
:04002400de030000f7
:020000040000fa
:04002800de030000f3
:020000040000fa
:04002c00de030000ef
:020000040000fa
:04003000de030000eb
:020000040000fa
:0400340002030000c3
:020000040000fa
:04003800de030000e3
:020000040000fa
:04003c00de030000df
:020000040000fa
:04004000de030000db
:020000040000fa
:04004400de030000d7
:020000040000fa
:04004800fa020000b8
:020000040000fa
:04004c00de030000cf
:020000040000fa
:04005000de030000cb
:020000040000fa
:040054009a0300000b
:020000040000fa
:040058007003000031
:020000040000fa
:04005c004c03000051
:020000040000fa
:04006000de030000bb
:020000040000fa
:04006400de030000b7
:020000040000fa
:04006800de030000b3
:020000040000fa
:04006c00de030000af
:020000040000fa
:04007000de030000ab
:020000040000fa
:04007400de030000a7
:020000040000fa
:04007800de030000a3
:020000040000fa
:04007c00de0300009f
:020000040000fa
:04008000de0300009b
:020000040000fa
:04008400de03000097
:020000040000fa
:04008800de03000093
:020000040000fa
:04008c00de0300008f
:020000040000fa
:04009000de0300008b
:020000040000fa
:040094002203000043
:020000040000fa
:04009800de03000083
:020000040000fa
:04009c00de0300007f
:020000040000fa
:0400a000de0300007b
:020000040000fa
:0400a400de03000077
:020000040000fa
:0400a800de03000073
:020000040000fa
:0400ac00de0300006f
:020000040000fa
:0400b000de0300006b
:020000040000fa
:0400b400de03000067
:020000040000fa
:0400b800de03000063
:020000040000fa
:0400bc00de0300005f
:020000040000fa
:0400c000de0300005b
:020000040000fa
:0400c400de03000057
:020000040000fa
:0400c800de03000053
:020000040000fa
:0400cc00de0300004f
:020000040000fa
:0400d000de0300004b
:020000040000fa
:0400d400de03000047
:020000040000fa
:0400d800de03000043
:020000040000fa
:0400dc00de0300003f
:020000040000fa
:0400e000de0300003b
:020000040000fa
:0400e400de03000037
:020000040000fa
:0400e800de03000033
:020000040000fa
:0400ec00de0300002f
:020000040000fa
:0400f000de0300002b
:020000040000fa
:0400f400de03000027
:020000040000fa
:0400f800de03000023
:020000040000fa
:0400fc00de0300001f
:020000040000fa
:04010000de0300001a
:020000040000fa
:04010400de03000016
:020000040000fa
:04010800de03000012
:020000040000fa
:04010c00de0300000e
:020000040000fa
:04011000de0300000a
:020000040000fa
:04011400de03000006
:020000040000fa
:04011800de03000002
:020000040000fa
:04011c00de030000fe
:020000040000fa
:04012000de030000fa
:020000040000fa
:04012400de030000f6
:020000040000fa
:04012800de030000f2
:020000040000fa
:04012c00de030000ee
:020000040000fa
:04013000de030000ea
:020000040000fa
:04013400de030000e6
:020000040000fa
:04013800de030000e2
:020000040000fa
:04013c00de030000de
:020000040000fa
:04014000de030000da
:020000040000fa
:04014400de030000d6
:020000040000fa
:04014800de030000d2
:020000040000fa
:04014c00de030000ce
:020000040000fa
:04015000de030000ca
:020000040000fa
:04015400de030000c6
:020000040000fa
:04015800de030000c2
:020000040000fa
:04015c00de030000be
:020000040000fa
:04016000de030000ba
:020000040000fa
:04016400de030000b6
:020000040000fa
:04016800de030000b2
:020000040000fa
:04016c00de030000ae
:020000040000fa
:04017000de030000aa
:020000040000fa
:04017400de030000a6
:020000040000fa
:04017800de030000a2
:020000040000fa
:04017c00de0300009e
:020000040000fa
:04018000de0300009a
:020000040000fa
:04018400de03000096
:020000040000fa
:04018800de03000092
:020000040000fa
:04018c00de0300008e
:020000040000fa
:04019000de0300008a
:020000040000fa
:04019400de03000086
:020000040000fa
:04019800de03000082
:020000040000fa
:04019c00de0300007e
:020000040000fa
:0401a000de0300007a
:020000040000fa
:0401a400de03000076
:020000040000fa
:0401a800de03000072
:020000040000fa
:0401ac00de0300006e
:020000040000fa
:0401b000de0300006a
:020000040000fa
:0401b400de03000066
:020000040000fa
:0401b800de03000062
:020000040000fa
:0401bc00de0300005e
:020000040000fa
:0401c000de0300005a
:020000040000fa
:0401c400de03000056
:020000040000fa
:0401c800de03000052
:020000040000fa
:0401cc00de0300004e
:020000040000fa
:0401d000de0300004a
:020000040000fa
:0401d400de03000046
:020000040000fa
:0401d800de03000042
:020000040000fa
:0401dc00de0300003e
:020000040000fa
:0401e000de0300003a
:020000040000fa
:0401e400de03000036
:020000040000fa
:0401e800de03000032
:020000040000fa
:0401ec00de0300002e
:020000040000fa
:0401f000de0300002a
:020000040000fa
:0401f400de03000026
:020000040000fa
:0401f800de03000022
:020000040000fa
:0401fc00de0300001e
:020000040000fa
:04020000de03000019
:020000040000fa
:04020400de03000015
:020000040000fa
:04020800de03000011
:020000040000fa
:04020c00de0300000d
:020000040000fa
:04021000de03000009
:020000040000fa
:04021400de03000005
:020000040000fa
:04021800de03000001
:020000040000fa
:04021c00de030000fd
:020000040000fa
:04022000de030000f9
:020000040000fa
:04022400de030000f5
:020000040000fa
:04022800de030000f1
:020000040000fa
:04022c00de030000ed
:020000040000fa
:04023000de030000e9
:020000040000fa
:04023400de030000e5
:020000040000fa
:04023800de030000e1
:020000040000fa
:04023c00de030000dd
:020000040000fa
:04024000de030000d9
:020000040000fa
:04024400de030000d5
:020000040000fa
:04024800de030000d1
:020000040000fa
:04024c00de030000cd
:020000040000fa
:04025000de030000c9
:020000040000fa
:04025400de030000c5
:020000040000fa
:04025800de030000c1
:020000040000fa
:04025c00de030000bd
:020000040000fa
:04026000de030000b9
:020000040000fa
:04026400de030000b5
:020000040000fa
:04026800de030000b1
:020000040000fa
:04026c00de030000ad
:020000040000fa
:04027000de030000a9
:020000040000fa
:04027400de030000a5
:020000040000fa
:04027800de030000a1
:020000040000fa
:04027c00de0300009d
:020000040000fa
:04028000de03000099
:020000040000fa
:10040000ef1c21000eff27000e01880000000000f5
:10041000000020000000e000020032000001200087
:100420002002880014000700e60007000000e0003a
:1004300003003a006079210001002000020037002b
:100440000000200001002000810f70000100320038
:100450000f000700000020000000e0000200320052
:100460000000020000000000b607020000000000cb
:100470000040da000000fe00800020000000e000e4
:1004800002003200002020009001880000000600d9
:10049000a1028800800478000000eb001f003700f4
:1004a000e284440054a0b4009905ba00e2844400f8
:1004b00054a0b4009906ba00e284440054a0b400e9
:1004c0000006eb00476fde00fd07b200ae018800ba
:1004d000636ce10003003a000ad801000000eb0061
:1004e0000e003700606ce10008003a00004deb00a0
:1004f0000a05e800020039003420ec000af0a000f0
:100500008b05e900f9ff3e00040037006168e10057
:10051000010032000086eb000b00070019c7ba008b
:100520000e04e0001905ba0003003a000a00e000da
:10053000dbff3a0000000600fe07b200ae028800b2
:100540008a047800f5ff37000cd0a300e20f4d00bd
:100550001c00390089027800354dba000a05e80010
:10056000020039003420ec000af0a0008b05e900fd
:100570000f003200254dba000a05e80002003900dc
:100580003420ec000af0a0008b05e90008003200de
:100590000c00e0000600320015cdba000a05e800a4
:1005a000020039003420ec000af0a0008b05e900bd
:1005b0008984e80054a0b4000b00e000e2ff3a0098
:1005c000000006009902ba00055d78008b05e9007d
:1005d000f7ff3200c82ade00055d78008b05e900d0
:1005e000f3ff32000c00e000f1ff320019ddba0029
:1005f000eeff37000000fa000108a9000080fa00b1
:10060000004006003600f800809fbe00829fbe00ba
:10061000849fbe00869fbe000000fa000068a9000b
:1006200075070700c10907000080fa004f03be00ec
:100630004f02be004f01be004f00be003600f90061
:10064000004006003600f800809fbe00829fbe007a
:10065000849fbe00869fbe000000fa000368a900c8
:10066000008080001180800061004000e080480030
:100670000080880011808800100307000080fa00c5
:100680004f03be004f02be004f01be004f00be0030
:100690003600f90000400600801f78000000fa00d4
:1006a00001a8a90000188000208e88001018800082
:1006b000308e880020188000408e8800301880001e
:1006c000508e880040188000608e880010c0b300f3
:1006d0001df0b7000080fa004f00780000400600cf
:1006e0003600f800809fbe00829fbe00849fbe003f
:1006f000869fbe000000fa000188a90041808000aa
:1007000030808000808f50000200320028090700ee
:10071000010037000a70ef000080fa004f03be00ae
:100720004f02be004f01be004f00be003600f90070
:10073000004006003600f800809fbe00829fbe0089
:10074000849fbe00869fbe000000fa000168a900d9
:1007500010118000640060000000e0000100320021
:100760002242a90010118000620060000000e00039
:10077000060032002222a900050037003011800057
:1007800000407800790907000100370000000000f0
:1007900010118000610060000000e000f7ff3a00e7
:1007a0000080fa004f03be004f02be004f01be00a2
:1007b0004f00be003600f900004006000040da009d
:1007c0000000fe000000050003f0a200889fbe00ac
:1007d0008a9fbe008c1f78002a0107003101330078
:1007e0006450e1004f0032006420e100520032000a
:1007f00003826c0007003b000905d0000306d0000f
:10080000820f54000c065d00020039000200320025
:1008100089017800030678008582550004003d00b8
:100820000003fd008103fd008502ea008b85420084
:10083000840f720002003b0060001000e08018008e
:100840006011b8000005eb007a28e1000a003900c9
:1008500006007800c75ddd00f707b20087807500ed
:100860002d003700828171000a0178006105600067
:100870008180d1000080d3008502e900f9ff3b00b0
:10088000060440008784480002003b006004140016
:10089000e0841c000988a300070032008a817100ef
:1008a00082817100610164008904d1000884d30051
:1008b0008b05e800170037000978a30013003a0001
:1008c0000b00e000130034008b05e900080444002d
:1008d00089844c000a4474000978a3000d003a0092
:1008e0000b00e000070034008b05e9000804440019
:1008f00089844c0001003a000b0020000978a30015
:10090000f7ff32000001eb00020037008281710026
:100910000a017800a00007000cf0a70001f0a00079
:10092000e90037006420e10002003a00838f6c0088
:10093000e90033000801be000200be00e2003700fb
:10094000889fbe008a9fbe008c1f7800cd000700e4
:10095000d400330003866c006450e1002e003200a6
:100960006420e100330032006150e1002f003200ca
:100970006120e1003100320085855500eb07b000b1
:100980000900200008042000050037000804440086
:1009900089844c000a0031000603430087834b0022
:1009a0000001530081815b00f8ff33000203be00a9
:1009b0000800a0000804440089844c00f6ff3900b8
:1009c000c639dd00830173000100320013002000ee
:1009d0008904d1000884d3000998a30005003200df
:1009e0000800a7000300a0008904d1000884d300f8
:1009f0008b05e8008904d1000884d3000001eb00d6
:100a00000281d2006400070001f0a1000cf0a700f1
:100a100001f0a000ac0037006420e100ae0032001d
:100a20000801be000200be00f7ff37006120e100b0
:100a3000a90032006000b800f3ff3700000020007a
:100a400001f82700f0ff3700839f68000100e000f5
:100a500002003d0060001000e08018000300e0008c
:100a600002003d0060011100e0811900d100070083
:100a70004f00e00002003b0060001000e080180022
:100a80000000060014002000da003700f4ff2f00f9
:100a9000d80037000001be00650007000470a70001
:100aa00003f0a1006509b100160032000d00350009
:100ab0006828e10006003500f0ff2f00f1ff270055
:100ac0000300e00013003b000100280000000500c7
:100ad00000004000818048008502e900fcff3a00e8
:100ae00008003700f88f420002003c008000eb0055
:100af000000005008100d1000080d3008502e800dd
:100b0000fcff3a000300e00002003b006000100020
:100b1000e0801800000006000001be00440007004d
:100b20000470a70003f0a10003f8a30013003a002b
:100b30006509b10010003200090035006928e100a4
:100b40000200350001002800000005000000400000
:100b5000818048008502e900fcff3a0000000600a1
:100b6000f88f4200050035008100d1000080d300dd
:100b70008502e800fcff3a00000006008000eb0060
:100b8000000005004f89de0082017800b4003700c4
:100b90006011b800c200370081002000618055005c
:100ba0000b003d000b00200061fe2f000100e10062
:100bb0001d00340082817100610164008904d1004c
:100bc0000884d3000000e800faff3a00710020001a
:100bd0006100640003007000020060000900320040
:100be00061044400e0844c000988a500050032003f
:100bf0008b05e8006808e10002003a008904d10092
:100c00000884d300f20f20000258e10005003d00e7
:100c1000c75ddd00f907b200898075000800780023
:100c2000000006000bf827008b007800000005008c
:100c3000c70ade00f107b200f50fb200080032006b
:100c4000e1cf4200020032000170a0002400050044
:100c5000810f700001003200040805004400050007
:100c6000810f700002003a00140005008502e900bf
:100c70000000400081c04800fcff3b000170a00064
:100c8000240005000004be00e9ff07000003be00c9
:100c90000405be000200be00e5ff0700844f75009a
:100ca000000006000200be006450e10005003600ae
:100cb0006420e100020036000968a30001003a0048
:100cc0000800be000160a0004f0678004f05be007e
:100cd0004f04be0000000600f0ff2f00f1ff2700c8
:100ce000f9ff3700889fbe008a9fbe008c1f7800e6
:100cf000e4ff0700ebff330003866c006450e10063
:100d0000240032006420e100270032006150e1003d
:100d1000220032006120e100210032008b85420078
:100d2000eb07b1000134b800003ab80008044200f3
:100d300089844a00013ab8000030b8008880400039
:100d400009014a000400330000004000818048008f
:100d5000020149008b05e900c909dd00830170002b
:100d60000100320013002000c814de004814dd002a
:100d70004709de001200b200c808de0008847000d7
:100d800085ff070001f0a1000cf0a70001f0a00012
:100d9000cdff37006120e100cfff32000801be0027
:100da0000200be00f7ff37006150e100fcff3a008f
:100db000c9ff37006022b800060220000000d00002
:100dc0008180d2000482d2008582d2000000a0007f
:100dd0000202520083825a000300310002024200e4
:100de00083824a000000a1000603e900f3ff3a00f5
:100df00000000600889fbe008a9fbe00841f780006
:100e0000a0ff07004f00780011003300f0ff2f0013
:100e1000838f6c0006003b00040565000a00a700f4
:100e20000800370009f0a600100020000800370075
:100e3000820f5400838f5c000300390010002000f3
:100e400001003e000000200009f0a7000000ea00b9
:100e50004f05be004f04be000000e0000000060089
:100e6000881f7800030478000300e00007003d00bd
:100e700060001000e080180060011900e081190096
:100e800002003b0001f02d000300370004000700c2
:100e900008f0a70001f0a0004f0478000000060051
:100ea000889fbe008a9fbe0000827000040271000d
:100eb00004827100260032000004be000200be0061
:100ec0006011b8006b092000950220000182cf005c
:100ed0000a0039000541b1000082cf000700390047
:100ee0000541b1000982cf00040039000541b1007d
:100ef0000882cf00010039000541b10005425200cf
:100f0000120032000a003b0082817100610164001e
:100f10008100d1000080d3008984d3000884d300ed
:100f20008b05e8000442e800f7ff3a0007003700ad
:100f30000804440089844c00000048008180480077
:100f40008b05e9000442e900f9ff3a0012ff0700af
:0c0f50004f05be004f04be00000006006c
:020000040000fa
:100f5c00426f00006e6a00006f75000072000000a6
:020000040000fa
:100f6c001000fa00881f7800c2070700120807005b
:100f7c00bc030700ef030700ec0407002e07070073
:100f8c006b04070027080700010037000000000071
:100f9c006b070700e14f5000fcff3a006c0707009d
:100fac0063070700000f78001e80e800100078002f
:100fbc008000eb00f3fe07003233230033052400de
:100fcc0045ff0700020020000358240059fe0700cb
:100fdc00d2cc2c00c30424003fff0700100798005c
:100fec00210798001e019000ae0190000000200027
:100ffc00812024004ffe070002002000030a240079
:10100c00eefd0700a08d8800b18d88009e00780051
:10101c0064804000100078008000eb00d9fe0700cf
:10102c0032332300330524002bff0700020020007d
:10103c00035824003ffe0700d2cc2c00c30424002c
:10104c0025ff070010079800210798001e0190004b
:10105c00ae019000000020008120240035fe070026
:10106c0002002000030a2400d4fd0700c08d880074
:10107c00d18d88001e0178006800410010007800b6
:10108c008000eb00bffe0700323323003305240041
:10109c0011ff0700020020000358240025fe070062
:1010ac00d2cc2c00c30424000bff070010079800bf
:1010bc00210798001e019000ae0190000000200056
:1010cc00812024001bfe070002002000030a2400dc
:1010dc00bafd0700e08d8800f18d88009e00780035
:1010ec0066804000100078008000eb00a5fe070031
:1010fc003233230033052400f7fe070002002000e2
:10110c00035824000bfe0700d2cc2c00c30424008f
:10111c00f1fe070010079800210798001e019000af
:10112c00ae019000000020008120240001fe070089
:10113c0002002000030a2400a0fd0700008e880096
:10114c00118e88001e007800100078008000eb00e3
:10115c008cfe07003233230033052400defe07002b
:10116c000200200003582400f2fd0700d2cc2c0012
:10117c00c3042400d8fe070010079800210798002c
:10118c001e019000ae019000000020008120240080
:10119c00e8fd070002002000030a240087fd070079
:1011ac00808d8800918d8800a08d8000b18d80008d
:1011bc0018c0b30002002000031a24002efe070002
:1011cc000000e000010035000044eb000804e000e2
:1011dc0002003200254ea80001003700254ea90060
:1011ec00c08d8000d18d800018c0b300020020009b
:1011fc00031a240020fe07000000e0000100350067
:10120c000044eb000804e0000200320064eea80089
:10121c000100370064eea900e08d8000f18d8000a4
:10122c0018c0b30002002000031a240012fe0700ad
:10123c000000e000010035000044eb000804e00071
:10124c000200320064cea8000100370064cea90071
:10125c0091808000a000200000017800110009009e
:10126c008200d8008000fd000000e0000c003a0075
:10127c00e8004700e27a280006000900b25878001e
:10128c0070002000300798006800470000017800cb
:10129c00be00900000082000b60507001230ef00d9
:1012ac00908080000000e8009080880038ff3700b4
:1012bc000000fa0014d0bf000080fb00cf80de00dd
:1012cc005201200003002000820f5000838f580031
:1012dc00a7003e0000060100150037001e00370075
:1012ec002700370031003700320037003c00370050
:1012fc003d003700470037004800370052003700e8
:10130c00530037005d003700990037009800370014
:10131c00830037008d0037005a0037006400370017
:10132c00650037006f003700700037007a00370017
:10133c000030ef000230ef000041eb006000b8001d
:10134c001604070012c0b3006000b80013040700b5
:10135c0010c0b30014f0b70002808000138080002e
:10136c00803e200001002000800f5100818f590029
:10137c008200360020c0b30014f0b70082003700a2
:10138c000041eb0000002000811c2c00030407002e
:10139c0012c0b30000002000811c2400ff030700d2
:1013ac0030c0b30014f0b700770037008800070096
:1013bc00750037000041eb0000002000011a2c00e2
:1013cc00f603070012c0b30000002000010a2c0035
:1013dc00f203070050c0b30014f0b7006a003700e6
:1013ec007b000700680037000041eb000000200084
:1013fc00010a2400e903070012c0b300000020001a
:10140c00011a2400e503070070c0b30014f0b70004
:10141c005d0037006e0007005b0037000041eb00f9
:10142c000000200001172c00dc03070012c0b300e1
:10143c000000200001172c00d803070090c0b30057
:10144c0014f0b70050003700610007004e00370061
:10145c000041eb000000200001172400cf0307001f
:10146c0012c0b3000000200001172400cb030700ba
:10147c00b0c0b30014f0b7004300370054000700ad
:10148c00410037000041eb000000200001172c0048
:10149c00c203070012c0b300000020000117240093
:1014ac00be03070010c1b30014f0b70036003700bc
:1014bc0047000700340037000041eb00000020001b
:1014cc0001122c00b503070012c0b300000020006d
:1014dc00011a2400b103070030c1b30014f0b700a7
:1014ec00290037003a000700270037000041eb00c5
:1014fc0000002000011a2c00a803070012c0b30042
:10150c000000200001122400a403070050c1b30006
:10151c0014f0b7001c0037002d0007001a0037002c
:10152c000041eb0000002000011224009b03070087
:10153c0012c0b3000000200001122c00970307001a
:10154c00f0c0b30014f0b7000f0037000280800029
:10155c0013808000803e200001002000800f51008d
:10156c00818f59000700360019000700060037006c
:10157c001470ef00000000000300370000000000b2
:10158c0001003700000000000080fa000000060097
:10159c000800fa00100798002107980032079800fd
:1015ac0010002000000f78001e0190009e007800b3
:1015bc0000032000ef0407001230ef0000a8210008
:1015cc0061002000af0607000080fa000000060052
:1015dc000200fa00881f78000040eb00004f7800f2
:1015ec00a08d8000b18d800018c0b30002002000d7
:1015fc00031a240020fd07000000e0000100350064
:10160c000044eb000804e0002f003200c08d800085
:10161c00d18d800018c0b30002002000031a2400f2
:10162c0015fd07000000e000010035000044eb0050
:10163c000804e00024003200e08d8000f18d800071
:10164c0018c0b30002002000031a24000afd070092
:10165c000000e000010035000044eb000804e0004d
:10166c0019003200808d8000918d800018c0b3006d
:10167c0002002000031a2400fffc07000000e00019
:10168c00010035000044eb000804e0000e003200bd
:10169c00008e8000118e800018c0b3000200200064
:1016ac00031a2400f4fc07000000e00001003500e0
:1016bc000044eb000804e0000300320080c0b300db
:1016cc00004f780088013700a08d8000b18d80001c
:1016dc0018c0b30002002000031a2400e6fc070027
:1016ec000000e000010035000044eb000804e000bd
:1016fc0019003200c08d8000d18d800018c0b3005d
:10170c0002002000031a2400dbfc07000000e000ac
:10171c00010035000044eb000804e0000e0032002c
:10172c00e08d8000f18d800018c0b3000200200015
:10173c00031a2400d0fc07000000e0000100350073
:10174c000044eb000804e00003003200c0c0b3000a
:10175c00004f780064013700a08d8000b18d8000af
:10176c0018c0b30002002000031a2400c4fc0700b8
:10177c000000e00001003c000044eb000804e00025
:10178c002f003200c08d8000d18d800018c0b300b6
:10179c0002002000031f2400b9fc07000000e00039
:1017ac0001003c000044eb000804e000240032007f
:1017bc00e08d8000f18d800018c0b3000200200085
:1017cc00031a2400aefc07000000e00001003c00fe
:1017dc000044eb000804e00019003200808d80000a
:1017ec00918d800018c0b300020020000312240069
:1017fc00a1fc07000000e000010035000044eb00f4
:10180c000804e0000e003200008e8000118e800073
:10181c0018c0b300020020000312240096fc07003d
:10182c000000e000010035000044eb000804e0007b
:10183c0003003200d0c0b300004f78002a013700fb
:10184c00a08d8000b18d800018c0b3000200200074
:10185c000312240088fc07000000e00001003500a2
:10186c000044eb000804e00019003200c08d800039
:10187c00d18d800018c0b30002002000031f24008b
:10188c007ffc07000000e00001003c000044eb007e
:10189c000804e0000e003200e08d8000f18d800025
:1018ac0018c0b300020020000312240072fc0700d1
:1018bc000000e000010035000044eb000804e000eb
:1018cc000300320040c0b300004f7800060137001f
:1018dc00a08d8000b18d800018c0b30002002000e4
:1018ec00031f240064fc07000000e0000100350029
:1018fc000044eb000804e00019003200c08d8000a9
:10190c00d18d800018c0b30002002000031f2400fa
:10191c005bfc07000000e00001003c000044eb0011
:10192c000804e0000e003200e08d8000f18d800094
:10193c0018c0b30002002000031f240050fc070055
:10194c000000e00001003c000044eb000804e00053
:10195c000300320020c0b300004f7800e2003700d3
:10196c00a08d8000b18d800018c0b3000200200053
:10197c00031f240042fc07000000e00001003c00b3
:10198c000044eb000804e00019003200c08d800018
:10199c00d18d800018c0b30002002000031f24006a
:1019ac0037fc07000000e00001003c000044eb00a5
:1019bc000804e0000e003200e08d8000f18d800004
:1019cc0018c0b30002002000031f24002afc0700eb
:1019dc000000e000010035000044eb000804e000ca
:1019ec000300320010c0b300004f7800be00370077
:1019fc00c08d8000d18d800018c0b3000200200083
:101a0c00031a24001cfc07000000e0000100350054
:101a1c000044eb000804e0000300320060c0b30097
:101a2c00004f7800b0003700c08d8000d18d800051
:101a3c0018c0b30002002000831c24000efc070019
:101a4c000000e000010035000044eb000804e00059
:101a5c000e003200c08d8000d18d800018c0b30004
:101a6c0002002000031a240005fc07000000e0001f
:101a7c0001003c000044eb000804e00003003200cd
:101a8c0070c0b300004f780097003700a08d800025
:101a9c00b18d800018c0b30002002000031f240089
:101aac00f7fb07000000e00001003c000044eb00e5
:101abc000804e0002f003200c08d8000d18d800022
:101acc0018c0b30002002000031f2400ecfb070029
:101adc000000e00001003c000044eb000804e000c2
:101aec0024003200e08d8000f18d800018c0b3001e
:101afc0002002000031f2400e1fb07000000e000af
:101b0c0001003c000044eb000804e0001900320026
:101b1c00808d8000918d800018c0b30002002000e1
:101b2c00031a2400d4fb07000000e000010035007c
:101b3c000044eb000804e0000e003200008e800030
:101b4c00118e800018c0b30002002000031f240077
:101b5c00cbfb07000000e00001003c000044eb0060
:101b6c000804e00003003200e0c0b300004f78002e
:101b7c005d003700a08d8000b18d800018c0b300cf
:101b8c0002002000031f2400bdfb07000000e00042
:101b9c0001003c000044eb000804e0002f00320080
:101bac00c08d8000d18d800018c0b30002002000d1
:101bbc00031f2400b2fb07000000e00001003c0002
:101bcc000044eb000804e00024003200e08d8000ab
:101bdc00f18d800018c0b30002002000031f240008
:101bec00a7fb07000000e00001003c000044eb00f4
:101bfc000804e00019003200808d8000918d800077
:101c0c0018c0b30002002000031f24009cfb070037
:101c1c000000e00001003c000044eb000804e00080
:101c2c000e003200008e8000118e800018c0b300b0
:101c3c0002002000031a24008ffb07000000e000c4
:101c4c00010035000044eb000804e0000300320002
:101c5c00f0c0b300004f780023003700a08d800047
:101c6c00b18d800018c0b30002002000031f2400b7
:101c7c0083fb07000000e00001003c000044eb0087
:101c8c000804e00018003200c08d8000d18d800067
:101c9c0018c0b30002002000031f240078fb0700cb
:101cac000000e00001003c000044eb000804e000f0
:101cbc000d003200e08d8000f18d800018c0b30063
:101ccc0002002000031f24006dfb07000000e00051
:101cdc0001003c000044eb000804e000020032006c
:101cec000040eb00004f78001e407800e84f500099
:101cfc0003003a00e0c0b30015f0b7004d00370008
:101d0c001e407800ea4f500003003a0080c0b30038
:101d1c0015f0b700470037001e407800eb4f50001d
:101d2c0003003a0080c0b30015f0b7004100370043
:101d3c001e407800ec4f500003003a0080c0b30006
:101d4c0015f0b7003b0037001e407800ed4f5000f7
:101d5c0003003a0000c1b30015f0b700350037009e
:101d6c001e407800e44f500003003a0080c0b300de
:101d7c0015f0b7002f0037001e407800e34f5000dd
:101d8c0003003a0000c1b30015f0b700290037007a
:101d9c001e407800e24f500003003a0040c0b300f0
:101dac0015f0b700230037001e407800e14f5000bb
:101dbc0003003a0060c0b30015f0b7001d003700f7
:101dcc001e407800e64f500003003a0080c0b3007c
:101ddc0015f0b700170037001e407800e74f500091
:101dec0003003a0000c1b30015f0b7001100370032
:101dfc001e407800ee4f500003003a0040c1b30083
:101e0c0015f0b7000b0037001e407800ef4f500064
:101e1c0003003a0020c1b30015f0b70005003700ed
:101e2c001e4078000004e00002003a0020c0b3001d
:101e3c0015f0b70015d0bf008080fb0014d0bf0098
:101e4c000080fb000000e900808f5000020032008f
:101e5c0015d0bf0014f0b7004f0478000080fa00d2
:101e6c00000006000400fa0013e1a90011e1a9002a
:101e7c001061a8001021a90081088000f0fc2f003f
:101e8c00008060000040a000800888000a21ef005c
:101e9c000621ef00404c20007008880000402b0009
:101eac0060088800800880004400de006340600009
:101ebc000081fb008001eb00700880008000eb00cb
:101ecc00c002dd0004002000600880008000eb00f0
:101edc000400400085804800809ab900828bb900cc
:101eec0086027800050242000010b8000102420090
:101efc00840078000001be0000a0250021262000ef
:101f0c00cefa07001cfb0700008fbe0021428000a8
:101f1c0080ff2f00008060000000a000204288009d
:101f2c000108a9002108a80011e1a8000080fa000e
:101f3c00000006000000fa0005e1a9000421a90038
:101f4c0000002000812c2400050007000068a90077
:101f5c002068a80005e1a8000080fa000000060037
:101f6c000400fa00881f7800008fbe002108800052
:101f7c00f0fc2f0000806000200888001e01780013
:101f8c009e0190000068290081c1240069fa0700b5
:101f9c0018c0b30002f02f00f3772400b8fa070042
:101fac000000e00001003c000044eb000804e000ed
:101fbc005400320021088000f0fc2f0000806000eb
:101fcc000040a000200888001e0178009e019000af
:101fdc000068290081c1240056fa07000200200085
:101fec000310240053fa070018c0b30002f02f00ae
:101ffc00f3772400a2fa07000000e00001003c0087
:10200c000044eb000804e00032003200210880009c
:10201c00f0fc2f00008060000050a0002008880019
:10202c001e0178009e0190000068290081c12400e7
:10203c0040fa070002002000032824003dfa0700a4
:10204c0018c0b30002f02f00f37724008cfa0700bd
:10205c000000e00001003c000044eb000804e0003c
:10206c0010003200210880000003200001007000e5
:10207c00200888001e0178009e019000006829004d
:10208c0081c124002bfa0700020020000338240031
:10209c0028fa07007cfa0700000078001008880076
:1020ac00200037001e0178009e0190000068290076
:1020bc0081c124001ffa070002002000032824001d
:1020cc001cfa070070fa070000007800100888005e
:1020dc00140037001e0178009e0190000068290052
:1020ec0081c1240013fa0700020020000310240011
:1020fc0010fa070064fa0700000078001008880046
:10210c00080037001e0178009e019000006829002d
:10211c0081c1240007fa07005bfa07000000780071
:10212c00100888004f0478000080fa0000000600b8
:10213c000000fa0000002000a1472400070007005f
:10214c001fe1a9001e21a9000368a9002368a800ab
:10215c001fe1a8000080fa00000006000400fa004d
:10216c00881f7800008fbe00f1088000f0fc2f0063
:10217c0000806000f00888001e0178009e0190002d
:10218c000068290081c12400eaf9070018c0b300d7
:10219c0002f02f00f377240039fa07000000e0006a
:1021ac0001003c000044eb000804e0005400320045
:1021bc00f1088000f0fc2f00008060000040a000bf
:1021cc00f00888001e0178009e019000006829002c
:1021dc0081c12400d7f9070002002000031024005d
:1021ec00d4f9070018c0b30002f02f00f3772400d5
:1021fc0023fa07000000e00001003c000044eb0063
:10220c000804e00032003200f1088000f0fc2f00de
:10221c00008060000050a000f00888001e017800cb
:10222c009e0190000068290081c12400c1f90700bb
:10223c000200200003282400bef9070018c0b300d8
:10224c0002f02f00f37724000dfa07000000e000e5
:10225c0001003c000044eb000804e00010003200d8
:10226c00f10880000003200001007000f0088800d5
:10227c001e0178009e0190000068290081c1240095
:10228c00acf907000200200003382400a9f907006c
:10229c00fdf9070000007800d00888002000370006
:1022ac001e0178009e0190000068290081c1240065
:1022bc00a0f9070002002000032824009df9070064
:1022cc00f1f9070000007800d008880014003700ee
:1022dc001e0178009e0190000068290081c1240035
:1022ec0094f90700020020000310240091f9070064
:1022fc00e5f9070000007800d008880008003700d6
:10230c001e0178009e0190000068290081c1240004
:10231c0088f90700dcf9070000007800d008880075
:10232c004f0478000080fa00000006000000fa005c
:10233c001160800080ff2f0000806000106088001a
:10234c0000fa20002060880023aca800238ca80091
:10235c0011618000f03f2f000080600000a0a00001
:10236c00106188003000200020618800c3aca800f8
:10237c00c38ca80011668000f03f2f000080600025
:10238c0000a0a000106688003000200020668800a5
:10239c0001eca8000080fa00000006000600fa001c
:1023ac00008fbe00424798004e4090000004e000b1
:1023bc0005003a001e0178009e019000428d8800b5
:1023cc00538d8800070037004e409000e14f5000bd
:1023dc0004003a001e0178009e019000028d8800d6
:1023ec00138d88000080fa00000006000000fa003f
:1023fc00889fbe008a9fbe00648d8000758d800012
:10240c00408d8000518d800018c0b3000001be00cb
:10241c000400be0098f907000000e0000100350040
:10242c000044eb000804e0000f003200488d8000ef
:10243c00598d80006a8d80007b8d80001ad0bf0082
:10244c000080fb00cf80de00cbf907000001be004e
:10245c000a00be00daf807000801be00bc00070045
:10246c00608d8800718d8800648d8000758d800072
:10247c00408d8000518d800018c0b3000001be005b
:10248c000400be007ef907000000e00001003c00e3
:10249c000044eb000804e0000f003200488d80007f
:1024ac00598d80006a8d80007b8d80001ad0bf0012
:1024bc000080fb00cf80de00aff907000001be00fa
:1024cc000a00be00bdf807000801be008800070026
:1024dc00608d8800718d8800608d8000718d80000a
:1024ec0018c0b3006011b80065f907000000e000e7
:1024fc0001003c000044eb000804e0000400320042
:10250c00c3cca90024eea800c3eca800030037003c
:10251c00c3eca90024cea800c3cca800608d800019
:10252c00718d80005c000700020020000322240053
:10253c00e9f9070075f9070000007800306688009b
:10254c00248d8000358d8000008d8000118d8000e1
:10255c0018c0b3000001be000400be0046f907001d
:10256c000000e000010035000044eb000804e0002e
:10257c000f003200088d8000198d80002a8d80009c
:10258c003b8d80001ad0bf000080fb00cf80de00a6
:10259c0079f907000001be000a00be0088f80700a8
:1025ac000801be006a000700208d8800318d88006c
:1025bc00248d8000358d8000008d8000118d800071
:1025cc0018c0b3000001be000400be002cf90700c7
:1025dc000000e00001003c000044eb000804e000b7
:1025ec000f003200088d8000198d80002a8d80002c
:1025fc003b8d80001ad0bf000080fb00cf80de0036
:10260c005df907000001be000a00be006bf8070070
:10261c000801be0036000700208d8800318d88002f
:10262c00208d8000318d800018c0b3006011b8007f
:10263c0013f907000000e00001003c000044eb002f
:10264c000804e0000400320023cca90015eea80019
:10265c0023eca8000300370023eca90015cea8003a
:10266c0023cca800208d8000318d80000a0007004b
:10267c00020020000322240097f9070023f9070029
:10268c0000007800306188004f05be004f04be008a
:10269c000080fa00000006000400fa00881f780091
:1026ac00008fbe0018c0b3006011b8001e00780087
:1026bc009e009000f2f807000000e00001003d00d1
:1026cc000044eb000804e000030032001e00780018
:1026dc009e009000030037001e0078009e009000c2
:1026ec0001f0a2004f0478000080fa000000060000
:1026fc000800fa00881f7800008fbe00220798009f
:10270c003307980018c0b3002e019000be01900052
:10271c001e0078009e009000d9f807000000e00031
:10272c0001003c000044eb000804e0000300320010
:10273c001e0078009e009000020037002e009000d2
:10274c00be0090004f0478000080fa0000000600e4
:10275c000800fa00881f7800008fbe00220798003e
:10276c003307980018c0b3002e019000be019000f2
:10277c001e0078009e009000bff807000000e000eb
:10278c00010035000044eb000804e00003003200b7
:10279c001e0078009e009000020037002e00900072
:1027ac00be0090004f0478000080fa000000060084
:1027bc000c00fa00881f7800008fbe0022079800da
:1027cc0033079800440798005507980018c0b300c9
:1027dc004e019000de0190001e0078009e009000db
:1027ec00a7f807000000e00001003c000044eb00eb
:1027fc000804e000040032004e019000de0190005d
:10280c00028fbe000e00370018c0b3002e019000de
:10281c00be0190001e0078009e00900096f8070004
:10282c000000e000010035000044eb000804e0006b
:10283c00030032002e019000be019000028fbe00fa
:10284c001e0078009e0090004f0478000080fa0073
:10285c00000006000400fa00008fbe00b2fd20004c
:10286c00930424001e0078009e00900031f80700ad
:10287c00020020004333240017f907000080fa00ff
:10288c00000006000400fa00008fbe00b2fd20001c
:10289c00930424001e0078009e0090000ef907009f
:1028ac00020020004333240022f807000080fa00c5
:1028bc00000006000a00fa00200798003107980073
:1028cc0042079800e0cfb300004f78002e00900034
:1028dc004880de00804078001e40780000c0680010
:1028ec00004f78002e009000804078001e40780049
:1028fc0000c06800004f78003e0090004880de0069
:10290c00804078001e40780000c06800004f7800be
:10291c003e009000804078001e40780000c06800a7
:10292c00004f78000000eb00100798000000eb004f
:10293c0010079800080037001e009000ce00900091
:10294c0000804000104078001e4f68001e00900070
:10295c000000e800100798009e0090003e009000d8
:10296c00808f5000f4ff35001e4078000080fa0084
:10297c00000006000e00fa0040079800510798006e
:10298c00620798006e019000de0090004e009000ef
:10299c00c8ff0700404798000000eb00000f7800cc
:1029ac001e007800be00900000804000e1cfb30014
:1029bc00014878001e0fe8001e007800be00900051
:1029cc0000804000ce009000c888de008140780076
:1029dc00014878001e0fe8001e007800be00900031
:1029ec0000804000ce0090008140780001487800c3
:1029fc001e0fe8001e007800be0090000080400012
:102a0c00de009000c888de00814078000148780024
:102a1c001e0fe8001e007800be00900000804000f1
:102a2c00de00900081407800014878001e0fe8001d
:102a3c000000eb00100798000000eb001007980056
:102a4c000c0037001e007800be0090000080400093
:102a5c009e0090006e019000810041009140780032
:102a6c00014878001e0fe8001e0090000000e800ee
:102a7c00100798009e0090005e009000808f500020
:102a8c00f0ff35001e007800be0090000080400072
:102a9c00ce409000014878001e0fe8009e007800a0
:102aac003e009000020007000080fa0000000600c3
:102abc000600fa0010079800210798000040eb0070
:102acc00004f7800110037000040eb00004f7800f9
:102adc00060037001e80fb009e0090000080400026
:102aec00104078000f0007001e4fe8009e80fb008e
:102afc002e009000808f5000f6ff3500320007004a
:102b0c000004e00001003a00260007004300070023
:102b1c00ae009000810f5000ebff3c000080fa00eb
:102b2c00000006000200fa00004f780030808000a0
:102b3c00e1012100008040001e48780030808000b8
:102b4c000000e8003080880031808000f007200011
:102b5c00808f5000010034000630ef000080fa0036
:102b6c00000006000200fa0040808000e101210014
:102b7c0000804000104f7800408080000000e8008a
:102b8c004080880041808000f0072000808f50003a
:102b9c00010034000830ef001e4078000080fa007d
:102bac00000006000200fa0010c0b3000af0b700e3
:102bbc00ecff0700004f78001e80fb0020118800fe
:102bcc000080fa00000006000000fa000ad0bf00e6
:102bdc000080fa00000006000200fa00318080003c
:102bec0040808000808f50000400350031808000d0
:102bfc0040808000008f500005003700318080003d
:102c0c00408080000080500001082000010f40002f
:102c1c001e0078000080fa00000006000200fa0096
:102c2c00edff070001082000008f50001e00780007
:102c3c000080fa00000006000000fa0021e3a90061
:102c4c002143a80001198000f0cf2f000080600004
:102c5c00001988002043a90001198000000e2000f3
:102c6c00010070000019880011198000f0ff21008c
:102c7c0000806000101988002343a80011198000ff
:102c8c00f0cf2f000080600010198800111980000f
:102c9c0030f82f00008060000040a0001019880060
:102cac002203a9002223a90025e3a900f0c0b30048
:102cbc0024e3b70021198000f00f2e008080600003
:102ccc0000f0200001007000201988003303a900d7
:102cdc002e0ea8002f6ea8006f2ea8001e2ea80086
:102cec004feea80030c3a8003163a8002e03a80043
:102cfc003063a80031e3a8004119800000fc2f00cc
:102d0c00008060004019880028e3a90001a8a900f0
:102d1c0021a8a80021e3a8000080fa00000006000a
:102d2c000000fa002023a8000080fa000000060032
:102d3c000000fa00401c21000080fa000000060090
:102d4c000000fa001dd0bf000080fa000000060051
:102d5c000000fa001d70ef000080fa000000060071
:102d6c000200fa00004f78002a0007000000e00083
:102d7c000c003400b0808000e1092100008040008c
:102d8c001e487800b08080000000e800b080880009
:102d9c00b180800000082000808f500001003400ba
:102dac001630ef000080fa00000006000200fa0066
:102dbc00c0808000e109210000804000104f7800a5
:102dcc00c08080000000e800c0808800c1808000c6
:102ddc0000082000808f5000010034001830ef00f4
:102dec001e4078000080fa00000006000000fa0087
:102dfc00b1808000c0808000808f500002003200c3
:102e0c0010c0b300010037000040eb000080fa0056
:102e1c00000006000200fa0005000700010820006f
:102e2c00008f50001e0078000080fa0000000600a1
:102e3c000200fa00b1808000c0808000808f5000ba
:102e4c0004003500b1808000c0808000008f5000ed
:102e5c0005003700b1808000c080800000805000e9
:102e6c0001082000010f40001e0078000080fa00cd
:102e7c00000006000000fa00f0032000303a880041
:102e8c00213a8000f0f32f0000806000203a880087
:102e9c00213a800000fe2f00008060000000a0009e
:102eac00203a88001200200080072000a109200091
:102ebc003374200080497800814978008249780079
:102ecc00103a8000000178000200a000600420008d
:102edc007105200023742000804978008149780016
:102eec008249780000000000113a800000002700a1
:102efc008080600000002100808f5000faff3a00b3
:102f0c0000000000113a80000002200000806000e8
:102f1c000000e000fbff32000080fa000000060019
:020000040000fa
:102f2c0012100000040000008000000000100000df
:102f3c0006000000800000009e110000260000002a
:102f4c00800000001a100000020000008200000047
:102f5c0007000000c41100000a00000080000000ff
:102f6c001c10000002000000800000001e10000079
:102f7c008000000080000000061000000600000029
:102f8c00800000009e100000800000008000000007
:102f9c001610000004000000800000001e1100004c
:102fac0080000000800000000c10000006000000f3
:082fbc0080000000000000008d
:020000040000fa
:102fc4000000fa000e2eef001e2eef002e2eef0052
:102fd4003e2eef004e2eef005e2eef006e2eef0021
:102fe400214ea90060cea90060eea90011cea9006f
:102ff40011eea90020cea90020eea9002136800000
:1030040000f82f00008060008001b30020368800a3
:103014001134800000fc2f00008060000000a0003c
:10302400103488000080fa00000006000000fa0056
:103034002002a9000111800090ff2f000080600091
:103044000011880020a2a9002062a80050052000d9
:103054004011880023a2a90023e2a9000188a90045
:103064002188a80011118000f0f32f000080600077
:10307400101188000168a9002168a80021e2a800b5
:0c3084002342a8000080fa0000000600b3
:020000040000fa
:10309000f03fb1000180b10006003500ee030900e9
:1030a00000000000403fb1000180b100fbff3d0087
:1030b0001000b000203fb000020035000080090081
:0830c000000000000000060002
:020000040000fa
:02000004000af0
:04afe000cfff00009f
:020000040000fa
:02000004000af0
:04afe400ffff00006b
:020000040000fa
:02000004000af0
:04afe8007fff0000e7
:020000040000fa
:02000004000af0
:04afec005fff000003
:020000040000fa
:02000004000af0
:04aff00038ff000026
:020000040000fa
:02000004000af0
:04aff400ffff00005b
:00000001FF
