:020000040000fa
:080000000002040000000000f2
:020000040000fa
:04000800e20300000f
:020000040000fa
:04000c00e20300000b
:020000040000fa
:04001000e203000007
:020000040000fa
:04001400e203000003
:020000040000fa
:04001800e2030000ff
:020000040000fa
:04001c00e2030000fb
:020000040000fa
:04002000e2030000f7
:020000040000fa
:04002400e2030000f3
:020000040000fa
:04002800e2030000ef
:020000040000fa
:04002c00e2030000eb
:020000040000fa
:04003000e2030000e7
:020000040000fa
:0400340006030000bf
:020000040000fa
:04003800e2030000df
:020000040000fa
:04003c00e2030000db
:020000040000fa
:04004000e2030000d7
:020000040000fa
:04004400e2030000d3
:020000040000fa
:04004800fe020000b4
:020000040000fa
:04004c00e2030000cb
:020000040000fa
:04005000e2030000c7
:020000040000fa
:040054009e03000007
:020000040000fa
:04005800740300002d
:020000040000fa
:04005c00500300004d
:020000040000fa
:04006000e2030000b7
:020000040000fa
:04006400e2030000b3
:020000040000fa
:04006800e2030000af
:020000040000fa
:04006c00e2030000ab
:020000040000fa
:04007000e2030000a7
:020000040000fa
:04007400e2030000a3
:020000040000fa
:04007800e20300009f
:020000040000fa
:04007c00e20300009b
:020000040000fa
:04008000e203000097
:020000040000fa
:04008400e203000093
:020000040000fa
:04008800e20300008f
:020000040000fa
:04008c00e20300008b
:020000040000fa
:04009000e203000087
:020000040000fa
:04009400260300003f
:020000040000fa
:04009800e20300007f
:020000040000fa
:04009c00e20300007b
:020000040000fa
:0400a000e203000077
:020000040000fa
:0400a400e203000073
:020000040000fa
:0400a800e20300006f
:020000040000fa
:0400ac00e20300006b
:020000040000fa
:0400b000e203000067
:020000040000fa
:0400b400e203000063
:020000040000fa
:0400b800e20300005f
:020000040000fa
:0400bc00e20300005b
:020000040000fa
:0400c000e203000057
:020000040000fa
:0400c400e203000053
:020000040000fa
:0400c800e20300004f
:020000040000fa
:0400cc00e20300004b
:020000040000fa
:0400d000e203000047
:020000040000fa
:0400d400e203000043
:020000040000fa
:0400d800e20300003f
:020000040000fa
:0400dc00e20300003b
:020000040000fa
:0400e000e203000037
:020000040000fa
:0400e400e203000033
:020000040000fa
:0400e800e20300002f
:020000040000fa
:0400ec00e20300002b
:020000040000fa
:0400f000e203000027
:020000040000fa
:0400f400e203000023
:020000040000fa
:0400f800e20300001f
:020000040000fa
:0400fc00e20300001b
:020000040000fa
:04010000e203000016
:020000040000fa
:04010400e203000012
:020000040000fa
:04010800e20300000e
:020000040000fa
:04010c00e20300000a
:020000040000fa
:04011000e203000006
:020000040000fa
:04011400e203000002
:020000040000fa
:04011800e2030000fe
:020000040000fa
:04011c00e2030000fa
:020000040000fa
:04012000e2030000f6
:020000040000fa
:04012400e2030000f2
:020000040000fa
:04012800e2030000ee
:020000040000fa
:04012c00e2030000ea
:020000040000fa
:04013000e2030000e6
:020000040000fa
:04013400e2030000e2
:020000040000fa
:04013800e2030000de
:020000040000fa
:04013c00e2030000da
:020000040000fa
:04014000e2030000d6
:020000040000fa
:04014400e2030000d2
:020000040000fa
:04014800e2030000ce
:020000040000fa
:04014c00e2030000ca
:020000040000fa
:04015000e2030000c6
:020000040000fa
:04015400e2030000c2
:020000040000fa
:04015800e2030000be
:020000040000fa
:04015c00e2030000ba
:020000040000fa
:04016000e2030000b6
:020000040000fa
:04016400e2030000b2
:020000040000fa
:04016800e2030000ae
:020000040000fa
:04016c00e2030000aa
:020000040000fa
:04017000e2030000a6
:020000040000fa
:04017400e2030000a2
:020000040000fa
:04017800e20300009e
:020000040000fa
:04017c00e20300009a
:020000040000fa
:04018000e203000096
:020000040000fa
:04018400e203000092
:020000040000fa
:04018800e20300008e
:020000040000fa
:04018c00e20300008a
:020000040000fa
:04019000e203000086
:020000040000fa
:04019400e203000082
:020000040000fa
:04019800e20300007e
:020000040000fa
:04019c00e20300007a
:020000040000fa
:0401a000e203000076
:020000040000fa
:0401a400e203000072
:020000040000fa
:0401a800e20300006e
:020000040000fa
:0401ac00e20300006a
:020000040000fa
:0401b000e203000066
:020000040000fa
:0401b400e203000062
:020000040000fa
:0401b800e20300005e
:020000040000fa
:0401bc00e20300005a
:020000040000fa
:0401c000e203000056
:020000040000fa
:0401c400e203000052
:020000040000fa
:0401c800e20300004e
:020000040000fa
:0401cc00e20300004a
:020000040000fa
:0401d000e203000046
:020000040000fa
:0401d400e203000042
:020000040000fa
:0401d800e20300003e
:020000040000fa
:0401dc00e20300003a
:020000040000fa
:0401e000e203000036
:020000040000fa
:0401e400e203000032
:020000040000fa
:0401e800e20300002e
:020000040000fa
:0401ec00e20300002a
:020000040000fa
:0401f000e203000026
:020000040000fa
:0401f400e203000022
:020000040000fa
:0401f800e20300001e
:020000040000fa
:0401fc00e20300001a
:020000040000fa
:04020000e203000015
:020000040000fa
:04020400e203000011
:020000040000fa
:04020800e20300000d
:020000040000fa
:04020c00e203000009
:020000040000fa
:04021000e203000005
:020000040000fa
:04021400e203000001
:020000040000fa
:04021800e2030000fd
:020000040000fa
:04021c00e2030000f9
:020000040000fa
:04022000e2030000f5
:020000040000fa
:04022400e2030000f1
:020000040000fa
:04022800e2030000ed
:020000040000fa
:04022c00e2030000e9
:020000040000fa
:04023000e2030000e5
:020000040000fa
:04023400e2030000e1
:020000040000fa
:04023800e2030000dd
:020000040000fa
:04023c00e2030000d9
:020000040000fa
:04024000e2030000d5
:020000040000fa
:04024400e2030000d1
:020000040000fa
:04024800e2030000cd
:020000040000fa
:04024c00e2030000c9
:020000040000fa
:04025000e2030000c5
:020000040000fa
:04025400e2030000c1
:020000040000fa
:04025800e2030000bd
:020000040000fa
:04025c00e2030000b9
:020000040000fa
:04026000e2030000b5
:020000040000fa
:04026400e2030000b1
:020000040000fa
:04026800e2030000ad
:020000040000fa
:04026c00e2030000a9
:020000040000fa
:04027000e2030000a5
:020000040000fa
:04027400e2030000a1
:020000040000fa
:04027800e20300009d
:020000040000fa
:04027c00e203000099
:020000040000fa
:04028000e203000095
:020000040000fa
:100400004f1d21000eff2c000e018800000000008f
:10041000000020000000e000020032000001200087
:100420002002880014000700e80007000000e00038
:1004300003003a002098210001002000020037004c
:100440000000200001002000810f70000100320038
:100450000f000700000020000000e0000200320052
:100460000000020000000000b207020000000000cf
:100470000040da000000fe00200020000000e00044
:1004800002003200100020009001880000000600e9
:10049000a1028800800478000000eb001f003700f4
:1004a000e284440054a0b4009905ba00e2844400f8
:1004b00054a0b4009906ba00e284440054a0b400e9
:1004c0000006eb00476fde00fd07b200ae018800ba
:1004d000636ce10003003a000ad801000000eb0061
:1004e0000e003700606ce10008003a00004deb00a0
:1004f0000a05e800020039003420ec000af0a000f0
:100500008b05e900f9ff3e00040037006168e10057
:10051000010032000086eb000b00070019c7ba008b
:100520000e04e0001905ba0003003a000a00e000da
:10053000dbff3a0000000600fe07b200ae028800b2
:100540008a047800f5ff37000cd0a300e20f4d00bd
:100550001c00390089027800354dba000a05e80010
:10056000020039003420ec000af0a0008b05e900fd
:100570000f003200254dba000a05e80002003900dc
:100580003420ec000af0a0008b05e90008003200de
:100590000c00e0000600320015cdba000a05e800a4
:1005a000020039003420ec000af0a0008b05e900bd
:1005b0008984e80054a0b4000b00e000e2ff3a0098
:1005c000000006009902ba00055d78008b05e9007d
:1005d000f7ff3200c82ade00055d78008b05e900d0
:1005e000f3ff32000c00e000f1ff320019ddba0029
:1005f000eeff37001c120400000000000000fa00ab
:100600000108a9000080fa00004006003600f8004a
:10061000809fbe00829fbe00849fbe00869fbe005a
:100620000000fa000068a900e9080700b50a070001
:100630000080fa004f03be004f02be004f01be0013
:100640004f00be003600f900004006003600f800fa
:10065000809fbe00829fbe00849fbe00869fbe001a
:100660000000fa000368a9006080800071808000ab
:1006700061004000e0804800608088007180880050
:10068000030307000080fa004f03be004f02be00c4
:100690004f01be004f00be003600f90000400600ca
:1006a000801f78000000fa0001a8a900001880004f
:1006b000508e880010188000608e880020188000fe
:1006c000708e880030188000808e8800401880006e
:1006d000908e880010c0b30023f0b7000080fa00ad
:1006e0004f007800004006003600f800809fbe00f2
:1006f000829fbe00849fbe00869fbe000000fa005d
:100700000188a900a180800090808000808f500027
:10071000020032001c0a0700010037001670ef00cb
:100720000080fa004f03be004f02be004f01be0022
:100730004f00be003600f900004006003600f80009
:10074000809fbe00829fbe00849fbe00869fbe0029
:100750000000fa000168a900101180006400600028
:100760000000e000010032002242a90010118000c8
:10077000620060000000e000060032002222a900b2
:100780000500370030118000004078006d0a070036
:1007900001003700000000001011800061006000bf
:1007a0000000e000f7ff3a000080fa004f03be00af
:1007b0004f02be004f01be004f00be003600f900e0
:1007c000004006000040da000000fe0000000500c6
:1007d00003f0a200889fbe008a9fbe008c1f780095
:1007e0002a010700310133006450e1004f0032005c
:1007f0006420e1005200320003826c0007003b00dd
:100800000905d0000306d000820f54000c065d00dd
:1008100002003900020032008901780003067800e6
:100820008582550004003d000003fd008103fd00aa
:100830008502ea008b854200840f720002003b00b3
:1008400060001000e08018006011b8000005eb00a7
:100850007a28e1000a00390006007800c75ddd0053
:10086000f707b200878075002d0037008281710084
:100870000a017800610560008180d1000080d3000a
:100880008502e900f9ff3b00060440008784480028
:1008900002003b0060041400e0841c000988a300ef
:1008a000070032008a817100828171006101640059
:1008b0008904d1000884d3008b05e80017003700b5
:1008c0000978a30013003a000b00e0001300340085
:1008d0008b05e9000804440089844c000a44740034
:1008e0000978a3000d003a000b00e0000700340077
:1008f0008b05e9000804440089844c0001003a009b
:100900000b0020000978a300f7ff32000001eb0084
:1009100002003700828171000a017800a000070000
:100920000cf0a70001f0a000e90037006420e1000e
:1009300002003a00838f6c00e90033000801be001a
:100940000200be00e2003700889fbe008a9fbe0002
:100950008c1f7800cd000700d400330003866c00a4
:100960006450e1002e0032006420e10033003200c8
:100970006150e1002f0032006120e10031003200bf
:1009800085855500eb07b000090020000804200011
:10099000050037000804440089844c000a00310037
:1009a0000603430087834b000001530081815b00f5
:1009b000f8ff33000203be000800a0000804440052
:1009c00089844c00f6ff3900c639dd0083017300cd
:1009d00001003200130020008904d1000884d300f4
:1009e0000998a300050032000800a7000300a0003a
:1009f0008904d1000884d3008b05e8008904d10064
:100a00000884d3000001eb000281d20064000700db
:100a100001f0a1000cf0a70001f0a000ac0037002d
:100a20006420e100ae0032000801be000200be00fa
:100a3000f7ff37006120e100a90032006000b80034
:100a4000f3ff37000000200001f82700f0ff370017
:100a5000839f68000100e00002003d00600010007c
:100a6000e08018000300e00002003d00600111007a
:100a7000e0811900d10007004f00e00002003b00b8
:100a800060001000e0801800000006001400200044
:100a9000da003700f4ff2f00d80037000001be0055
:100aa000650007000470a70003f0a1006509b1000c
:100ab000160032000d0035006828e1000600350000
:100ac000f0ff2f00f1ff27000300e00013003b00c0
:100ad000010028000000050000004000818048005f
:100ae0008502e900fcff3a0008003700f88f420059
:100af00002003c008000eb00000005008100d100f6
:100b00000080d3008502e800fcff3a000300e0000b
:100b100002003b0060001000e080180000000600aa
:100b20000001be00440007000470a70003f0a1000c
:100b300003f8a30013003a006509b1001000320069
:100b4000090035006928e100020035000100280095
:100b50000000050000004000818048008502e90097
:100b6000fcff3a0000000600f88f42000500350047
:100b70008100d1000080d3008502e800fcff3a002c
:100b8000000006008000eb00000005004f89de0039
:100b900082017800b40037006011b800c20037004d
:100ba00081002000618055000b003d000b002000fb
:100bb00061fe2f000100e1001d0034008281710000
:100bc000610164008904d1000884d3000000e800ba
:100bd000faff3a0071002000610064000300700019
:100be000020060000900320061044400e0844c000f
:100bf0000988a500050032008b05e8006808e100bf
:100c000002003a008904d1000884d300f20f2000ca
:100c10000258e10005003d00c75ddd00f907b200a4
:100c20008980750008007800000006000bf8270096
:100c30008b00780000000500c70ade00f107b20053
:100c4000f50fb20008003200e1cf4200020032008e
:100c50000170a00024000500810f70000100320027
:100c60000408050044000500810f700002003a00ee
:100c7000140005008502e9000000400081c0480022
:100c8000fcff3b000170a000240005000004be0032
:100c9000e9ff07000003be000405be000200be001d
:100ca000e5ff0700844f7500000006000200be004b
:100cb0006450e100050036006420e10002003600c7
:100cc0000968a30001003a000800be000160a0000e
:100cd0004f0678004f05be004f04be00000006001e
:100ce000f0ff2f00f1ff2700f9ff3700889fbe00bb
:100cf0008a9fbe008c1f7800e4ff0700ebff3300e3
:100d000003866c006450e100240032006420e1009e
:100d1000270032006150e100220032006120e10032
:100d2000210032008b854200eb07b1000134b8008e
:100d3000003ab8000804420089844a00013ab80029
:100d40000030b8008880400009014a0004003300e8
:100d50000000400081804800020149008b05e90045
:100d6000c909dd008301700001003200130020007a
:100d7000c814de004814dd004709de001200b2008e
:100d8000c808de000884700085ff070001f0a1009c
:100d90000cf0a70001f0a000cdff37006120e100ba
:100da000cfff32000801be000200be00f7ff37008f
:100db0006150e100fcff3a00c9ff37006022b80033
:100dc000060220000000d0008180d2000482d20000
:100dd0008582d2000000a0000202520083825a00e5
:100de000030031000202420083824a000000a10099
:100df0000603e900f3ff3a0000000600889fbe00ea
:100e00008a9fbe00841f7800a0ff07004f00780073
:100e100011003300f0ff2f00838f6c0006003b00b1
:100e2000040565000a00a7000800370009f0a600c5
:100e30001000200008003700820f5400838f5c00f0
:100e4000030039001000200001003e0000002000d7
:100e500009f0a7000000ea004f05be004f04be00e5
:100e60000000e00000000600881f780003047800fe
:100e70000300e00007003d0060001000e080180063
:100e800060011900e081190002003b0001f02d0013
:100e9000030037000400070008f0a70001f0a000dd
:100ea0004f04780000000600889fbe008a9fbe00a5
:100eb000008270000402710004827100260032007a
:100ec0000004be000200be006011b8006b092000e3
:100ed000950220000182cf000a0039000541b100cf
:100ee0000082cf00070039000541b1000982cf0020
:100ef000040039000541b1000882cf00010039002b
:100f00000541b10005425200120032000a003b00c8
:100f100082817100610164008100d1000080d300f2
:100f20008984d3000884d3008b05e8000442e800dc
:100f3000f7ff3a00070037000804440089844c009a
:100f400000004800818048008b05e9000442e90068
:100f5000f9ff3a0012ff07004f05be004f04be0024
:040f60000000060087
:020000040000fa
:100f64000e00fa00bb0807000b090700350507004f
:100f7400680507006506070027080700e405070061
:100f840020090700050037000000000003003700b7
:100f940000000000010037000000000060080700a6
:100fa400e14f5000f8ff3a00c0212100e10f50004a
:100fb400f7ff3a005e08070055080700000f7800a5
:100fc4001e80e800100078008000eb00f1fe0700ae
:100fd400323323003305240043ff070002002000be
:100fe4000358240057fe0700d2cc2c00c30424006d
:100ff4003dff070010079800210798001e0190008c
:10100400ae01900000002000812024004dfe070066
:1010140002002000030a2400ecfd0700d08d8800a4
:10102400e18d88009e007800648040001000780004
:101034008000eb00d7fe0700323323003305240081
:1010440029ff070002002000035824003dfe07008a
:10105400d2cc2c00c304240023ff070010079800ff
:10106400210798001e019000ae01900000002000ae
:101074008120240033fe070002002000030a24001c
:10108400d2fd0700f08d8800018e88001e017800d3
:1010940068004100100078008000eb00bdfe0700ee
:1010a40032332300330524000fff07000200200021
:1010b4000358240023fe0700d2cc2c00c3042400d0
:1010c40009ff070010079800210798001e019000ef
:1010d400ae019000000020008120240019fe0700ca
:1010e40002002000030a2400b8fd0700108e8800c7
:1010f400218e88009e0078006680400010007800f1
:101104008000eb00a3fe07003233230033052400e4
:10111400f5fe0700020020000358240009fe070022
:10112400d2cc2c00c3042400effe07001007980063
:10113400210798001e019000ae01900000002000dd
:1011440081202400fffd070002002000030a240080
:101154009efd0700308e8800418e88001e007800b6
:10116400100078008000eb008afe07003233230071
:1011740033052400dcfe070002002000035824008d
:10118400f0fd0700d2cc2c00c3042400d6fe0700d7
:1011940010079800210798001e019000ae019000ee
:1011a4000000200081202400e6fd0700020020004a
:1011b400030a240085fd0700b08d8800c18d8800d6
:1011c400c1808000a0002000000178001100090007
:1011d4008200d8008000fd000000e00016003a0004
:1011e400108e8000218e80002bfe070000407800c6
:1011f400204f9800f08d8000018e800026fe0700ad
:1012040000407800304f9800d08d8000e18d800040
:1012140021fe070000407800404f98003000200075
:10122400300798006a00470000017800be00900073
:10123400000320003f030700c08080000000e80096
:10124400c0808800e10707000004e00052ff32007c
:101254000000eb004007980006003700cb070700aa
:101264000080fb00900307004e0090000000e8009f
:1012740040079800e6070700400798004e009000da
:101284000000e000f5ff3a0044ff37000000fa00d8
:101294001ad0bf000080fb00cf80de005201200086
:1012a40003002000820f5000838f5800a7003e00e7
:1012b40000060100150037001e0037002700370024
:1012c40031003700320037003c0037003d00370062
:1012d40047003700480037005200370053003700fa
:1012e4005d0037009900370098003700830037000d
:1012f4008d0037005a00370064003700650037005e
:101304006f003700700037007a0037000c30ef00b0
:101314000e30ef000041eb006000b80097050700b5
:1013240012c0b3006000b8009405070010c0b300f9
:101334001af0b7006280800073808000803e200035
:1013440001002000800f5100818f59008200360077
:1013540020c0b3001af0b700820037000041eb0050
:1013640000002000811c2c008405070012c0b3007b
:1013740000002000811c24008005070030c0b30059
:101384001af0b700770037007800070075003700bf
:101394000041eb0000002000011a2c007705070033
:1013a40012c0b30000002000010a2c0073050700de
:1013b40050c0b3001af0b7006a0037006b00070092
:1013c400680037000041eb0000002000010a2400ff
:1013d4006a05070012c0b30000002000011a2400af
:1013e4006605070070c0b3001af0b7005d0037004f
:1013f4005e0007005b0037000041eb0000002000a6
:1014040001172c005d05070012c0b3000000200086
:1014140001172c005905070090c0b3001af0b7005b
:1014240050003700510007004e0037000041eb0028
:1014340000002000011724005005070012c0b3006b
:1014440000002000011724004c050700b0c0b300c1
:101454001af0b7004300370044000700410037008a
:101464000041eb000000200001172c004305070099
:1014740012c0b30000002000011724003f0507003c
:1014840010c1b3001af0b700360037003700070068
:10149400340037000041eb000000200001122c0052
:1014a4003605070012c0b30000002000011a240012
:1014b4003205070030c1b3001af0b7002900370025
:1014c4002a000700270037000041eb00000020003d
:1014d400011a2c002905070012c0b30000002000e7
:1014e400011224002505070050c1b3001af0b7000b
:1014f4001c0037001d0007001a0037000041eb00f4
:1015040000002000011224001c05070012c0b300d3
:101514000000200001122c0018050700f0c0b300e1
:101524001af0b7000f0037006280800073808000db
:10153400803e200001002000800f5100818f59005f
:101544000700360009000700060037001a70ef0094
:101554000000000003003700000000000100370015
:10156400000000000080fa00000006000600fa00f7
:10157400881f78000040eb00004f7800d08d800079
:10158400e18d800018c0b30002002000031a24007b
:101594003dfd07000000e000010035000044eb00c1
:1015a4000804e0002f003200f08d8000018e8000de
:1015b40018c0b30002002000031a240032fd070003
:1015c4000000e000010035000044eb000804e000e6
:1015d40024003200108e8000218e800018c0b300d9
:1015e40002002000031a240027fd07000000e00089
:1015f400010035000044eb000804e000190032004b
:10160400b08d8000c18d800018c0b300020020009e
:10161400031a24001cfd07000000e000010035004f
:101624000044eb000804e0000e003200308e80001d
:10163400418e800018c0b30002002000031a240069
:1016440011fd07000000e000010035000044eb003c
:101654000804e0000300320080c0b300004f7800ab
:1016640088013700d08d8000e18d800018c0b30060
:1016740002002000031a240003fd07000000e0001c
:10168400010035000044eb000804e00019003200ba
:10169400f08d8000018e800018c0b300020020008d
:1016a400031a2400f8fc07000000e00001003500e4
:1016b4000044eb000804e0000e003200108e8000ad
:1016c400218e800018c0b30002002000031a2400f9
:1016d400edfc07000000e000010035000044eb00d1
:1016e4000804e00003003200c0c0b300004f7800db
:1016f40064013700d08d8000e18d800018c0b300f4
:1017040002002000031a2400e1fc07000000e000ae
:1017140001003c000044eb000804e0002f0032000c
:10172400f08d8000018e800018c0b30002002000fc
:10173400031f2400d6fc07000000e00001003c0069
:101744000044eb000804e00024003200108e800006
:10175400218e800018c0b30002002000031a240068
:10176400cbfc07000000e00001003c000044eb005b
:101774000804e00019003200b08d8000c18d8000a3
:1017840018c0b3000200200003122400befc0700ae
:101794000000e000010035000044eb000804e00014
:1017a4000e003200308e8000418e800018c0b300dd
:1017b4000200200003122400b3fc07000000e00034
:1017c400010035000044eb000804e000030032008f
:1017d400d0c0b300004f78002a013700d08d8000bc
:1017e400e18d800018c0b300020020000312240021
:1017f400a5fc07000000e000010035000044eb00f8
:101804000804e00019003200f08d8000018e800091
:1018140018c0b30002002000031f24009cfc070032
:101824000000e00001003c000044eb000804e0007c
:101834000e003200108e8000218e800018c0b3008c
:1018440002002000031224008ffc07000000e000c7
:10185400010035000044eb000804e00003003200fe
:1018640040c0b300004f780006013700d08d8000df
:10187400e18d800018c0b30002002000031f240083
:1018840081fc07000000e000010035000044eb008b
:101894000804e00019003200f08d8000018e800001
:1018a40018c0b30002002000031f240078fc0700c6
:1018b4000000e00001003c000044eb000804e000ec
:1018c4000e003200108e8000218e800018c0b300fc
:1018d40002002000031f24006dfc07000000e0004c
:1018e40001003c000044eb000804e0000300320067
:1018f40020c0b300004f7800e2003700d08d800094
:10190400e18d800018c0b30002002000031f2400f2
:101914005ffc07000000e00001003c000044eb0015
:101924000804e00019003200f08d8000018e800070
:1019340018c0b30002002000031f240054fc070059
:101944000000e00001003c000044eb000804e0005b
:101954000e003200108e8000218e800018c0b3006b
:1019640002002000031f240047fc07000000e000e1
:10197400010035000044eb000804e00003003200dd
:1019840010c0b300004f7800be003700f08d800017
:10199400018e800018c0b30002002000031a240046
:1019a40039fc07000000e000010035000044eb00b2
:1019b4000804e0000300320060c0b300004f780068
:1019c400b0003700f08d8000018e800018c0b30095
:1019d40002002000831c24002bfc07000000e00010
:1019e400010035000044eb000804e0000e00320062
:1019f400f08d8000018e800018c0b300020020002a
:101a0400031a240022fc07000000e00001003c004f
:101a14000044eb000804e0000300320070c0b3008f
:101a2400004f780097003700d08d8000e18d800052
:101a340018c0b30002002000031f240014fc070098
:101a44000000e00001003c000044eb000804e0005a
:101a54002f003200f08d8000018e800018c0b3008a
:101a640002002000031f240009fc07000000e0001e
:101a740001003c000044eb000804e00024003200b4
:101a8400108e8000218e800018c0b3000200200058
:101a9400031f2400fefb07000000e00001003c00df
:101aa4000044eb000804e00019003200b08d80000f
:101ab400c18d800018c0b30002002000031a240066
:101ac400f1fb07000000e000010035000044eb00da
:101ad4000804e0000e003200308e8000418e800049
:101ae40018c0b30002002000031f2400e8fb070015
:101af4000000e00001003c000044eb000804e000aa
:101b040003003200e0c0b300004f78005d003700ee
:101b1400d08d8000e18d800018c0b3000200200049
:101b2400031f2400dafb07000000e00001003c0072
:101b34000044eb000804e0002f003200f08d800028
:101b4400018e800018c0b30002002000031f24008f
:101b5400cffb07000000e00001003c000044eb0064
:101b64000804e00024003200108e8000218e8000e2
:101b740018c0b30002002000031f2400c4fb0700a8
:101b84000000e00001003c000044eb000804e00019
:101b940019003200b08d8000c18d800018c0b300e0
:101ba40002002000031f2400b9fb07000000e0002e
:101bb40001003c000044eb000804e0000e00320089
:101bc400308e8000418e800018c0b30002002000d7
:101bd400031a2400acfb07000000e00001003500fc
:101be4000044eb000804e00003003200f0c0b3003e
:101bf400004f780023003700d08d8000e18d8000f5
:101c040018c0b30002002000031f2400a0fb07003b
:101c14000000e00001003c000044eb000804e00088
:101c240018003200f08d8000018e800018c0b300cf
:101c340002002000031f240095fb07000000e000c1
:101c440001003c000044eb000804e0000d003200f9
:101c5400108e8000218e800018c0b3000200200086
:101c6400031f24008afb07000000e00001003c0081
:101c74000044eb000804e000020032000040eb00e6
:101c8400004f78001e407800e84f500003003a00ef
:101c9400e0c0b3001bf0b7004d0037001e407800d1
:101ca400ea4f500003003a0080c0b3001bf0b700b5
:101cb400470037001e407800eb4f500003003a0005
:101cc40080c0b3001bf0b700410037001e4078000d
:101cd400ec4f500003003a0080c0b3001bf0b70083
:101ce4003b0037001e407800ed4f500003003a00df
:101cf40000c1b3001bf0b700350037001e40780068
:101d0400e44f500003003a0080c0b3001bf0b7005a
:101d14002f0037001e407800e34f500003003a00c4
:101d240000c1b3001bf0b700290037001e40780043
:101d3400e24f500003003a0040c0b3001bf0b7006c
:101d4400230037001e407800e14f500003003a00a2
:101d540060c0b3001bf0b7001d0037001e407800c0
:101d6400e64f500003003a0080c0b3001bf0b700f8
:101d7400170037001e407800e74f500003003a0078
:101d840000c1b3001bf0b700110037001e407800fb
:101d9400ee4f500003003a0040c1b3001bf0b700ff
:101da4000b0037001e407800ef4f500003003a004c
:101db40020c1b3001bf0b700050037001e407800b7
:101dc4000004e00002003a0020c0b3001bf0b7009a
:101dd4001bd0bf008080fb001ad0bf000080fb0036
:101de4000000e900808f50001f0032001bd0bf00ac
:101df4001af0b7001ad0bf00104798006080800026
:101e0400718080004808de00004078002047980078
:101e140060808000718080004008de00004078000f
:101e24003047980060808000718080004809dd00a0
:101e34004800de0000007100c808de0000407800a1
:101e440040479800608080007180800000407800e6
:101e5400504798000e00e80000017800510020006f
:101e640000052000330007004f0478000080fa00ca
:101e7400000006000a00fa002007980031079800c5
:101e840042079800e0cfb300004f78002e00900086
:101e94004880de00804078001e40780000c0680062
:101ea400004f78002e009000804078001e4078009b
:101eb40000c06800004f78003e0090004880de00bb
:101ec400804078001e40780000c06800004f780011
:101ed4003e009000804078001e40780000c06800fa
:101ee400004f78000000eb00100798000000eb00a2
:101ef40010079800080037001e009000ce009000e4
:101f040000804000104078001e4f68001e009000c2
:101f14000000e800100798009e0090003e0090002a
:101f2400808f5000f4ff35001e4078000080fa00d6
:101f3400000006001000fa00889fbe0050079800b9
:101f440061079800720798000f0478000f0078006a
:101f5400800478006e009000660040008000e90074
:101f6400210798000000e8000000e8000000d1000c
:101f7400800040000f007800818747000000e800df
:101f84000000d10000004000300798000000eb0082
:101f9400000f78003e0090001e004000e1cfb30027
:101fa400014878001e0fe8005e0090004880de00c3
:101fb400804078003e0090001e00400001487800f8
:101fc4001e0fe8005e009000804078003e00900004
:101fd4001e004000014878001e0fe8006e009000cb
:101fe4004880de00804078003e0090001e004000e3
:101ff400014878001e0fe8006e00900080407800d1
:102004003e0090001e004000014878001e0fe800ca
:102014000000eb00100798000000eb001007980088
:102024000b0037001e009000fe009000008040006e
:10203400904078003e0090001e0040000148780067
:102044001e0fe8001e0090000000e8001007980032
:102054009e0090006e009000808f5000f1ff3500cc
:102064007e019000ee0090005e00900081ff07006a
:10207400004f98003e0090001e0040008e489000e3
:10208400014878001e0fe8003e0090009e00780092
:102094008003070089077800880778004f04be0092
:1020a4000080fa00000006000200fa00004f7800e9
:1020b40050808000e30f500028003200e30f5000ee
:1020c40007003c00e10f500015003200e10f500002
:1020d4001b003c000000e000080032005300370001
:1020e400e50f500031003200e50f500023003500a9
:1020f400e60f50003b0032004c0037001e407800d1
:10210400e24f40004c003a0010002000508088004c
:102114000030ef000230ef000430ef0049003700d8
:102124001e80fb0000808800008080004800dd00e5
:102134000080880020002000508088004100370083
:102144009e80fb00008080000080400000808800aa
:1021540030002000508088003a0037001e80fb00c9
:1021640010808800108080004800dd001080880006
:102174004000200050808800320037009e80fb0021
:102184001080800000804000108088001080800053
:102194000000e00002003a000a30ef002900370096
:1021a40050002000508088002600370020808000e6
:1021b40041122100008040001e48780020808000e9
:1021c4000000e800208088002180800010808000ca
:1021d400808f50001a003a00600020005080880070
:1021e400180037001e80fb004080880011808000aa
:1021f40000808000421221001eff07000080fb00c7
:10220400308088003180800040808000808f5000c2
:1022140004003a00118080000080800042122100f6
:102224000a0007000a30ef00060037000a30ef000a
:102234000000000003003700000000000100370028
:10224400000000000080fa00000006000600fa000a
:10225400000f780011079800220798001e007800ec
:1022640011052000810f50001000320011052000dc
:10227400810f500006003c000000e000080032001e
:1022840001022000810f5000160032006000370068
:1022940021052000810f50000b0032005c00370044
:1022a4009e009000010f78005c0037002e00900023
:1022b400104078000080fb005a0007000000eb008b
:1022c400000f7800550037002e0090001040780071
:1022d4000080fb00570007000000eb00000f7800af
:1022e4004e0037002e0090009040780090c4b30058
:1022f40080cf500007003a002e0090000000e80054
:102304009040780010c3b30080cf500001003a0021
:10231400254ea8002e00900090407800f0c4b30031
:1023240080cf500007003a002e0090000000e80023
:102334009040780010c3b30080cf500001003a00f1
:10234400254ea9002e0090009040780090c4b30060
:1023540080cf500007003a002e0090000000e800f3
:102364009040780020c3b30080cf500001003a00b1
:1023740064cea8002e00900090407800f0c4b30012
:1023840080cf500007003a002e0090000000e800c3
:102394009040780020c3b30080cf500001003a0081
:1023a40064cea9002e0090009040780090c4b30041
:1023b40080cf500007003a002e0090000000e80093
:1023c4009040780030c3b30080cf500001003a0041
:1023d40064eea8002e00900090407800f0c4b30092
:1023e40080cf500007003a002e0090000000e80063
:1023f4009040780030c3b30080cf500001003a0011
:1024040064eea9000000eb00000f78000300370021
:102414000000eb00000f7800000000000080fa00cc
:10242400000006000200fa00000f78000080fa00a5
:10243400000006000200fa00000f78000080fa0095
:10244400000006000400fa0013e1a90011e1a9004c
:102454001061a8001021a90081088000f0fc2f0061
:10246400008060000040a000800888000a21ef007e
:102474000621ef00404c20007008880000402b002b
:1024840060088800800880004400de00634060002b
:102494000081fb008001eb00700880008000eb00ed
:1024a400c002dd0004002000600880008000eb0012
:1024b4000400400085804800809ab900828bb900ee
:1024c40086027800050242000010b80001024200b2
:1024d400840078000001be0000a025002126200011
:1024e4005af90700a8f90700008fbe0021428000b6
:1024f40080ff2f00008060000000a00020428800c0
:102504000108a9002108a80011e1a8000080fa0030
:10251400000006000000fa0005e1a9000421a9005a
:1025240000002000812c2400050007000068a90099
:102534002068a80005e1a8000080fa000000060059
:102544000400fa00881f7800008fbe002108800074
:10255400f0fc2f0000806000200888001e01780035
:102564009e0190000068290081c12400f5f807004d
:1025740018c0b30002f02f00f377240044f90700d9
:102584000000e00001003c000044eb000804e0000f
:102594005400320021088000f0fc2f00008060000d
:1025a4000040a000200888001e0178009e019000d1
:1025b4000068290081c12400e2f80700020020001d
:1025c40003102400dff8070018c0b30002f02f0046
:1025d400f37724002ef907000000e00001003c001e
:1025e4000044eb000804e0003200320021088000bf
:1025f400f0fc2f00008060000050a000200888003c
:102604001e0178009e0190000068290081c1240009
:10261400ccf807000200200003282400c9f80700b2
:1026240018c0b30002f02f00f377240018f9070054
:102634000000e00001003c000044eb000804e0005e
:102644001000320021088000000320000100700007
:10265400200888001e0178009e019000006829006f
:1026640081c12400b7f807000200200003382400c9
:10267400b4f8070008f90700000078001008880083
:10268400200037001e0178009e0190000068290098
:1026940081c12400abf807000200200003282400b5
:1026a400a8f80700fcf8070000007800100888006c
:1026b400140037001e0178009e0190000068290074
:1026c40081c124009ff807000200200003102400a9
:1026d4009cf80700f0f80700000078001008880054
:1026e400080037001e0178009e0190000068290050
:1026f40081c1240093f80700e7f807000000780080
:10270400100888004f0478000080fa0000000600da
:102714000000fa0000002000a14724000700070081
:102724001fe1a9001e21a9000368a9002368a800cd
:102734001fe1a8000080fa00000006000400fa006f
:10274400881f7800008fbe00f1088000f0fc2f0085
:1027540000806000f00888001e0178009e0190004f
:102764000068290081c1240076f8070018c0b3006e
:1027740002f02f00f3772400c5f807000000e00002
:1027840001003c000044eb000804e0005400320067
:10279400f1088000f0fc2f00008060000040a000e1
:1027a400f00888001e0178009e019000006829004e
:1027b40081c1240063f807000200200003102400f4
:1027c40060f8070018c0b30002f02f00f37724006c
:1027d400aff807000000e00001003c000044eb00fb
:1027e4000804e00032003200f1088000f0fc2f0001
:1027f400008060000050a000f00888001e017800ee
:102804009e0190000068290081c124004df8070052
:1028140002002000032824004af8070018c0b3006f
:1028240002f02f00f377240099f807000000e0007d
:1028340001003c000044eb000804e00010003200fa
:10284400f10880000003200001007000f0088800f7
:102854001e0178009e0190000068290081c12400b7
:1028640038f80700020020000338240035f8070078
:1028740089f8070000007800d0088800200037009d
:102884001e0178009e0190000068290081c1240087
:102894002cf80700020020000328240029f8070070
:1028a4007df8070000007800d00888001400370085
:1028b4001e0178009e0190000068290081c1240057
:1028c40020f8070002002000031024001df8070070
:1028d40071f8070000007800d0088800080037006d
:1028e4001e0178009e0190000068290081c1240027
:1028f40014f8070068f8070000007800d008880082
:102904004f0478000080fa00000006000000fa007e
:102914001160800080ff2f0000806000106088003c
:1029240000fa20002060880023aca800238ca800b3
:1029340011618000f03f2f000080600000a0a00023
:10294400106188003000200020618800c3aca8001a
:10295400c38ca80011668000f03f2f000080600047
:1029640000a0a000106688003000200020668800c7
:1029740001eca8000080fa00000006000600fa003e
:10298400008fbe00424798004e4090000004e000d3
:1029940005003a001e0178009e019000728d8800a7
:1029a400838d8800070037004e409000e14f5000af
:1029b40004003a001e0178009e019000328d8800c8
:1029c400438d88000080fa00000006000000fa0031
:1029d400889fbe008a9fbe00948d8000a58d8000d4
:1029e400708d8000818d800018c0b3000001be008e
:1029f4000400be0024f807000000e00001003500d8
:102a04000044eb000804e0000f003200788d8000e1
:102a1400898d80009a8d8000ab8d800020d0bf000e
:102a24000080fb00cf80de0057f807000001be00e5
:102a34000a00be0066f707000801be00bc000700dc
:102a4400908d8800a18d8800948d8000a58d8000d4
:102a5400708d8000818d800018c0b3000001be001d
:102a64000400be000af807000000e00001003c007a
:102a74000044eb000804e0000f003200788d800071
:102a8400898d80009a8d8000ab8d800020d0bf009e
:102a94000080fb00cf80de003bf807000001be0091
:102aa4000a00be0049f707000801be0088000700bd
:102ab400908d8800a18d8800908d8000a18d80006c
:102ac40018c0b3006011b800f1f707000000e0007f
:102ad40001003c000044eb000804e0000400320064
:102ae400c3cca90024eea800c3eca800030037005f
:102af400c3eca90024cea800c3cca800908d80000c
:102b0400a18d80005c000700020020000322240045
:102b140075f8070001f807000000780030668800a7
:102b2400548d8000658d8000308d8000418d800043
:102b340018c0b3000001be000400be00d2f70700b5
:102b44000000e000010035000044eb000804e00050
:102b54000f003200388d8000498d80005a8d80002e
:102b64006b8d800020d0bf000080fb00cf80de0092
:102b740005f807000001be000a00be0014f70700b4
:102b84000801be006a000700508d8800618d88002e
:102b9400548d8000658d8000308d8000418d8000d3
:102ba40018c0b3000001be000400be00b8f707005f
:102bb4000000e00001003c000044eb000804e000d9
:102bc4000f003200388d8000498d80005a8d8000be
:102bd4006b8d800020d0bf000080fb00cf80de0022
:102be400e9f707000001be000a00be00f7f607007f
:102bf4000801be0036000700508d8800618d8800f2
:102c0400508d8000618d800018c0b3006011b80041
:102c14009ff707000000e00001003c000044eb00c7
:102c24000804e0000400320023cca90015eea8003b
:102c340023eca8000300370023eca90015cea8005c
:102c440023cca800508d8000618d80000a0007000d
:102c5400020020000322240023f80700aff7070036
:102c640000007800306188004f05be004f04be00ac
:102c74000080fa00000006000400fa00881f7800b3
:102c8400008fbe0018c0b3006011b8001e007800a9
:102c94009e0090007ef707000000e00001003d0068
:102ca4000044eb000804e000030032001e0078003a
:102cb4009e009000030037001e0078009e009000e4
:102cc40001f0a2004f0478000080fa000000060022
:102cd4000800fa00881f7800008fbe0022079800c1
:102ce4003307980018c0b3002e019000be01900075
:102cf4001e0078009e00900065f707000000e000c9
:102d040001003c000044eb000804e0000300320032
:102d14001e0078009e009000020037002e009000f4
:102d2400be0090004f0478000080fa000000060006
:102d34000800fa00881f7800008fbe002207980060
:102d44003307980018c0b3002e019000be01900014
:102d54001e0078009e0090004bf707000000e00082
:102d6400010035000044eb000804e00003003200d9
:102d74001e0078009e009000020037002e00900094
:102d8400be0090004f0478000080fa0000000600a6
:102d94000c00fa00881f7800008fbe0022079800fc
:102da40033079800440798005507980018c0b300eb
:102db4004e019000de0190001e0078009e009000fd
:102dc40033f707000000e00001003c000044eb0082
:102dd4000804e000040032004e019000de0190007f
:102de400028fbe000e00370018c0b3002e01900001
:102df400be0190001e0078009e00900022f707009c
:102e04000000e000010035000044eb000804e0008d
:102e1400030032002e019000be019000028fbe001c
:102e24001e0078009e0090004f0478000080fa0095
:102e3400000006000400fa00008fbe00b2fd20006e
:102e4400930424001e0078009e009000bdf6070045
:102e54000200200043332400a3f707000080fa0097
:102e6400000006000400fa00008fbe00b2fd20003e
:102e7400930424001e0078009e0090009af7070037
:102e84000200200043332400aef607000080fa005d
:102e9400000006000600fa001007980021079800b9
:102ea4000040eb00004f780054000700ae00900093
:102eb400810f5000110034000040eb00004f7800f7
:102ec400060037001e80fb009e009000008040003a
:102ed400104078000b0007001e4fe8009e80fb00a6
:102ee4002e009000808f5000f6ff35002e00070062
:102ef4000004e00001003a00220007000080fa000c
:102f0400000006000200fa00004f78009080800064
:102f140041022100008040001e487800908080001b
:102f24000000e8009080880091808000f007200075
:102f3400808f5000010034001230ef000080fa004e
:102f4400000006000200fa00a08080004102210077
:102f540000804000104f7800a08080000000e8004e
:102f6400a0808800a1808000f0072000808f50009e
:102f7400010034001430ef001e4078000080fa0095
:102f8400000006000200fa0010c0b30016f0b700fb
:102f9400ecff0700004f78001e80fb002011880022
:102fa4000080fa00000006000000fa0016d0bf00fe
:102fb4000080fa00000006000200fa009180800000
:102fc400a0808000808f5000040035009180800034
:102fd400a0808000008f50000500370091808000a1
:102fe400a08080000080500001082000010f4000f4
:102ff4001e0078000080fa00000006000200fa00bb
:10300400edff070001082000008f50001e0078002b
:103014000080fa00000006000000fa0021e3a90085
:103024002143a80001198000f0cf2f000080600028
:10303400001988002043a90001198000000e200017
:10304400010070000019880011198000f0ff2100b0
:1030540000806000101988002343a8001119800023
:10306400f0cf2f0000806000101988001119800033
:1030740030f82f00008060000040a0001019880084
:103084002203a9002223a90025e3a900f0c0b3006c
:1030940024e3b70021198000f00f2e008080600027
:1030a40000f0200001007000201988003303a900fb
:1030b4002e0ea8002f6ea8006f2ea8001e2ea800aa
:1030c4004feea80030c3a8003163a8002e03a80067
:1030d4003063a80031e3a8004119800000fc2f00f0
:1030e400008060004019880028e3a90001a8a90015
:1030f40021a8a80021e3a8000080fa00000006002f
:103104000000fa002023a8000080fa000000060056
:103114000000fa00a01c21000080fa000000060054
:103124000000fa0023d0bf000080fa00000006006f
:103134000000fa002370ef000080fa00000006008f
:103144000200fa00004f78002a0007000000e000a7
:103154000c003400e0808000410a2100008040001f
:103164001e487800e08080000000e800e0808800cd
:10317400e180800000082000808f500001003400ae
:103184001c30ef000080fa00000006000200fa0084
:10319400f0808000410a210000804000104f780038
:1031a400f08080000000e800f0808800f18080005a
:1031b40000082000808f5000010034001e30ef0012
:1031c4001e4078000080fa00000006000000fa00ab
:1031d400e1808000f0808000808f50000200320087
:1031e40010c0b300010037000040eb000080fa007b
:1031f400000006000200fa00050007000108200094
:10320400008f50001e0078000080fa0000000600c5
:103214000200fa00e1808000f0808000808f50007e
:1032240004003500e1808000f0808000008f5000b1
:1032340005003700e1808000f080800000805000ad
:1032440001082000010f40001e0078000080fa00f1
:10325400000006000000fa00f0032000303a880065
:10326400213a8000f0f32f0000806000203a8800ab
:10327400213a800000fe2f00008060000000a000c2
:10328400203a88001200200080072000a1092000b5
:10329400337420008049780081497800824978009d
:1032a400103a8000000178000200a00060042000b1
:1032b400710520002374200080497800814978003a
:1032c4008249780000000000113a800000002700c5
:1032d4008080600000002100808f5000faff3a00d7
:1032e40000000000113a800000022000008060000d
:1032f4000000e000fbff32000080fa00000006003e
:020000040000fa
:103304001810000004000000800000000c100000f1
:103314000600000080000000a41100002600000048
:103324008000000020100000020000008200000065
:1033340007000000ca1100000a000000800000001d
:103344002210000002000000800000002410000091
:103354008000000080000000121000000600000041
:1033640080000000a4100000800000008000000025
:103374001c10000004000000800000002411000064
:103384008000000080000000001000000c0000001d
:083394008000000000000000b1
:020000040000fa
:10339c000000fa000e2eef001e2eef002e2eef0076
:1033ac003e2eef004e2eef005e2eef006e2eef0045
:1033bc00214ea90060cea90060eea90011cea90093
:1033cc0011eea90020cea90020eea9002136800024
:1033dc0000f82f00008060008001b30020368800c8
:1033ec001134800000fc2f00008060000000a00061
:1033fc00103488000080fa00000006000000fa007b
:10340c002002a9000111800090ff2f0000806000b5
:10341c000011880020a2a9002062a80050052000fd
:10342c004011880023a2a90023e2a9000188a90069
:10343c002188a80011118000f0f32f00008060009b
:10344c00101188000168a9002168a80021e2a800d9
:0c345c002342a8000080fa0000000600d7
:020000040000fa
:02000004000af0
:04afe000cfff00009f
:020000040000fa
:02000004000af0
:04afe400ffff00006b
:020000040000fa
:02000004000af0
:04afe8007fff0000e7
:020000040000fa
:02000004000af0
:04afec005fff000003
:020000040000fa
:02000004000af0
:04aff00038ff000026
:020000040000fa
:02000004000af0
:04aff400ffff00005b
:00000001FF
